{
    "contractName": "ServiceDeployer",
    "abi": [
        {
            "inputs": [
                {
                    "internalType": "contract IServiceLocator",
                    "name": "_serviceLocator",
                    "type": "address"
                }
            ],
            "stateMutability": "nonpayable",
            "type": "constructor"
        },
        {
            "anonymous": false,
            "inputs": [
                {
                    "indexed": true,
                    "internalType": "address",
                    "name": "previousOwner",
                    "type": "address"
                },
                {
                    "indexed": true,
                    "internalType": "address",
                    "name": "newOwner",
                    "type": "address"
                }
            ],
            "name": "OwnershipTransferred",
            "type": "event"
        },
        {
            "anonymous": false,
            "inputs": [
                {
                    "indexed": false,
                    "internalType": "address",
                    "name": "account",
                    "type": "address"
                }
            ],
            "name": "Paused",
            "type": "event"
        },
        {
            "anonymous": false,
            "inputs": [
                {
                    "indexed": false,
                    "internalType": "address",
                    "name": "account",
                    "type": "address"
                }
            ],
            "name": "Unpaused",
            "type": "event"
        },
        {
            "inputs": [],
            "name": "counter",
            "outputs": [
                {
                    "internalType": "uint256",
                    "name": "",
                    "type": "uint256"
                }
            ],
            "stateMutability": "view",
            "type": "function"
        },
        {
            "inputs": [
                {
                    "internalType": "string",
                    "name": "name",
                    "type": "string"
                },
                {
                    "internalType": "string",
                    "name": "spec",
                    "type": "string"
                },
                {
                    "internalType": "bytes",
                    "name": "code",
                    "type": "bytes"
                }
            ],
            "name": "deploy",
            "outputs": [
                {
                    "internalType": "address",
                    "name": "",
                    "type": "address"
                }
            ],
            "stateMutability": "nonpayable",
            "type": "function"
        },
        {
            "inputs": [],
            "name": "owner",
            "outputs": [
                {
                    "internalType": "address",
                    "name": "",
                    "type": "address"
                }
            ],
            "stateMutability": "view",
            "type": "function"
        },
        {
            "inputs": [],
            "name": "pause",
            "outputs": [],
            "stateMutability": "nonpayable",
            "type": "function"
        },
        {
            "inputs": [],
            "name": "paused",
            "outputs": [
                {
                    "internalType": "bool",
                    "name": "",
                    "type": "bool"
                }
            ],
            "stateMutability": "view",
            "type": "function"
        },
        {
            "inputs": [],
            "name": "renounceOwnership",
            "outputs": [],
            "stateMutability": "nonpayable",
            "type": "function"
        },
        {
            "inputs": [
                {
                    "internalType": "address",
                    "name": "newOwner",
                    "type": "address"
                }
            ],
            "name": "transferOwnership",
            "outputs": [],
            "stateMutability": "nonpayable",
            "type": "function"
        },
        {
            "inputs": [],
            "name": "unpause",
            "outputs": [],
            "stateMutability": "nonpayable",
            "type": "function"
        }
    ],
    "bytecode": "608060405234801561001057600080fd5b50604051610a88380380610a8883398101604081905261002f916100be565b6100383361006e565b6000805460ff60a01b1916905560018055600280546001600160a01b0319166001600160a01b03929092169190911790556100ee565b600080546001600160a01b038381166001600160a01b0319831681178455604051919092169283917f8be0079c531659141344cd1fd0a4f28419497f9722a3daafe3b4186f6b6457e09190a35050565b6000602082840312156100d057600080fd5b81516001600160a01b03811681146100e757600080fd5b9392505050565b61098b806100fd6000396000f3fe608060405234801561001057600080fd5b50600436106100885760003560e01c8063715018a61161005b578063715018a6146100fb5780638456cb59146101035780638da5cb5b1461010b578063f2fde38b1461011c57600080fd5b80633f4ba83a1461008d5780634f28f6f3146100975780635c975abb146100c757806361bc221a146100e4575b600080fd5b61009561012f565b005b6100aa6100a53660046107c4565b610141565b6040516001600160a01b0390911681526020015b60405180910390f35b600054600160a01b900460ff1660405190151581526020016100be565b6100ed60035481565b6040519081526020016100be565b610095610435565b610095610447565b6000546001600160a01b03166100aa565b61009561012a36600461085e565b610457565b6101376104d0565b61013f61052a565b565b600061014b61057f565b6101536105cc565b600354339061016390600161088e565b60038190555060006101eb85858080601f016020809104026020016040519081016040528093929190818152602001838380828437600092019190915250506003546040516101d09350909150869060200191825260601b6001600160601b031916602082015260340190565b60405160208183030381529060405280519060200120610625565b600254604051638386cdd960e01b81529192506001600160a01b031690638386cdd990610226908c908c908c908c9088908a906004016108d8565b600060405180830381600087803b15801561024057600080fd5b505af1158015610254573d6000803e3d6000fd5b5050505060006102da86868080601f016020809104026020016040519081016040528093929190818152602001838380828437600092019190915250506003546040516102bf9350909150879060200191825260601b6001600160601b031916602082015260340190565b6040516020818303038152906040528051906020012061067f565b9050806001600160a01b0316826001600160a01b0316146103425760405162461bcd60e51b815260206004820152601960248201527f4465706c6f7965642061646472657373206d69736d617463680000000000000060448201526064015b60405180910390fd5b6040516001600160a01b0384811660248301526000919083169060440160408051601f198184030181529181526020820180516001600160e01b03166313af403560e01b179052516103949190610926565b6000604051808303816000865af19150503d80600081146103d1576040519150601f19603f3d011682016040523d82523d6000602084013e6103d6565b606091505b505090508061041d5760405162461bcd60e51b815260206004820152601360248201527213dddb995c8818d85b9b9bdd081899481cd95d606a1b6044820152606401610339565b509250505061042b60018055565b9695505050505050565b61043d6104d0565b61013f6000610698565b61044f6104d0565b61013f6106e8565b61045f6104d0565b6001600160a01b0381166104c45760405162461bcd60e51b815260206004820152602660248201527f4f776e61626c653a206e6577206f776e657220697320746865207a65726f206160448201526564647265737360d01b6064820152608401610339565b6104cd81610698565b50565b6000546001600160a01b0316331461013f5760405162461bcd60e51b815260206004820181905260248201527f4f776e61626c653a2063616c6c6572206973206e6f7420746865206f776e65726044820152606401610339565b61053261072b565b6000805460ff60a01b191690557f5db9ee0a495bf2e6ff9c91a7834c1ba4fdd244a5e8aa4e537bd38aeae4b073aa335b6040516001600160a01b03909116815260200160405180910390a1565b600054600160a01b900460ff161561013f5760405162461bcd60e51b815260206004820152601060248201526f14185d5cd8589b194e881c185d5cd95960821b6044820152606401610339565b60026001540361061e5760405162461bcd60e51b815260206004820152601f60248201527f5265656e7472616e637947756172643a207265656e7472616e742063616c6c006044820152606401610339565b6002600155565b8151602080840191909120604080516001600160f81b0319818501523060601b6001600160601b03191660218201526035810185905260558082019390935281518082039093018352607501905280519101205b92915050565b6000818351602085016000f59050803b61067957600080fd5b600080546001600160a01b038381166001600160a01b0319831681178455604051919092169283917f8be0079c531659141344cd1fd0a4f28419497f9722a3daafe3b4186f6b6457e09190a35050565b6106f061057f565b6000805460ff60a01b1916600160a01b1790557f62e78cea01bee320cd4e420270b5ea74000d11b0c9f74754ebdbfc544b05a2586105623390565b600054600160a01b900460ff1661013f5760405162461bcd60e51b815260206004820152601460248201527314185d5cd8589b194e881b9bdd081c185d5cd95960621b6044820152606401610339565b60008083601f84011261078d57600080fd5b50813567ffffffffffffffff8111156107a557600080fd5b6020830191508360208285010111156107bd57600080fd5b9250929050565b600080600080600080606087890312156107dd57600080fd5b863567ffffffffffffffff808211156107f557600080fd5b6108018a838b0161077b565b9098509650602089013591508082111561081a57600080fd5b6108268a838b0161077b565b9096509450604089013591508082111561083f57600080fd5b5061084c89828a0161077b565b979a9699509497509295939492505050565b60006020828403121561087057600080fd5b81356001600160a01b038116811461088757600080fd5b9392505050565b8082018082111561067957634e487b7160e01b600052601160045260246000fd5b81835281816020850137506000828201602090810191909152601f909101601f19169091010190565b6080815260006108ec60808301888a6108af565b82810360208401526108ff8187896108af565b6001600160a01b039586166040850152939094166060909201919091525095945050505050565b6000825160005b81811015610947576020818601810151858301520161092d565b50600092019182525091905056fea2646970667358221220eed62ba6560ea1dd8155f985e0a3f47205c7cb04c7e7220527c81ed029a7e16364736f6c63430008130033",
    "sourcePath": "c:/Projects/Toolblox.Audit/Toolblox.Token/Contracts/ServiceDeployer.sol",
    "compiler": {
        "name": "solc",
        "version": "0.8.19+commit.7dd6d404"
    },
    "functionHashes": {
        "counter()": "61bc221a",
        "deploy(string,string,bytes)": "4f28f6f3",
        "owner()": "8da5cb5b",
        "pause()": "8456cb59",
        "paused()": "5c975abb",
        "renounceOwnership()": "715018a6",
        "transferOwnership(address)": "f2fde38b",
        "unpause()": "3f4ba83a"
    },
    "gasEstimates": {
        "creation": {
            "codeDepositCost": "488600",
            "executionCost": "infinite",
            "totalCost": "infinite"
        },
        "external": {
            "counter()": "2362",
            "deploy(string,string,bytes)": "infinite",
            "owner()": "2364",
            "pause()": "infinite",
            "paused()": "2354",
            "renounceOwnership()": "infinite",
            "transferOwnership(address)": "28364",
            "unpause()": "infinite"
        },
        "internal": {
            "_computeAddress(bytes memory,bytes32)": "infinite",
            "_deploy(bytes memory,bytes32)": "infinite"
        }
    }
}