{
    "contractName": "TixToken",
    "abi": [
        {
            "inputs": [
                {
                    "internalType": "uint256",
                    "name": "initialSupply",
                    "type": "uint256"
                }
            ],
            "stateMutability": "nonpayable",
            "type": "constructor"
        },
        {
            "anonymous": false,
            "inputs": [
                {
                    "indexed": true,
                    "internalType": "address",
                    "name": "owner",
                    "type": "address"
                },
                {
                    "indexed": true,
                    "internalType": "address",
                    "name": "spender",
                    "type": "address"
                },
                {
                    "indexed": false,
                    "internalType": "uint256",
                    "name": "value",
                    "type": "uint256"
                }
            ],
            "name": "Approval",
            "type": "event"
        },
        {
            "anonymous": false,
            "inputs": [
                {
                    "indexed": true,
                    "internalType": "address",
                    "name": "previousOwner",
                    "type": "address"
                },
                {
                    "indexed": true,
                    "internalType": "address",
                    "name": "newOwner",
                    "type": "address"
                }
            ],
            "name": "OwnershipTransferred",
            "type": "event"
        },
        {
            "anonymous": false,
            "inputs": [
                {
                    "indexed": false,
                    "internalType": "address",
                    "name": "account",
                    "type": "address"
                }
            ],
            "name": "Paused",
            "type": "event"
        },
        {
            "anonymous": false,
            "inputs": [
                {
                    "indexed": true,
                    "internalType": "bytes32",
                    "name": "role",
                    "type": "bytes32"
                },
                {
                    "indexed": true,
                    "internalType": "bytes32",
                    "name": "previousAdminRole",
                    "type": "bytes32"
                },
                {
                    "indexed": true,
                    "internalType": "bytes32",
                    "name": "newAdminRole",
                    "type": "bytes32"
                }
            ],
            "name": "RoleAdminChanged",
            "type": "event"
        },
        {
            "anonymous": false,
            "inputs": [
                {
                    "indexed": true,
                    "internalType": "bytes32",
                    "name": "role",
                    "type": "bytes32"
                },
                {
                    "indexed": true,
                    "internalType": "address",
                    "name": "account",
                    "type": "address"
                },
                {
                    "indexed": true,
                    "internalType": "address",
                    "name": "sender",
                    "type": "address"
                }
            ],
            "name": "RoleGranted",
            "type": "event"
        },
        {
            "anonymous": false,
            "inputs": [
                {
                    "indexed": true,
                    "internalType": "bytes32",
                    "name": "role",
                    "type": "bytes32"
                },
                {
                    "indexed": true,
                    "internalType": "address",
                    "name": "account",
                    "type": "address"
                },
                {
                    "indexed": true,
                    "internalType": "address",
                    "name": "sender",
                    "type": "address"
                }
            ],
            "name": "RoleRevoked",
            "type": "event"
        },
        {
            "anonymous": false,
            "inputs": [
                {
                    "indexed": false,
                    "internalType": "bytes32",
                    "name": "_name",
                    "type": "bytes32"
                },
                {
                    "indexed": false,
                    "internalType": "address",
                    "name": "_destination",
                    "type": "address"
                },
                {
                    "indexed": false,
                    "internalType": "string",
                    "name": "_spec",
                    "type": "string"
                }
            ],
            "name": "ServiceRegistered",
            "type": "event"
        },
        {
            "anonymous": false,
            "inputs": [
                {
                    "indexed": true,
                    "internalType": "address",
                    "name": "from",
                    "type": "address"
                },
                {
                    "indexed": true,
                    "internalType": "address",
                    "name": "to",
                    "type": "address"
                },
                {
                    "indexed": false,
                    "internalType": "uint256",
                    "name": "value",
                    "type": "uint256"
                }
            ],
            "name": "Transfer",
            "type": "event"
        },
        {
            "anonymous": false,
            "inputs": [
                {
                    "indexed": false,
                    "internalType": "address",
                    "name": "account",
                    "type": "address"
                }
            ],
            "name": "Unpaused",
            "type": "event"
        },
        {
            "inputs": [],
            "name": "BALANCER",
            "outputs": [
                {
                    "internalType": "bytes32",
                    "name": "",
                    "type": "bytes32"
                }
            ],
            "stateMutability": "view",
            "type": "function"
        },
        {
            "inputs": [],
            "name": "DEFAULT_ADMIN_ROLE",
            "outputs": [
                {
                    "internalType": "bytes32",
                    "name": "",
                    "type": "bytes32"
                }
            ],
            "stateMutability": "view",
            "type": "function"
        },
        {
            "inputs": [],
            "name": "MINTER_ROLE",
            "outputs": [
                {
                    "internalType": "bytes32",
                    "name": "",
                    "type": "bytes32"
                }
            ],
            "stateMutability": "view",
            "type": "function"
        },
        {
            "inputs": [],
            "name": "PAUSER_ROLE",
            "outputs": [
                {
                    "internalType": "bytes32",
                    "name": "",
                    "type": "bytes32"
                }
            ],
            "stateMutability": "view",
            "type": "function"
        },
        {
            "inputs": [],
            "name": "SERVICE_WORKER",
            "outputs": [
                {
                    "internalType": "bytes32",
                    "name": "",
                    "type": "bytes32"
                }
            ],
            "stateMutability": "view",
            "type": "function"
        },
        {
            "inputs": [],
            "name": "_counter",
            "outputs": [
                {
                    "internalType": "uint256",
                    "name": "",
                    "type": "uint256"
                }
            ],
            "stateMutability": "view",
            "type": "function"
        },
        {
            "inputs": [],
            "name": "_registrationFee",
            "outputs": [
                {
                    "internalType": "uint256",
                    "name": "",
                    "type": "uint256"
                }
            ],
            "stateMutability": "view",
            "type": "function"
        },
        {
            "inputs": [
                {
                    "internalType": "address",
                    "name": "owner",
                    "type": "address"
                },
                {
                    "internalType": "address",
                    "name": "spender",
                    "type": "address"
                }
            ],
            "name": "allowance",
            "outputs": [
                {
                    "internalType": "uint256",
                    "name": "",
                    "type": "uint256"
                }
            ],
            "stateMutability": "view",
            "type": "function"
        },
        {
            "inputs": [
                {
                    "internalType": "address",
                    "name": "spender",
                    "type": "address"
                },
                {
                    "internalType": "uint256",
                    "name": "amount",
                    "type": "uint256"
                }
            ],
            "name": "approve",
            "outputs": [
                {
                    "internalType": "bool",
                    "name": "",
                    "type": "bool"
                }
            ],
            "stateMutability": "nonpayable",
            "type": "function"
        },
        {
            "inputs": [
                {
                    "internalType": "bytes32[]",
                    "name": "names",
                    "type": "bytes32[]"
                },
                {
                    "internalType": "address[]",
                    "name": "destinations",
                    "type": "address[]"
                }
            ],
            "name": "areServicesRegistered",
            "outputs": [
                {
                    "internalType": "bool",
                    "name": "",
                    "type": "bool"
                }
            ],
            "stateMutability": "view",
            "type": "function"
        },
        {
            "inputs": [
                {
                    "internalType": "address",
                    "name": "account",
                    "type": "address"
                }
            ],
            "name": "balanceOf",
            "outputs": [
                {
                    "internalType": "uint256",
                    "name": "",
                    "type": "uint256"
                }
            ],
            "stateMutability": "view",
            "type": "function"
        },
        {
            "inputs": [
                {
                    "internalType": "uint256",
                    "name": "amount",
                    "type": "uint256"
                }
            ],
            "name": "burn",
            "outputs": [],
            "stateMutability": "nonpayable",
            "type": "function"
        },
        {
            "inputs": [
                {
                    "internalType": "address",
                    "name": "account",
                    "type": "address"
                },
                {
                    "internalType": "uint256",
                    "name": "amount",
                    "type": "uint256"
                }
            ],
            "name": "burnFrom",
            "outputs": [],
            "stateMutability": "nonpayable",
            "type": "function"
        },
        {
            "inputs": [],
            "name": "decimals",
            "outputs": [
                {
                    "internalType": "uint8",
                    "name": "",
                    "type": "uint8"
                }
            ],
            "stateMutability": "view",
            "type": "function"
        },
        {
            "inputs": [
                {
                    "internalType": "address",
                    "name": "spender",
                    "type": "address"
                },
                {
                    "internalType": "uint256",
                    "name": "subtractedValue",
                    "type": "uint256"
                }
            ],
            "name": "decreaseAllowance",
            "outputs": [
                {
                    "internalType": "bool",
                    "name": "",
                    "type": "bool"
                }
            ],
            "stateMutability": "nonpayable",
            "type": "function"
        },
        {
            "inputs": [
                {
                    "internalType": "bytes32",
                    "name": "role",
                    "type": "bytes32"
                }
            ],
            "name": "getRoleAdmin",
            "outputs": [
                {
                    "internalType": "bytes32",
                    "name": "",
                    "type": "bytes32"
                }
            ],
            "stateMutability": "view",
            "type": "function"
        },
        {
            "inputs": [
                {
                    "internalType": "bytes32",
                    "name": "role",
                    "type": "bytes32"
                },
                {
                    "internalType": "uint256",
                    "name": "index",
                    "type": "uint256"
                }
            ],
            "name": "getRoleMember",
            "outputs": [
                {
                    "internalType": "address",
                    "name": "",
                    "type": "address"
                }
            ],
            "stateMutability": "view",
            "type": "function"
        },
        {
            "inputs": [
                {
                    "internalType": "bytes32",
                    "name": "role",
                    "type": "bytes32"
                }
            ],
            "name": "getRoleMemberCount",
            "outputs": [
                {
                    "internalType": "uint256",
                    "name": "",
                    "type": "uint256"
                }
            ],
            "stateMutability": "view",
            "type": "function"
        },
        {
            "inputs": [
                {
                    "internalType": "bytes32",
                    "name": "name",
                    "type": "bytes32"
                }
            ],
            "name": "getService",
            "outputs": [
                {
                    "internalType": "address",
                    "name": "",
                    "type": "address"
                }
            ],
            "stateMutability": "view",
            "type": "function"
        },
        {
            "inputs": [
                {
                    "internalType": "bytes32",
                    "name": "role",
                    "type": "bytes32"
                },
                {
                    "internalType": "address",
                    "name": "account",
                    "type": "address"
                }
            ],
            "name": "grantRole",
            "outputs": [],
            "stateMutability": "nonpayable",
            "type": "function"
        },
        {
            "inputs": [
                {
                    "internalType": "bytes32",
                    "name": "role",
                    "type": "bytes32"
                },
                {
                    "internalType": "address",
                    "name": "account",
                    "type": "address"
                }
            ],
            "name": "hasRole",
            "outputs": [
                {
                    "internalType": "bool",
                    "name": "",
                    "type": "bool"
                }
            ],
            "stateMutability": "view",
            "type": "function"
        },
        {
            "inputs": [
                {
                    "internalType": "address",
                    "name": "spender",
                    "type": "address"
                },
                {
                    "internalType": "uint256",
                    "name": "addedValue",
                    "type": "uint256"
                }
            ],
            "name": "increaseAllowance",
            "outputs": [
                {
                    "internalType": "bool",
                    "name": "",
                    "type": "bool"
                }
            ],
            "stateMutability": "nonpayable",
            "type": "function"
        },
        {
            "inputs": [
                {
                    "internalType": "address",
                    "name": "to",
                    "type": "address"
                },
                {
                    "internalType": "uint256",
                    "name": "amount",
                    "type": "uint256"
                }
            ],
            "name": "mint",
            "outputs": [],
            "stateMutability": "nonpayable",
            "type": "function"
        },
        {
            "inputs": [],
            "name": "name",
            "outputs": [
                {
                    "internalType": "string",
                    "name": "",
                    "type": "string"
                }
            ],
            "stateMutability": "view",
            "type": "function"
        },
        {
            "inputs": [],
            "name": "owner",
            "outputs": [
                {
                    "internalType": "address",
                    "name": "",
                    "type": "address"
                }
            ],
            "stateMutability": "view",
            "type": "function"
        },
        {
            "inputs": [],
            "name": "pause",
            "outputs": [],
            "stateMutability": "nonpayable",
            "type": "function"
        },
        {
            "inputs": [],
            "name": "paused",
            "outputs": [
                {
                    "internalType": "bool",
                    "name": "",
                    "type": "bool"
                }
            ],
            "stateMutability": "view",
            "type": "function"
        },
        {
            "inputs": [
                {
                    "internalType": "string",
                    "name": "name",
                    "type": "string"
                },
                {
                    "internalType": "string",
                    "name": "spec",
                    "type": "string"
                },
                {
                    "internalType": "bytes",
                    "name": "code",
                    "type": "bytes"
                }
            ],
            "name": "registerService",
            "outputs": [
                {
                    "internalType": "address",
                    "name": "",
                    "type": "address"
                }
            ],
            "stateMutability": "nonpayable",
            "type": "function"
        },
        {
            "inputs": [
                {
                    "internalType": "bytes32[]",
                    "name": "names",
                    "type": "bytes32[]"
                },
                {
                    "components": [
                        {
                            "internalType": "address",
                            "name": "destination",
                            "type": "address"
                        },
                        {
                            "internalType": "address",
                            "name": "owner",
                            "type": "address"
                        },
                        {
                            "internalType": "string",
                            "name": "spec",
                            "type": "string"
                        }
                    ],
                    "internalType": "struct TixToken.ServiceRegistration[]",
                    "name": "destinations",
                    "type": "tuple[]"
                }
            ],
            "name": "registerServices",
            "outputs": [],
            "stateMutability": "nonpayable",
            "type": "function"
        },
        {
            "inputs": [],
            "name": "renounceOwnership",
            "outputs": [],
            "stateMutability": "nonpayable",
            "type": "function"
        },
        {
            "inputs": [
                {
                    "internalType": "bytes32",
                    "name": "role",
                    "type": "bytes32"
                },
                {
                    "internalType": "address",
                    "name": "account",
                    "type": "address"
                }
            ],
            "name": "renounceRole",
            "outputs": [],
            "stateMutability": "nonpayable",
            "type": "function"
        },
        {
            "inputs": [
                {
                    "internalType": "bytes32",
                    "name": "",
                    "type": "bytes32"
                }
            ],
            "name": "repository",
            "outputs": [
                {
                    "internalType": "address",
                    "name": "destination",
                    "type": "address"
                },
                {
                    "internalType": "address",
                    "name": "owner",
                    "type": "address"
                },
                {
                    "internalType": "string",
                    "name": "spec",
                    "type": "string"
                }
            ],
            "stateMutability": "view",
            "type": "function"
        },
        {
            "inputs": [
                {
                    "internalType": "bytes32",
                    "name": "role",
                    "type": "bytes32"
                },
                {
                    "internalType": "address",
                    "name": "account",
                    "type": "address"
                }
            ],
            "name": "revokeRole",
            "outputs": [],
            "stateMutability": "nonpayable",
            "type": "function"
        },
        {
            "inputs": [
                {
                    "internalType": "uint256",
                    "name": "fee",
                    "type": "uint256"
                }
            ],
            "name": "setRegistrationFee",
            "outputs": [],
            "stateMutability": "nonpayable",
            "type": "function"
        },
        {
            "inputs": [
                {
                    "internalType": "bytes4",
                    "name": "interfaceId",
                    "type": "bytes4"
                }
            ],
            "name": "supportsInterface",
            "outputs": [
                {
                    "internalType": "bool",
                    "name": "",
                    "type": "bool"
                }
            ],
            "stateMutability": "view",
            "type": "function"
        },
        {
            "inputs": [],
            "name": "symbol",
            "outputs": [
                {
                    "internalType": "string",
                    "name": "",
                    "type": "string"
                }
            ],
            "stateMutability": "view",
            "type": "function"
        },
        {
            "inputs": [],
            "name": "totalSupply",
            "outputs": [
                {
                    "internalType": "uint256",
                    "name": "",
                    "type": "uint256"
                }
            ],
            "stateMutability": "view",
            "type": "function"
        },
        {
            "inputs": [
                {
                    "internalType": "address",
                    "name": "to",
                    "type": "address"
                },
                {
                    "internalType": "uint256",
                    "name": "amount",
                    "type": "uint256"
                }
            ],
            "name": "transfer",
            "outputs": [
                {
                    "internalType": "bool",
                    "name": "",
                    "type": "bool"
                }
            ],
            "stateMutability": "nonpayable",
            "type": "function"
        },
        {
            "inputs": [
                {
                    "internalType": "address",
                    "name": "from",
                    "type": "address"
                },
                {
                    "internalType": "address",
                    "name": "to",
                    "type": "address"
                },
                {
                    "internalType": "uint256",
                    "name": "amount",
                    "type": "uint256"
                }
            ],
            "name": "transferFrom",
            "outputs": [
                {
                    "internalType": "bool",
                    "name": "",
                    "type": "bool"
                }
            ],
            "stateMutability": "nonpayable",
            "type": "function"
        },
        {
            "inputs": [
                {
                    "internalType": "address",
                    "name": "newOwner",
                    "type": "address"
                }
            ],
            "name": "transferOwnership",
            "outputs": [],
            "stateMutability": "nonpayable",
            "type": "function"
        },
        {
            "inputs": [],
            "name": "unpause",
            "outputs": [],
            "stateMutability": "nonpayable",
            "type": "function"
        }
    ],
    "bytecode": "60806040523480156200001157600080fd5b5060405162002e6a38038062002e6a833981016040819052620000349162000479565b6040518060400160405280600e81526020016d2a37b7b6313637bc102a37b5b2b760911b815250604051806040016040528060038152602001620a892b60eb1b815250818181600590816200008a919062000537565b50600662000099828262000537565b50506007805460ff1916905550620000b360003362000186565b620000df7f9f2df0fed2c77648de5860a4cc508cd0818c85b8b8a1ab4ceeef8d981c8956a63362000186565b6200010b7f65d7a28e3265b37a6474929f336521b332c1681b933f6cb9f3376673440d862a3362000186565b506200011990503362000196565b33620001467fb44d7426a530550cf2ab54a0d6ac03f6a065bc4ad313020a85ff3b1d5aa4404e8262000186565b620001727fb774acb85c844ceba5af7a7d2c1ae87bec3d9ae928aa7bb14ad9ece203e2880e8262000186565b6200017e8183620001f0565b505062000625565b620001928282620002c7565b5050565b600780546001600160a01b03838116610100818102610100600160a81b031985161790945560405193909204169182907f8be0079c531659141344cd1fd0a4f28419497f9722a3daafe3b4186f6b6457e090600090a35050565b6001600160a01b0382166200024c5760405162461bcd60e51b815260206004820152601f60248201527f45524332303a206d696e7420746f20746865207a65726f20616464726573730060448201526064015b60405180910390fd5b6200025a60008383620002f2565b80600460008282546200026e919062000603565b90915550506001600160a01b0382166000818152600260209081526040808320805486019055518481527fddf252ad1be2c89b69c2b068fc378daa952ba7f163c4a11628f55a4df523b3ef910160405180910390a35050565b620002d38282620002ff565b6000828152600160205260409020620002ed90826200039f565b505050565b620002ed838383620003bf565b6000828152602081815260408083206001600160a01b038516845290915290205460ff1662000192576000828152602081815260408083206001600160a01b03851684529091529020805460ff191660011790556200035b3390565b6001600160a01b0316816001600160a01b0316837f2f8788117e7eff1d82e926ec794901d17c78024a50270940304540a733656f0d60405160405180910390a45050565b6000620003b6836001600160a01b03841662000427565b90505b92915050565b60075460ff1615620002ed5760405162461bcd60e51b815260206004820152602a60248201527f45524332305061757361626c653a20746f6b656e207472616e736665722077686044820152691a5b19481c185d5cd95960b21b606482015260840162000243565b60008181526001830160205260408120546200047057508154600181810184556000848152602080822090930184905584548482528286019093526040902091909155620003b9565b506000620003b9565b6000602082840312156200048c57600080fd5b5051919050565b634e487b7160e01b600052604160045260246000fd5b600181811c90821680620004be57607f821691505b602082108103620004df57634e487b7160e01b600052602260045260246000fd5b50919050565b601f821115620002ed57600081815260208120601f850160051c810160208610156200050e5750805b601f850160051c820191505b818110156200052f578281556001016200051a565b505050505050565b81516001600160401b0381111562000553576200055362000493565b6200056b81620005648454620004a9565b84620004e5565b602080601f831160018114620005a357600084156200058a5750858301515b600019600386901b1c1916600185901b1785556200052f565b600085815260208120601f198616915b82811015620005d457888601518255948401946001909101908401620005b3565b5085821015620005f35787850151600019600388901b60f8161c191681555b5050505050600190811b01905550565b80820180821115620003b957634e487b7160e01b600052601160045260246000fd5b61283580620006356000396000f3fe608060405234801561001057600080fd5b50600436106102535760003560e01c806379cc679011610146578063a457c2d7116100c3578063d539139311610087578063d53913931461052a578063d547741f14610551578063da47d85614610564578063dd62ed3e1461058d578063e63ab1e9146105a0578063f2fde38b146105c757600080fd5b8063a457c2d7146104cb578063a9059cbb146104de578063c292dbe7146104f1578063c320c72714610504578063ca15c8731461051757600080fd5b80639010d07c1161010a5780639010d07c1461046e57806391d148541461048157806395d89b411461049457806396f50b2d1461049c578063a217fddf146104c357600080fd5b806379cc67901461040d5780637cd49fde146104205780638456cb59146104295780638da5cb5b146104315780638fbf45d31461045b57600080fd5b806336568abe116101d45780635183d6ee116101985780635183d6ee146103975780635316a58d146103aa5780635c975abb146103d157806370a08231146103dc578063715018a61461040557600080fd5b806336568abe1461034357806339509351146103565780633f4ba83a1461036957806340c10f191461037157806342966c681461038457600080fd5b8063187f79351161021b578063187f7935146102c757806323b872dd146102e9578063248a9ca3146102fc5780632f2ff15d1461031f578063313ce5671461033457600080fd5b806301ffc9a71461025857806306fdde0314610280578063095ea7b31461029557806313a978d9146102a857806318160ddd146102bf575b600080fd5b61026b610266366004612146565b6105da565b60405190151581526020015b60405180910390f35b610288610605565b60405161027791906121c0565b61026b6102a33660046121ef565b610697565b6102b160095481565b604051908152602001610277565b6004546102b1565b6102da6102d5366004612219565b6106af565b60405161027793929190612232565b61026b6102f7366004612267565b610767565b6102b161030a366004612219565b60009081526020819052604090206001015490565b61033261032d3660046122a3565b61078b565b005b60405160128152602001610277565b6103326103513660046122a3565b6107b5565b61026b6103643660046121ef565b610838565b61033261085a565b61033261037f3660046121ef565b610900565b610332610392366004612219565b61099f565b6103326103a536600461231b565b6109ac565b6102b17fb44d7426a530550cf2ab54a0d6ac03f6a065bc4ad313020a85ff3b1d5aa4404e81565b60075460ff1661026b565b6102b16103ea366004612387565b6001600160a01b031660009081526002602052604090205490565b610332610b6a565b61033261041b3660046121ef565b610b7c565b6102b1600a5481565b610332610b91565b60075461010090046001600160a01b03165b6040516001600160a01b039091168152602001610277565b61026b61046936600461231b565b610c35565b61044361047c3660046123a2565b610cd9565b61026b61048f3660046122a3565b610cf8565b610288610d21565b6102b17fb774acb85c844ceba5af7a7d2c1ae87bec3d9ae928aa7bb14ad9ece203e2880e81565b6102b1600081565b61026b6104d93660046121ef565b610d30565b61026b6104ec3660046121ef565b610dab565b6104436104ff366004612406565b610db9565b610332610512366004612219565b61123a565b6102b1610525366004612219565b6112ce565b6102b17f9f2df0fed2c77648de5860a4cc508cd0818c85b8b8a1ab4ceeef8d981c8956a681565b61033261055f3660046122a3565b6112e5565b610443610572366004612219565b6000908152600860205260409020546001600160a01b031690565b6102b161059b3660046124a0565b61130a565b6102b17f65d7a28e3265b37a6474929f336521b332c1681b933f6cb9f3376673440d862a81565b6103326105d5366004612387565b611335565b60006001600160e01b03198216635a05180f60e01b14806105ff57506105ff826113ab565b92915050565b606060058054610614906124ca565b80601f0160208091040260200160405190810160405280929190818152602001828054610640906124ca565b801561068d5780601f106106625761010080835404028352916020019161068d565b820191906000526020600020905b81548152906001019060200180831161067057829003601f168201915b5050505050905090565b6000336106a58185856113e0565b5060019392505050565b6008602052600090815260409020805460018201546002830180546001600160a01b039384169492909316926106e4906124ca565b80601f0160208091040260200160405190810160405280929190818152602001828054610710906124ca565b801561075d5780601f106107325761010080835404028352916020019161075d565b820191906000526020600020905b81548152906001019060200180831161074057829003601f168201915b5050505050905083565b600033610775858285611504565b61078085858561157e565b506001949350505050565b6000828152602081905260409020600101546107a681611734565b6107b0838361173e565b505050565b6001600160a01b038116331461082a5760405162461bcd60e51b815260206004820152602f60248201527f416363657373436f6e74726f6c3a2063616e206f6e6c792072656e6f756e636560448201526e103937b632b9903337b91039b2b63360891b60648201526084015b60405180910390fd5b6108348282611760565b5050565b6000336106a581858561084b838361130a565b610855919061251a565b6113e0565b6108847f65d7a28e3265b37a6474929f336521b332c1681b933f6cb9f3376673440d862a33610cf8565b6108f65760405162461bcd60e51b815260206004820152603960248201527f45524332305072657365744d696e7465725061757365723a206d75737420686160448201527f76652070617573657220726f6c6520746f20756e7061757365000000000000006064820152608401610821565b6108fe611782565b565b61092a7f9f2df0fed2c77648de5860a4cc508cd0818c85b8b8a1ab4ceeef8d981c8956a633610cf8565b6109955760405162461bcd60e51b815260206004820152603660248201527f45524332305072657365744d696e7465725061757365723a206d7573742068616044820152751d99481b5a5b9d195c881c9bdb19481d1bc81b5a5b9d60521b6064820152608401610821565b61083482826117d4565b6109a933826118a1565b50565b6109d67fb44d7426a530550cf2ab54a0d6ac03f6a065bc4ad313020a85ff3b1d5aa4404e33610cf8565b610a485760405162461bcd60e51b815260206004820152603c60248201527f546978546f6b656e3a206d7573742068617665207365727669636520776f726b60448201527f657220726f6c6520746f207265676973746572207365727669636573000000006064820152608401610821565b828114610a975760405162461bcd60e51b815260206004820152601860248201527f496e707574206c656e67746873206d757374206d6174636800000000000000006044820152606401610821565b60005b83811015610b63576000858583818110610ab657610ab661252d565b90506020020135905036848484818110610ad257610ad261252d565b9050602002810190610ae49190612543565b9050610b4e82610af76020840184612387565b610b046040850185612563565b8080601f016020809104026020016040519081016040528093929190818152602001838380828437600092019190915250610b49925050506040860160208701612387565b6119e1565b50508080610b5b906125aa565b915050610a9a565b5050505050565b610b72611a9a565b6108fe6000611afa565b610b87823383611504565b61083482826118a1565b610bbb7f65d7a28e3265b37a6474929f336521b332c1681b933f6cb9f3376673440d862a33610cf8565b610c2d5760405162461bcd60e51b815260206004820152603760248201527f45524332305072657365744d696e7465725061757365723a206d75737420686160448201527f76652070617573657220726f6c6520746f2070617573650000000000000000006064820152608401610821565b6108fe611b54565b6000805b84811015610ccb57838382818110610c5357610c5361252d565b9050602002016020810190610c689190612387565b6001600160a01b031660086000888885818110610c8757610c8761252d565b60209081029290920135835250810191909152604001600020546001600160a01b031614610cb9576000915050610cd1565b80610cc3816125aa565b915050610c39565b50600190505b949350505050565b6000828152600160205260408120610cf19083611b91565b9392505050565b6000918252602082815260408084206001600160a01b0393909316845291905290205460ff1690565b606060068054610614906124ca565b60003381610d3e828661130a565b905083811015610d9e5760405162461bcd60e51b815260206004820152602560248201527f45524332303a2064656372656173656420616c6c6f77616e63652062656c6f77604482015264207a65726f60d81b6064820152608401610821565b61078082868684036113e0565b6000336106a581858561157e565b600954600090339015610e6b576009546001600160a01b0382166000908152600260205260409020541015610e475760405162461bcd60e51b815260206004820152602e60248201527f546978546f6b656e3a204e6f7420656e6f7567682054495820746f207265676960448201526d737465722061207365727669636560901b6064820152608401610821565b610e6b81610e636007546001600160a01b036101009091041690565b60095461157e565b60008888604051602001610e809291906125c3565b60408051601f198184030181529181528151602092830120600081815260089093529120600101549091506001600160a01b0316801580610ed25750826001600160a01b0316816001600160a01b0316145b610f3d5760405162461bcd60e51b815260206004820152603660248201527f546978546f6b656e3a204f6e6c79206f776e65722063616e2075706461746520604482015275309039b2b93b34b1b2903932b3b4b9ba3930ba34b7b760511b6064820152608401610821565b600a54610f4b90600161251a565b600a81905550600061102587878080601f01602080910402602001604051908101604052809392919081815260200183838082843760009201919091525050600a54604051610fb89350909150889060200191825260601b6001600160601b031916602082015260340190565b604051602081830303815290604052805190602001208151602092830120604080516001600160f81b0319818601523060601b6001600160601b03191660218201526035810193909352605580840192909252805180840390920182526075909201909152805191012090565b905061106a83828b8b8080601f0160208091040260200160405190810160405280939291908181526020018383808284376000920191909152508a92506119e1915050565b60006110ec88888080601f01602080910402602001604051908101604052809392919081815260200183838082843760009201919091525050600a546040516110d19350909150899060200191825260601b6001600160601b031916602082015260340190565b60405160208183030381529060405280519060200120611b9d565b9050806001600160a01b0316826001600160a01b03161461114f5760405162461bcd60e51b815260206004820152601960248201527f4465706c6f7965642061646472657373206d69736d61746368000000000000006044820152606401610821565b6040516001600160a01b0386811660248301526000919083169060440160408051601f198184030181529181526020820180516001600160e01b03166313af403560e01b179052516111a191906125d3565b6000604051808303816000865af19150503d80600081146111de576040519150601f19603f3d011682016040523d82523d6000602084013e6111e3565b606091505b505090508061122a5760405162461bcd60e51b815260206004820152601360248201527213dddb995c8818d85b9b9bdd081899481cd95d606a1b6044820152606401610821565b509b9a5050505050505050505050565b6112647fb774acb85c844ceba5af7a7d2c1ae87bec3d9ae928aa7bb14ad9ece203e2880e33610cf8565b6112c95760405162461bcd60e51b815260206004820152603060248201527f546978546f6b656e3a206d75737420686176652062616c616e63657220726f6c60448201526f6520746f20757064617465206665657360801b6064820152608401610821565b600955565b60008181526001602052604081206105ff90611bb6565b60008281526020819052604090206001015461130081611734565b6107b08383611760565b6001600160a01b03918216600090815260036020908152604080832093909416825291909152205490565b61133d611a9a565b6001600160a01b0381166113a25760405162461bcd60e51b815260206004820152602660248201527f4f776e61626c653a206e6577206f776e657220697320746865207a65726f206160448201526564647265737360d01b6064820152608401610821565b6109a981611afa565b60006001600160e01b03198216637965db0b60e01b14806105ff57506301ffc9a760e01b6001600160e01b03198316146105ff565b6001600160a01b0383166114425760405162461bcd60e51b8152602060048201526024808201527f45524332303a20617070726f76652066726f6d20746865207a65726f206164646044820152637265737360e01b6064820152608401610821565b6001600160a01b0382166114a35760405162461bcd60e51b815260206004820152602260248201527f45524332303a20617070726f766520746f20746865207a65726f206164647265604482015261737360f01b6064820152608401610821565b6001600160a01b0383811660008181526003602090815260408083209487168084529482529182902085905590518481527f8c5be1e5ebec7d5bd14f71427d1e84f3dd0314c0f7b2291e5b200ac8c7c3b925910160405180910390a3505050565b6000611510848461130a565b90506000198114611578578181101561156b5760405162461bcd60e51b815260206004820152601d60248201527f45524332303a20696e73756666696369656e7420616c6c6f77616e63650000006044820152606401610821565b61157884848484036113e0565b50505050565b6001600160a01b0383166115e25760405162461bcd60e51b815260206004820152602560248201527f45524332303a207472616e736665722066726f6d20746865207a65726f206164604482015264647265737360d81b6064820152608401610821565b6001600160a01b0382166116445760405162461bcd60e51b815260206004820152602360248201527f45524332303a207472616e7366657220746f20746865207a65726f206164647260448201526265737360e81b6064820152608401610821565b61164f838383611bc0565b6001600160a01b038316600090815260026020526040902054818110156116c75760405162461bcd60e51b815260206004820152602660248201527f45524332303a207472616e7366657220616d6f756e7420657863656564732062604482015265616c616e636560d01b6064820152608401610821565b6001600160a01b0380851660008181526002602052604080822086860390559286168082529083902080548601905591517fddf252ad1be2c89b69c2b068fc378daa952ba7f163c4a11628f55a4df523b3ef906117279086815260200190565b60405180910390a3611578565b6109a98133611bcb565b6117488282611c24565b60008281526001602052604090206107b09082611ca8565b61176a8282611cbd565b60008281526001602052604090206107b09082611d22565b61178a611d37565b6007805460ff191690557f5db9ee0a495bf2e6ff9c91a7834c1ba4fdd244a5e8aa4e537bd38aeae4b073aa335b6040516001600160a01b03909116815260200160405180910390a1565b6001600160a01b03821661182a5760405162461bcd60e51b815260206004820152601f60248201527f45524332303a206d696e7420746f20746865207a65726f2061646472657373006044820152606401610821565b61183660008383611bc0565b8060046000828254611848919061251a565b90915550506001600160a01b0382166000818152600260209081526040808320805486019055518481527fddf252ad1be2c89b69c2b068fc378daa952ba7f163c4a11628f55a4df523b3ef910160405180910390a35050565b6001600160a01b0382166119015760405162461bcd60e51b815260206004820152602160248201527f45524332303a206275726e2066726f6d20746865207a65726f206164647265736044820152607360f81b6064820152608401610821565b61190d82600083611bc0565b6001600160a01b038216600090815260026020526040902054818110156119815760405162461bcd60e51b815260206004820152602260248201527f45524332303a206275726e20616d6f756e7420657863656564732062616c616e604482015261636560f01b6064820152608401610821565b6001600160a01b03831660008181526002602090815260408083208686039055600480548790039055518581529192917fddf252ad1be2c89b69c2b068fc378daa952ba7f163c4a11628f55a4df523b3ef910160405180910390a3505050565b604080516060810182526001600160a01b038086168252838116602080840191825283850187815260008a81526008909252949020835181549084166001600160a01b031991821617825591516001820180549190941692169190911790915591519091906002820190611a559082612649565b509050507fbfe7d95aebe55e97e4d272d0e9b897df6b127618d4b02ae53b3393de5f52c873848484604051611a8c93929190612709565b60405180910390a150505050565b6007546001600160a01b036101009091041633146108fe5760405162461bcd60e51b815260206004820181905260248201527f4f776e61626c653a2063616c6c6572206973206e6f7420746865206f776e65726044820152606401610821565b600780546001600160a01b03838116610100818102610100600160a81b031985161790945560405193909204169182907f8be0079c531659141344cd1fd0a4f28419497f9722a3daafe3b4186f6b6457e090600090a35050565b611b5c611d80565b6007805460ff191660011790557f62e78cea01bee320cd4e420270b5ea74000d11b0c9f74754ebdbfc544b05a2586117b73390565b6000610cf18383611dc6565b6000818351602085016000f59050803b6105ff57600080fd5b60006105ff825490565b6107b0838383611df0565b611bd58282610cf8565b61083457611be281611e56565b611bed836020611e68565b604051602001611bfe929190612733565b60408051601f198184030181529082905262461bcd60e51b8252610821916004016121c0565b611c2e8282610cf8565b610834576000828152602081815260408083206001600160a01b03851684529091529020805460ff19166001179055611c643390565b6001600160a01b0316816001600160a01b0316837f2f8788117e7eff1d82e926ec794901d17c78024a50270940304540a733656f0d60405160405180910390a45050565b6000610cf1836001600160a01b038416612004565b611cc78282610cf8565b15610834576000828152602081815260408083206001600160a01b0385168085529252808320805460ff1916905551339285917ff6391f5c32d9c69d2a47ea670b442974b53935d1edc7fd64eb21e047a839171b9190a45050565b6000610cf1836001600160a01b038416612053565b60075460ff166108fe5760405162461bcd60e51b815260206004820152601460248201527314185d5cd8589b194e881b9bdd081c185d5cd95960621b6044820152606401610821565b60075460ff16156108fe5760405162461bcd60e51b815260206004820152601060248201526f14185d5cd8589b194e881c185d5cd95960821b6044820152606401610821565b6000826000018281548110611ddd57611ddd61252d565b9060005260206000200154905092915050565b60075460ff16156107b05760405162461bcd60e51b815260206004820152602a60248201527f45524332305061757361626c653a20746f6b656e207472616e736665722077686044820152691a5b19481c185d5cd95960b21b6064820152608401610821565b60606105ff6001600160a01b03831660145b60606000611e778360026127a8565b611e8290600261251a565b67ffffffffffffffff811115611e9a57611e9a6125e5565b6040519080825280601f01601f191660200182016040528015611ec4576020820181803683370190505b509050600360fc1b81600081518110611edf57611edf61252d565b60200101906001600160f81b031916908160001a905350600f60fb1b81600181518110611f0e57611f0e61252d565b60200101906001600160f81b031916908160001a9053506000611f328460026127a8565b611f3d90600161251a565b90505b6001811115611fb5576f181899199a1a9b1b9c1cb0b131b232b360811b85600f1660108110611f7157611f7161252d565b1a60f81b828281518110611f8757611f8761252d565b60200101906001600160f81b031916908160001a90535060049490941c93611fae816127bf565b9050611f40565b508315610cf15760405162461bcd60e51b815260206004820181905260248201527f537472696e67733a20686578206c656e67746820696e73756666696369656e746044820152606401610821565b600081815260018301602052604081205461204b575081546001818101845560008481526020808220909301849055845484825282860190935260409020919091556105ff565b5060006105ff565b6000818152600183016020526040812054801561213c5760006120776001836127d6565b855490915060009061208b906001906127d6565b90508181146120f05760008660000182815481106120ab576120ab61252d565b90600052602060002001549050808760000184815481106120ce576120ce61252d565b6000918252602080832090910192909255918252600188019052604090208390555b8554869080612101576121016127e9565b6001900381819060005260206000200160009055905585600101600086815260200190815260200160002060009055600193505050506105ff565b60009150506105ff565b60006020828403121561215857600080fd5b81356001600160e01b031981168114610cf157600080fd5b60005b8381101561218b578181015183820152602001612173565b50506000910152565b600081518084526121ac816020860160208601612170565b601f01601f19169290920160200192915050565b602081526000610cf16020830184612194565b80356001600160a01b03811681146121ea57600080fd5b919050565b6000806040838503121561220257600080fd5b61220b836121d3565b946020939093013593505050565b60006020828403121561222b57600080fd5b5035919050565b6001600160a01b0384811682528316602082015260606040820181905260009061225e90830184612194565b95945050505050565b60008060006060848603121561227c57600080fd5b612285846121d3565b9250612293602085016121d3565b9150604084013590509250925092565b600080604083850312156122b657600080fd5b823591506122c6602084016121d3565b90509250929050565b60008083601f8401126122e157600080fd5b50813567ffffffffffffffff8111156122f957600080fd5b6020830191508360208260051b850101111561231457600080fd5b9250929050565b6000806000806040858703121561233157600080fd5b843567ffffffffffffffff8082111561234957600080fd5b612355888389016122cf565b9096509450602087013591508082111561236e57600080fd5b5061237b878288016122cf565b95989497509550505050565b60006020828403121561239957600080fd5b610cf1826121d3565b600080604083850312156123b557600080fd5b50508035926020909101359150565b60008083601f8401126123d657600080fd5b50813567ffffffffffffffff8111156123ee57600080fd5b60208301915083602082850101111561231457600080fd5b6000806000806000806060878903121561241f57600080fd5b863567ffffffffffffffff8082111561243757600080fd5b6124438a838b016123c4565b9098509650602089013591508082111561245c57600080fd5b6124688a838b016123c4565b9096509450604089013591508082111561248157600080fd5b5061248e89828a016123c4565b979a9699509497509295939492505050565b600080604083850312156124b357600080fd5b6124bc836121d3565b91506122c6602084016121d3565b600181811c908216806124de57607f821691505b6020821081036124fe57634e487b7160e01b600052602260045260246000fd5b50919050565b634e487b7160e01b600052601160045260246000fd5b808201808211156105ff576105ff612504565b634e487b7160e01b600052603260045260246000fd5b60008235605e1983360301811261255957600080fd5b9190910192915050565b6000808335601e1984360301811261257a57600080fd5b83018035915067ffffffffffffffff82111561259557600080fd5b60200191503681900382131561231457600080fd5b6000600182016125bc576125bc612504565b5060010190565b8183823760009101908152919050565b60008251612559818460208701612170565b634e487b7160e01b600052604160045260246000fd5b601f8211156107b057600081815260208120601f850160051c810160208610156126225750805b601f850160051c820191505b818110156126415782815560010161262e565b505050505050565b815167ffffffffffffffff811115612663576126636125e5565b6126778161267184546124ca565b846125fb565b602080601f8311600181146126ac57600084156126945750858301515b600019600386901b1c1916600185901b178555612641565b600085815260208120601f198616915b828110156126db578886015182559484019460019091019084016126bc565b50858210156126f95787850151600019600388901b60f8161c191681555b5050505050600190811b01905550565b8381526001600160a01b038316602082015260606040820181905260009061225e90830184612194565b7f416363657373436f6e74726f6c3a206163636f756e742000000000000000000081526000835161276b816017850160208801612170565b7001034b99036b4b9b9b4b733903937b6329607d1b601791840191820152835161279c816028840160208801612170565b01602801949350505050565b80820281158282048414176105ff576105ff612504565b6000816127ce576127ce612504565b506000190190565b818103818111156105ff576105ff612504565b634e487b7160e01b600052603160045260246000fdfea2646970667358221220f35f7160587203df4aab3fb30d3bf77002e98aa5d88643c12ba00601fd5b52de64736f6c63430008130033",
    "sourcePath": "c:/Projects/Toolblox.Audit/Toolblox.Token/Contracts/TixToken.sol",
    "compiler": {
        "name": "solc",
        "version": "0.8.19+commit.7dd6d404"
    },
    "functionHashes": {
        "BALANCER()": "96f50b2d",
        "DEFAULT_ADMIN_ROLE()": "a217fddf",
        "MINTER_ROLE()": "d5391393",
        "PAUSER_ROLE()": "e63ab1e9",
        "SERVICE_WORKER()": "5316a58d",
        "_counter()": "7cd49fde",
        "_registrationFee()": "13a978d9",
        "allowance(address,address)": "dd62ed3e",
        "approve(address,uint256)": "095ea7b3",
        "areServicesRegistered(bytes32[],address[])": "8fbf45d3",
        "balanceOf(address)": "70a08231",
        "burn(uint256)": "42966c68",
        "burnFrom(address,uint256)": "79cc6790",
        "decimals()": "313ce567",
        "decreaseAllowance(address,uint256)": "a457c2d7",
        "getRoleAdmin(bytes32)": "248a9ca3",
        "getRoleMember(bytes32,uint256)": "9010d07c",
        "getRoleMemberCount(bytes32)": "ca15c873",
        "getService(bytes32)": "da47d856",
        "grantRole(bytes32,address)": "2f2ff15d",
        "hasRole(bytes32,address)": "91d14854",
        "increaseAllowance(address,uint256)": "39509351",
        "mint(address,uint256)": "40c10f19",
        "name()": "06fdde03",
        "owner()": "8da5cb5b",
        "pause()": "8456cb59",
        "paused()": "5c975abb",
        "registerService(string,string,bytes)": "c292dbe7",
        "registerServices(bytes32[],(address,address,string)[])": "5183d6ee",
        "renounceOwnership()": "715018a6",
        "renounceRole(bytes32,address)": "36568abe",
        "repository(bytes32)": "187f7935",
        "revokeRole(bytes32,address)": "d547741f",
        "setRegistrationFee(uint256)": "c320c727",
        "supportsInterface(bytes4)": "01ffc9a7",
        "symbol()": "95d89b41",
        "totalSupply()": "18160ddd",
        "transfer(address,uint256)": "a9059cbb",
        "transferFrom(address,address,uint256)": "23b872dd",
        "transferOwnership(address)": "f2fde38b",
        "unpause()": "3f4ba83a"
    },
    "gasEstimates": {
        "creation": {
            "codeDepositCost": "2058600",
            "executionCost": "infinite",
            "totalCost": "infinite"
        },
        "external": {
            "BALANCER()": "306",
            "DEFAULT_ADMIN_ROLE()": "328",
            "MINTER_ROLE()": "239",
            "PAUSER_ROLE()": "327",
            "SERVICE_WORKER()": "262",
            "_counter()": "2363",
            "_registrationFee()": "2408",
            "allowance(address,address)": "infinite",
            "approve(address,uint256)": "24681",
            "areServicesRegistered(bytes32[],address[])": "infinite",
            "balanceOf(address)": "2648",
            "burn(uint256)": "infinite",
            "burnFrom(address,uint256)": "infinite",
            "decimals()": "311",
            "decreaseAllowance(address,uint256)": "26984",
            "getRoleAdmin(bytes32)": "2537",
            "getRoleMember(bytes32,uint256)": "infinite",
            "getRoleMemberCount(bytes32)": "infinite",
            "getService(bytes32)": "2565",
            "grantRole(bytes32,address)": "infinite",
            "hasRole(bytes32,address)": "2718",
            "increaseAllowance(address,uint256)": "27040",
            "mint(address,uint256)": "infinite",
            "name()": "infinite",
            "owner()": "2443",
            "pause()": "infinite",
            "paused()": "2382",
            "registerService(string,string,bytes)": "infinite",
            "registerServices(bytes32[],(address,address,string)[])": "infinite",
            "renounceOwnership()": "infinite",
            "renounceRole(bytes32,address)": "infinite",
            "repository(bytes32)": "infinite",
            "revokeRole(bytes32,address)": "infinite",
            "setRegistrationFee(uint256)": "24749",
            "supportsInterface(bytes4)": "infinite",
            "symbol()": "infinite",
            "totalSupply()": "2427",
            "transfer(address,uint256)": "infinite",
            "transferFrom(address,address,uint256)": "infinite",
            "transferOwnership(address)": "28523",
            "unpause()": "infinite"
        },
        "internal": {
            "_registerService(bytes32,address,string memory,address)": "infinite",
            "computeAddress(bytes memory,bytes32)": "infinite",
            "deploy(bytes memory,bytes32)": "infinite"
        }
    }
}