{
    "contractName": "TixToken",
    "abi": [
        {
            "inputs": [
                {
                    "internalType": "uint256",
                    "name": "initialSupply",
                    "type": "uint256"
                }
            ],
            "stateMutability": "nonpayable",
            "type": "constructor"
        },
        {
            "anonymous": false,
            "inputs": [
                {
                    "indexed": true,
                    "internalType": "address",
                    "name": "owner",
                    "type": "address"
                },
                {
                    "indexed": true,
                    "internalType": "address",
                    "name": "spender",
                    "type": "address"
                },
                {
                    "indexed": false,
                    "internalType": "uint256",
                    "name": "value",
                    "type": "uint256"
                }
            ],
            "name": "Approval",
            "type": "event"
        },
        {
            "anonymous": false,
            "inputs": [
                {
                    "indexed": true,
                    "internalType": "address",
                    "name": "previousOwner",
                    "type": "address"
                },
                {
                    "indexed": true,
                    "internalType": "address",
                    "name": "newOwner",
                    "type": "address"
                }
            ],
            "name": "OwnershipTransferred",
            "type": "event"
        },
        {
            "anonymous": false,
            "inputs": [
                {
                    "indexed": false,
                    "internalType": "address",
                    "name": "account",
                    "type": "address"
                }
            ],
            "name": "Paused",
            "type": "event"
        },
        {
            "anonymous": false,
            "inputs": [
                {
                    "indexed": true,
                    "internalType": "bytes32",
                    "name": "role",
                    "type": "bytes32"
                },
                {
                    "indexed": true,
                    "internalType": "bytes32",
                    "name": "previousAdminRole",
                    "type": "bytes32"
                },
                {
                    "indexed": true,
                    "internalType": "bytes32",
                    "name": "newAdminRole",
                    "type": "bytes32"
                }
            ],
            "name": "RoleAdminChanged",
            "type": "event"
        },
        {
            "anonymous": false,
            "inputs": [
                {
                    "indexed": true,
                    "internalType": "bytes32",
                    "name": "role",
                    "type": "bytes32"
                },
                {
                    "indexed": true,
                    "internalType": "address",
                    "name": "account",
                    "type": "address"
                },
                {
                    "indexed": true,
                    "internalType": "address",
                    "name": "sender",
                    "type": "address"
                }
            ],
            "name": "RoleGranted",
            "type": "event"
        },
        {
            "anonymous": false,
            "inputs": [
                {
                    "indexed": true,
                    "internalType": "bytes32",
                    "name": "role",
                    "type": "bytes32"
                },
                {
                    "indexed": true,
                    "internalType": "address",
                    "name": "account",
                    "type": "address"
                },
                {
                    "indexed": true,
                    "internalType": "address",
                    "name": "sender",
                    "type": "address"
                }
            ],
            "name": "RoleRevoked",
            "type": "event"
        },
        {
            "anonymous": false,
            "inputs": [
                {
                    "indexed": false,
                    "internalType": "bytes32",
                    "name": "_name",
                    "type": "bytes32"
                },
                {
                    "indexed": false,
                    "internalType": "address",
                    "name": "_destination",
                    "type": "address"
                },
                {
                    "indexed": false,
                    "internalType": "string",
                    "name": "_spec",
                    "type": "string"
                }
            ],
            "name": "ServiceRegistered",
            "type": "event"
        },
        {
            "anonymous": false,
            "inputs": [
                {
                    "indexed": true,
                    "internalType": "address",
                    "name": "from",
                    "type": "address"
                },
                {
                    "indexed": true,
                    "internalType": "address",
                    "name": "to",
                    "type": "address"
                },
                {
                    "indexed": false,
                    "internalType": "uint256",
                    "name": "value",
                    "type": "uint256"
                }
            ],
            "name": "Transfer",
            "type": "event"
        },
        {
            "anonymous": false,
            "inputs": [
                {
                    "indexed": false,
                    "internalType": "address",
                    "name": "account",
                    "type": "address"
                }
            ],
            "name": "Unpaused",
            "type": "event"
        },
        {
            "inputs": [],
            "name": "BALANCER",
            "outputs": [
                {
                    "internalType": "bytes32",
                    "name": "",
                    "type": "bytes32"
                }
            ],
            "stateMutability": "view",
            "type": "function"
        },
        {
            "inputs": [],
            "name": "DEFAULT_ADMIN_ROLE",
            "outputs": [
                {
                    "internalType": "bytes32",
                    "name": "",
                    "type": "bytes32"
                }
            ],
            "stateMutability": "view",
            "type": "function"
        },
        {
            "inputs": [],
            "name": "MINTER_ROLE",
            "outputs": [
                {
                    "internalType": "bytes32",
                    "name": "",
                    "type": "bytes32"
                }
            ],
            "stateMutability": "view",
            "type": "function"
        },
        {
            "inputs": [],
            "name": "PAUSER_ROLE",
            "outputs": [
                {
                    "internalType": "bytes32",
                    "name": "",
                    "type": "bytes32"
                }
            ],
            "stateMutability": "view",
            "type": "function"
        },
        {
            "inputs": [],
            "name": "SERVICE_WORKER",
            "outputs": [
                {
                    "internalType": "bytes32",
                    "name": "",
                    "type": "bytes32"
                }
            ],
            "stateMutability": "view",
            "type": "function"
        },
        {
            "inputs": [],
            "name": "_counter",
            "outputs": [
                {
                    "internalType": "uint256",
                    "name": "",
                    "type": "uint256"
                }
            ],
            "stateMutability": "view",
            "type": "function"
        },
        {
            "inputs": [],
            "name": "_registrationFee",
            "outputs": [
                {
                    "internalType": "uint256",
                    "name": "",
                    "type": "uint256"
                }
            ],
            "stateMutability": "view",
            "type": "function"
        },
        {
            "inputs": [
                {
                    "internalType": "address",
                    "name": "owner",
                    "type": "address"
                },
                {
                    "internalType": "address",
                    "name": "spender",
                    "type": "address"
                }
            ],
            "name": "allowance",
            "outputs": [
                {
                    "internalType": "uint256",
                    "name": "",
                    "type": "uint256"
                }
            ],
            "stateMutability": "view",
            "type": "function"
        },
        {
            "inputs": [
                {
                    "internalType": "address",
                    "name": "spender",
                    "type": "address"
                },
                {
                    "internalType": "uint256",
                    "name": "amount",
                    "type": "uint256"
                }
            ],
            "name": "approve",
            "outputs": [
                {
                    "internalType": "bool",
                    "name": "",
                    "type": "bool"
                }
            ],
            "stateMutability": "nonpayable",
            "type": "function"
        },
        {
            "inputs": [
                {
                    "internalType": "bytes32[]",
                    "name": "names",
                    "type": "bytes32[]"
                },
                {
                    "internalType": "address[]",
                    "name": "destinations",
                    "type": "address[]"
                }
            ],
            "name": "areServicesRegistered",
            "outputs": [
                {
                    "internalType": "bool",
                    "name": "",
                    "type": "bool"
                }
            ],
            "stateMutability": "view",
            "type": "function"
        },
        {
            "inputs": [
                {
                    "internalType": "address",
                    "name": "account",
                    "type": "address"
                }
            ],
            "name": "balanceOf",
            "outputs": [
                {
                    "internalType": "uint256",
                    "name": "",
                    "type": "uint256"
                }
            ],
            "stateMutability": "view",
            "type": "function"
        },
        {
            "inputs": [
                {
                    "internalType": "uint256",
                    "name": "amount",
                    "type": "uint256"
                }
            ],
            "name": "burn",
            "outputs": [],
            "stateMutability": "nonpayable",
            "type": "function"
        },
        {
            "inputs": [
                {
                    "internalType": "address",
                    "name": "account",
                    "type": "address"
                },
                {
                    "internalType": "uint256",
                    "name": "amount",
                    "type": "uint256"
                }
            ],
            "name": "burnFrom",
            "outputs": [],
            "stateMutability": "nonpayable",
            "type": "function"
        },
        {
            "inputs": [],
            "name": "decimals",
            "outputs": [
                {
                    "internalType": "uint8",
                    "name": "",
                    "type": "uint8"
                }
            ],
            "stateMutability": "view",
            "type": "function"
        },
        {
            "inputs": [
                {
                    "internalType": "address",
                    "name": "spender",
                    "type": "address"
                },
                {
                    "internalType": "uint256",
                    "name": "subtractedValue",
                    "type": "uint256"
                }
            ],
            "name": "decreaseAllowance",
            "outputs": [
                {
                    "internalType": "bool",
                    "name": "",
                    "type": "bool"
                }
            ],
            "stateMutability": "nonpayable",
            "type": "function"
        },
        {
            "inputs": [
                {
                    "internalType": "bytes32",
                    "name": "role",
                    "type": "bytes32"
                }
            ],
            "name": "getRoleAdmin",
            "outputs": [
                {
                    "internalType": "bytes32",
                    "name": "",
                    "type": "bytes32"
                }
            ],
            "stateMutability": "view",
            "type": "function"
        },
        {
            "inputs": [
                {
                    "internalType": "bytes32",
                    "name": "role",
                    "type": "bytes32"
                },
                {
                    "internalType": "uint256",
                    "name": "index",
                    "type": "uint256"
                }
            ],
            "name": "getRoleMember",
            "outputs": [
                {
                    "internalType": "address",
                    "name": "",
                    "type": "address"
                }
            ],
            "stateMutability": "view",
            "type": "function"
        },
        {
            "inputs": [
                {
                    "internalType": "bytes32",
                    "name": "role",
                    "type": "bytes32"
                }
            ],
            "name": "getRoleMemberCount",
            "outputs": [
                {
                    "internalType": "uint256",
                    "name": "",
                    "type": "uint256"
                }
            ],
            "stateMutability": "view",
            "type": "function"
        },
        {
            "inputs": [
                {
                    "internalType": "bytes32",
                    "name": "name",
                    "type": "bytes32"
                }
            ],
            "name": "getService",
            "outputs": [
                {
                    "internalType": "address",
                    "name": "",
                    "type": "address"
                }
            ],
            "stateMutability": "view",
            "type": "function"
        },
        {
            "inputs": [
                {
                    "internalType": "bytes32",
                    "name": "role",
                    "type": "bytes32"
                },
                {
                    "internalType": "address",
                    "name": "account",
                    "type": "address"
                }
            ],
            "name": "grantRole",
            "outputs": [],
            "stateMutability": "nonpayable",
            "type": "function"
        },
        {
            "inputs": [
                {
                    "internalType": "bytes32",
                    "name": "role",
                    "type": "bytes32"
                },
                {
                    "internalType": "address",
                    "name": "account",
                    "type": "address"
                }
            ],
            "name": "hasRole",
            "outputs": [
                {
                    "internalType": "bool",
                    "name": "",
                    "type": "bool"
                }
            ],
            "stateMutability": "view",
            "type": "function"
        },
        {
            "inputs": [
                {
                    "internalType": "address",
                    "name": "spender",
                    "type": "address"
                },
                {
                    "internalType": "uint256",
                    "name": "addedValue",
                    "type": "uint256"
                }
            ],
            "name": "increaseAllowance",
            "outputs": [
                {
                    "internalType": "bool",
                    "name": "",
                    "type": "bool"
                }
            ],
            "stateMutability": "nonpayable",
            "type": "function"
        },
        {
            "inputs": [
                {
                    "internalType": "address",
                    "name": "to",
                    "type": "address"
                },
                {
                    "internalType": "uint256",
                    "name": "amount",
                    "type": "uint256"
                }
            ],
            "name": "mint",
            "outputs": [],
            "stateMutability": "nonpayable",
            "type": "function"
        },
        {
            "inputs": [],
            "name": "name",
            "outputs": [
                {
                    "internalType": "string",
                    "name": "",
                    "type": "string"
                }
            ],
            "stateMutability": "view",
            "type": "function"
        },
        {
            "inputs": [],
            "name": "owner",
            "outputs": [
                {
                    "internalType": "address",
                    "name": "",
                    "type": "address"
                }
            ],
            "stateMutability": "view",
            "type": "function"
        },
        {
            "inputs": [],
            "name": "pause",
            "outputs": [],
            "stateMutability": "nonpayable",
            "type": "function"
        },
        {
            "inputs": [],
            "name": "paused",
            "outputs": [
                {
                    "internalType": "bool",
                    "name": "",
                    "type": "bool"
                }
            ],
            "stateMutability": "view",
            "type": "function"
        },
        {
            "inputs": [
                {
                    "internalType": "string",
                    "name": "name",
                    "type": "string"
                },
                {
                    "internalType": "string",
                    "name": "spec",
                    "type": "string"
                },
                {
                    "internalType": "bytes",
                    "name": "code",
                    "type": "bytes"
                }
            ],
            "name": "registerService",
            "outputs": [
                {
                    "internalType": "address",
                    "name": "",
                    "type": "address"
                }
            ],
            "stateMutability": "nonpayable",
            "type": "function"
        },
        {
            "inputs": [
                {
                    "internalType": "bytes32[]",
                    "name": "names",
                    "type": "bytes32[]"
                },
                {
                    "components": [
                        {
                            "internalType": "address",
                            "name": "destination",
                            "type": "address"
                        },
                        {
                            "internalType": "address",
                            "name": "owner",
                            "type": "address"
                        },
                        {
                            "internalType": "string",
                            "name": "spec",
                            "type": "string"
                        }
                    ],
                    "internalType": "struct TixToken.ServiceRegistration[]",
                    "name": "destinations",
                    "type": "tuple[]"
                }
            ],
            "name": "registerServices",
            "outputs": [],
            "stateMutability": "nonpayable",
            "type": "function"
        },
        {
            "inputs": [],
            "name": "renounceOwnership",
            "outputs": [],
            "stateMutability": "nonpayable",
            "type": "function"
        },
        {
            "inputs": [
                {
                    "internalType": "bytes32",
                    "name": "role",
                    "type": "bytes32"
                },
                {
                    "internalType": "address",
                    "name": "account",
                    "type": "address"
                }
            ],
            "name": "renounceRole",
            "outputs": [],
            "stateMutability": "nonpayable",
            "type": "function"
        },
        {
            "inputs": [
                {
                    "internalType": "bytes32",
                    "name": "",
                    "type": "bytes32"
                }
            ],
            "name": "repository",
            "outputs": [
                {
                    "internalType": "address",
                    "name": "destination",
                    "type": "address"
                },
                {
                    "internalType": "address",
                    "name": "owner",
                    "type": "address"
                },
                {
                    "internalType": "string",
                    "name": "spec",
                    "type": "string"
                }
            ],
            "stateMutability": "view",
            "type": "function"
        },
        {
            "inputs": [
                {
                    "internalType": "bytes32",
                    "name": "role",
                    "type": "bytes32"
                },
                {
                    "internalType": "address",
                    "name": "account",
                    "type": "address"
                }
            ],
            "name": "revokeRole",
            "outputs": [],
            "stateMutability": "nonpayable",
            "type": "function"
        },
        {
            "inputs": [
                {
                    "internalType": "uint256",
                    "name": "fee",
                    "type": "uint256"
                }
            ],
            "name": "setRegistrationFee",
            "outputs": [],
            "stateMutability": "nonpayable",
            "type": "function"
        },
        {
            "inputs": [
                {
                    "internalType": "bytes4",
                    "name": "interfaceId",
                    "type": "bytes4"
                }
            ],
            "name": "supportsInterface",
            "outputs": [
                {
                    "internalType": "bool",
                    "name": "",
                    "type": "bool"
                }
            ],
            "stateMutability": "view",
            "type": "function"
        },
        {
            "inputs": [],
            "name": "symbol",
            "outputs": [
                {
                    "internalType": "string",
                    "name": "",
                    "type": "string"
                }
            ],
            "stateMutability": "view",
            "type": "function"
        },
        {
            "inputs": [],
            "name": "totalSupply",
            "outputs": [
                {
                    "internalType": "uint256",
                    "name": "",
                    "type": "uint256"
                }
            ],
            "stateMutability": "view",
            "type": "function"
        },
        {
            "inputs": [
                {
                    "internalType": "address",
                    "name": "to",
                    "type": "address"
                },
                {
                    "internalType": "uint256",
                    "name": "amount",
                    "type": "uint256"
                }
            ],
            "name": "transfer",
            "outputs": [
                {
                    "internalType": "bool",
                    "name": "",
                    "type": "bool"
                }
            ],
            "stateMutability": "nonpayable",
            "type": "function"
        },
        {
            "inputs": [
                {
                    "internalType": "address",
                    "name": "from",
                    "type": "address"
                },
                {
                    "internalType": "address",
                    "name": "to",
                    "type": "address"
                },
                {
                    "internalType": "uint256",
                    "name": "amount",
                    "type": "uint256"
                }
            ],
            "name": "transferFrom",
            "outputs": [
                {
                    "internalType": "bool",
                    "name": "",
                    "type": "bool"
                }
            ],
            "stateMutability": "nonpayable",
            "type": "function"
        },
        {
            "inputs": [
                {
                    "internalType": "address",
                    "name": "newOwner",
                    "type": "address"
                }
            ],
            "name": "transferOwnership",
            "outputs": [],
            "stateMutability": "nonpayable",
            "type": "function"
        },
        {
            "inputs": [],
            "name": "unpause",
            "outputs": [],
            "stateMutability": "nonpayable",
            "type": "function"
        }
    ],
    "bytecode": "60806040523480156200001157600080fd5b5060405162002e7138038062002e71833981016040819052620000349162000479565b6040518060400160405280600e81526020016d2a37b7b6313637bc102a37b5b2b760911b815250604051806040016040528060038152602001620a892b60eb1b815250818181600590816200008a919062000537565b50600662000099828262000537565b50506007805460ff1916905550620000b360003362000186565b620000df7f9f2df0fed2c77648de5860a4cc508cd0818c85b8b8a1ab4ceeef8d981c8956a63362000186565b6200010b7f65d7a28e3265b37a6474929f336521b332c1681b933f6cb9f3376673440d862a3362000186565b506200011990503362000196565b33620001467fb44d7426a530550cf2ab54a0d6ac03f6a065bc4ad313020a85ff3b1d5aa4404e8262000186565b620001727fb774acb85c844ceba5af7a7d2c1ae87bec3d9ae928aa7bb14ad9ece203e2880e8262000186565b6200017e8183620001f0565b505062000625565b620001928282620002c7565b5050565b600780546001600160a01b03838116610100818102610100600160a81b031985161790945560405193909204169182907f8be0079c531659141344cd1fd0a4f28419497f9722a3daafe3b4186f6b6457e090600090a35050565b6001600160a01b0382166200024c5760405162461bcd60e51b815260206004820152601f60248201527f45524332303a206d696e7420746f20746865207a65726f20616464726573730060448201526064015b60405180910390fd5b6200025a60008383620002f2565b80600460008282546200026e919062000603565b90915550506001600160a01b0382166000818152600260209081526040808320805486019055518481527fddf252ad1be2c89b69c2b068fc378daa952ba7f163c4a11628f55a4df523b3ef910160405180910390a35050565b620002d38282620002ff565b6000828152600160205260409020620002ed90826200039f565b505050565b620002ed838383620003bf565b6000828152602081815260408083206001600160a01b038516845290915290205460ff1662000192576000828152602081815260408083206001600160a01b03851684529091529020805460ff191660011790556200035b3390565b6001600160a01b0316816001600160a01b0316837f2f8788117e7eff1d82e926ec794901d17c78024a50270940304540a733656f0d60405160405180910390a45050565b6000620003b6836001600160a01b03841662000427565b90505b92915050565b60075460ff1615620002ed5760405162461bcd60e51b815260206004820152602a60248201527f45524332305061757361626c653a20746f6b656e207472616e736665722077686044820152691a5b19481c185d5cd95960b21b606482015260840162000243565b60008181526001830160205260408120546200047057508154600181810184556000848152602080822090930184905584548482528286019093526040902091909155620003b9565b506000620003b9565b6000602082840312156200048c57600080fd5b5051919050565b634e487b7160e01b600052604160045260246000fd5b600181811c90821680620004be57607f821691505b602082108103620004df57634e487b7160e01b600052602260045260246000fd5b50919050565b601f821115620002ed57600081815260208120601f850160051c810160208610156200050e5750805b601f850160051c820191505b818110156200052f578281556001016200051a565b505050505050565b81516001600160401b0381111562000553576200055362000493565b6200056b81620005648454620004a9565b84620004e5565b602080601f831160018114620005a357600084156200058a5750858301515b600019600386901b1c1916600185901b1785556200052f565b600085815260208120601f198616915b82811015620005d457888601518255948401946001909101908401620005b3565b5085821015620005f35787850151600019600388901b60f8161c191681555b5050505050600190811b01905550565b80820180821115620003b957634e487b7160e01b600052601160045260246000fd5b61283c80620006356000396000f3fe608060405234801561001057600080fd5b50600436106102535760003560e01c806379cc679011610146578063a457c2d7116100c3578063d539139311610087578063d53913931461052a578063d547741f14610551578063da47d85614610564578063dd62ed3e1461058d578063e63ab1e9146105a0578063f2fde38b146105c757600080fd5b8063a457c2d7146104cb578063a9059cbb146104de578063c292dbe7146104f1578063c320c72714610504578063ca15c8731461051757600080fd5b80639010d07c1161010a5780639010d07c1461046e57806391d148541461048157806395d89b411461049457806396f50b2d1461049c578063a217fddf146104c357600080fd5b806379cc67901461040d5780637cd49fde146104205780638456cb59146104295780638da5cb5b146104315780638fbf45d31461045b57600080fd5b806336568abe116101d45780635183d6ee116101985780635183d6ee146103975780635316a58d146103aa5780635c975abb146103d157806370a08231146103dc578063715018a61461040557600080fd5b806336568abe1461034357806339509351146103565780633f4ba83a1461036957806340c10f191461037157806342966c681461038457600080fd5b8063187f79351161021b578063187f7935146102c757806323b872dd146102e9578063248a9ca3146102fc5780632f2ff15d1461031f578063313ce5671461033457600080fd5b806301ffc9a71461025857806306fdde0314610280578063095ea7b31461029557806313a978d9146102a857806318160ddd146102bf575b600080fd5b61026b61026636600461214d565b6105da565b60405190151581526020015b60405180910390f35b610288610605565b60405161027791906121c7565b61026b6102a33660046121f6565b610697565b6102b160095481565b604051908152602001610277565b6004546102b1565b6102da6102d5366004612220565b6106af565b60405161027793929190612239565b61026b6102f736600461226e565b610767565b6102b161030a366004612220565b60009081526020819052604090206001015490565b61033261032d3660046122aa565b61078b565b005b60405160128152602001610277565b6103326103513660046122aa565b6107b5565b61026b6103643660046121f6565b610838565b61033261085a565b61033261037f3660046121f6565b610900565b610332610392366004612220565b61099f565b6103326103a5366004612322565b6109ac565b6102b17fb44d7426a530550cf2ab54a0d6ac03f6a065bc4ad313020a85ff3b1d5aa4404e81565b60075460ff1661026b565b6102b16103ea36600461238e565b6001600160a01b031660009081526002602052604090205490565b610332610b6a565b61033261041b3660046121f6565b610b7c565b6102b1600a5481565b610332610b91565b60075461010090046001600160a01b03165b6040516001600160a01b039091168152602001610277565b61026b610469366004612322565b610c35565b61044361047c3660046123a9565b610cd9565b61026b61048f3660046122aa565b610cf8565b610288610d21565b6102b17fb774acb85c844ceba5af7a7d2c1ae87bec3d9ae928aa7bb14ad9ece203e2880e81565b6102b1600081565b61026b6104d93660046121f6565b610d30565b61026b6104ec3660046121f6565b610dab565b6104436104ff36600461240d565b610db9565b610332610512366004612220565b611241565b6102b1610525366004612220565b6112d5565b6102b17f9f2df0fed2c77648de5860a4cc508cd0818c85b8b8a1ab4ceeef8d981c8956a681565b61033261055f3660046122aa565b6112ec565b610443610572366004612220565b6000908152600860205260409020546001600160a01b031690565b6102b161059b3660046124a7565b611311565b6102b17f65d7a28e3265b37a6474929f336521b332c1681b933f6cb9f3376673440d862a81565b6103326105d536600461238e565b61133c565b60006001600160e01b03198216635a05180f60e01b14806105ff57506105ff826113b2565b92915050565b606060058054610614906124d1565b80601f0160208091040260200160405190810160405280929190818152602001828054610640906124d1565b801561068d5780601f106106625761010080835404028352916020019161068d565b820191906000526020600020905b81548152906001019060200180831161067057829003601f168201915b5050505050905090565b6000336106a58185856113e7565b5060019392505050565b6008602052600090815260409020805460018201546002830180546001600160a01b039384169492909316926106e4906124d1565b80601f0160208091040260200160405190810160405280929190818152602001828054610710906124d1565b801561075d5780601f106107325761010080835404028352916020019161075d565b820191906000526020600020905b81548152906001019060200180831161074057829003601f168201915b5050505050905083565b60003361077585828561150b565b610780858585611585565b506001949350505050565b6000828152602081905260409020600101546107a68161173b565b6107b08383611745565b505050565b6001600160a01b038116331461082a5760405162461bcd60e51b815260206004820152602f60248201527f416363657373436f6e74726f6c3a2063616e206f6e6c792072656e6f756e636560448201526e103937b632b9903337b91039b2b63360891b60648201526084015b60405180910390fd5b6108348282611767565b5050565b6000336106a581858561084b8383611311565b6108559190612521565b6113e7565b6108847f65d7a28e3265b37a6474929f336521b332c1681b933f6cb9f3376673440d862a33610cf8565b6108f65760405162461bcd60e51b815260206004820152603960248201527f45524332305072657365744d696e7465725061757365723a206d75737420686160448201527f76652070617573657220726f6c6520746f20756e7061757365000000000000006064820152608401610821565b6108fe611789565b565b61092a7f9f2df0fed2c77648de5860a4cc508cd0818c85b8b8a1ab4ceeef8d981c8956a633610cf8565b6109955760405162461bcd60e51b815260206004820152603660248201527f45524332305072657365744d696e7465725061757365723a206d7573742068616044820152751d99481b5a5b9d195c881c9bdb19481d1bc81b5a5b9d60521b6064820152608401610821565b61083482826117db565b6109a933826118a8565b50565b6109d67fb44d7426a530550cf2ab54a0d6ac03f6a065bc4ad313020a85ff3b1d5aa4404e33610cf8565b610a485760405162461bcd60e51b815260206004820152603c60248201527f546978546f6b656e3a206d7573742068617665207365727669636520776f726b60448201527f657220726f6c6520746f207265676973746572207365727669636573000000006064820152608401610821565b828114610a975760405162461bcd60e51b815260206004820152601860248201527f496e707574206c656e67746873206d757374206d6174636800000000000000006044820152606401610821565b60005b83811015610b63576000858583818110610ab657610ab6612534565b90506020020135905036848484818110610ad257610ad2612534565b9050602002810190610ae4919061254a565b9050610b4e82610af7602084018461238e565b610b04604085018561256a565b8080601f016020809104026020016040519081016040528093929190818152602001838380828437600092019190915250610b4992505050604086016020870161238e565b6119e8565b50508080610b5b906125b1565b915050610a9a565b5050505050565b610b72611aa1565b6108fe6000611b01565b610b8782338361150b565b61083482826118a8565b610bbb7f65d7a28e3265b37a6474929f336521b332c1681b933f6cb9f3376673440d862a33610cf8565b610c2d5760405162461bcd60e51b815260206004820152603760248201527f45524332305072657365744d696e7465725061757365723a206d75737420686160448201527f76652070617573657220726f6c6520746f2070617573650000000000000000006064820152608401610821565b6108fe611b5b565b6000805b84811015610ccb57838382818110610c5357610c53612534565b9050602002016020810190610c68919061238e565b6001600160a01b031660086000888885818110610c8757610c87612534565b60209081029290920135835250810191909152604001600020546001600160a01b031614610cb9576000915050610cd1565b80610cc3816125b1565b915050610c39565b50600190505b949350505050565b6000828152600160205260408120610cf19083611b98565b9392505050565b6000918252602082815260408084206001600160a01b0393909316845291905290205460ff1690565b606060068054610614906124d1565b60003381610d3e8286611311565b905083811015610d9e5760405162461bcd60e51b815260206004820152602560248201527f45524332303a2064656372656173656420616c6c6f77616e63652062656c6f77604482015264207a65726f60d81b6064820152608401610821565b61078082868684036113e7565b6000336106a5818585611585565b6000610dc3611ba4565b600954339015610e72576009546001600160a01b0382166000908152600260205260409020541015610e4e5760405162461bcd60e51b815260206004820152602e60248201527f546978546f6b656e3a204e6f7420656e6f7567682054495820746f207265676960448201526d737465722061207365727669636560901b6064820152608401610821565b610e7281610e6a6007546001600160a01b036101009091041690565b600954611585565b60008888604051602001610e879291906125ca565b60408051601f198184030181529181528151602092830120600081815260089093529120600101549091506001600160a01b0316801580610ed95750826001600160a01b0316816001600160a01b0316145b610f445760405162461bcd60e51b815260206004820152603660248201527f546978546f6b656e3a204f6e6c79206f776e65722063616e2075706461746520604482015275309039b2b93b34b1b2903932b3b4b9ba3930ba34b7b760511b6064820152608401610821565b600a54610f52906001612521565b600a81905550600061102c87878080601f01602080910402602001604051908101604052809392919081815260200183838082843760009201919091525050600a54604051610fbf9350909150889060200191825260601b6001600160601b031916602082015260340190565b604051602081830303815290604052805190602001208151602092830120604080516001600160f81b0319818601523060601b6001600160601b03191660218201526035810193909352605580840192909252805180840390920182526075909201909152805191012090565b905061107183828b8b8080601f0160208091040260200160405190810160405280939291908181526020018383808284376000920191909152508a92506119e8915050565b60006110f388888080601f01602080910402602001604051908101604052809392919081815260200183838082843760009201919091525050600a546040516110d89350909150899060200191825260601b6001600160601b031916602082015260340190565b60405160208183030381529060405280519060200120611bea565b9050806001600160a01b0316826001600160a01b0316146111565760405162461bcd60e51b815260206004820152601960248201527f4465706c6f7965642061646472657373206d69736d61746368000000000000006044820152606401610821565b6040516001600160a01b0386811660248301526000919083169060440160408051601f198184030181529181526020820180516001600160e01b03166313af403560e01b179052516111a891906125da565b6000604051808303816000865af19150503d80600081146111e5576040519150601f19603f3d011682016040523d82523d6000602084013e6111ea565b606091505b50509050806112315760405162461bcd60e51b815260206004820152601360248201527213dddb995c8818d85b9b9bdd081899481cd95d606a1b6044820152606401610821565b509b9a5050505050505050505050565b61126b7fb774acb85c844ceba5af7a7d2c1ae87bec3d9ae928aa7bb14ad9ece203e2880e33610cf8565b6112d05760405162461bcd60e51b815260206004820152603060248201527f546978546f6b656e3a206d75737420686176652062616c616e63657220726f6c60448201526f6520746f20757064617465206665657360801b6064820152608401610821565b600955565b60008181526001602052604081206105ff90611c03565b6000828152602081905260409020600101546113078161173b565b6107b08383611767565b6001600160a01b03918216600090815260036020908152604080832093909416825291909152205490565b611344611aa1565b6001600160a01b0381166113a95760405162461bcd60e51b815260206004820152602660248201527f4f776e61626c653a206e6577206f776e657220697320746865207a65726f206160448201526564647265737360d01b6064820152608401610821565b6109a981611b01565b60006001600160e01b03198216637965db0b60e01b14806105ff57506301ffc9a760e01b6001600160e01b03198316146105ff565b6001600160a01b0383166114495760405162461bcd60e51b8152602060048201526024808201527f45524332303a20617070726f76652066726f6d20746865207a65726f206164646044820152637265737360e01b6064820152608401610821565b6001600160a01b0382166114aa5760405162461bcd60e51b815260206004820152602260248201527f45524332303a20617070726f766520746f20746865207a65726f206164647265604482015261737360f01b6064820152608401610821565b6001600160a01b0383811660008181526003602090815260408083209487168084529482529182902085905590518481527f8c5be1e5ebec7d5bd14f71427d1e84f3dd0314c0f7b2291e5b200ac8c7c3b925910160405180910390a3505050565b60006115178484611311565b9050600019811461157f57818110156115725760405162461bcd60e51b815260206004820152601d60248201527f45524332303a20696e73756666696369656e7420616c6c6f77616e63650000006044820152606401610821565b61157f84848484036113e7565b50505050565b6001600160a01b0383166115e95760405162461bcd60e51b815260206004820152602560248201527f45524332303a207472616e736665722066726f6d20746865207a65726f206164604482015264647265737360d81b6064820152608401610821565b6001600160a01b03821661164b5760405162461bcd60e51b815260206004820152602360248201527f45524332303a207472616e7366657220746f20746865207a65726f206164647260448201526265737360e81b6064820152608401610821565b611656838383611c0d565b6001600160a01b038316600090815260026020526040902054818110156116ce5760405162461bcd60e51b815260206004820152602660248201527f45524332303a207472616e7366657220616d6f756e7420657863656564732062604482015265616c616e636560d01b6064820152608401610821565b6001600160a01b0380851660008181526002602052604080822086860390559286168082529083902080548601905591517fddf252ad1be2c89b69c2b068fc378daa952ba7f163c4a11628f55a4df523b3ef9061172e9086815260200190565b60405180910390a361157f565b6109a98133611c18565b61174f8282611c71565b60008281526001602052604090206107b09082611cf5565b6117718282611d0a565b60008281526001602052604090206107b09082611d6f565b611791611d84565b6007805460ff191690557f5db9ee0a495bf2e6ff9c91a7834c1ba4fdd244a5e8aa4e537bd38aeae4b073aa335b6040516001600160a01b03909116815260200160405180910390a1565b6001600160a01b0382166118315760405162461bcd60e51b815260206004820152601f60248201527f45524332303a206d696e7420746f20746865207a65726f2061646472657373006044820152606401610821565b61183d60008383611c0d565b806004600082825461184f9190612521565b90915550506001600160a01b0382166000818152600260209081526040808320805486019055518481527fddf252ad1be2c89b69c2b068fc378daa952ba7f163c4a11628f55a4df523b3ef910160405180910390a35050565b6001600160a01b0382166119085760405162461bcd60e51b815260206004820152602160248201527f45524332303a206275726e2066726f6d20746865207a65726f206164647265736044820152607360f81b6064820152608401610821565b61191482600083611c0d565b6001600160a01b038216600090815260026020526040902054818110156119885760405162461bcd60e51b815260206004820152602260248201527f45524332303a206275726e20616d6f756e7420657863656564732062616c616e604482015261636560f01b6064820152608401610821565b6001600160a01b03831660008181526002602090815260408083208686039055600480548790039055518581529192917fddf252ad1be2c89b69c2b068fc378daa952ba7f163c4a11628f55a4df523b3ef910160405180910390a3505050565b604080516060810182526001600160a01b038086168252838116602080840191825283850187815260008a81526008909252949020835181549084166001600160a01b031991821617825591516001820180549190941692169190911790915591519091906002820190611a5c9082612650565b509050507fbfe7d95aebe55e97e4d272d0e9b897df6b127618d4b02ae53b3393de5f52c873848484604051611a9393929190612710565b60405180910390a150505050565b6007546001600160a01b036101009091041633146108fe5760405162461bcd60e51b815260206004820181905260248201527f4f776e61626c653a2063616c6c6572206973206e6f7420746865206f776e65726044820152606401610821565b600780546001600160a01b03838116610100818102610100600160a81b031985161790945560405193909204169182907f8be0079c531659141344cd1fd0a4f28419497f9722a3daafe3b4186f6b6457e090600090a35050565b611b63611ba4565b6007805460ff191660011790557f62e78cea01bee320cd4e420270b5ea74000d11b0c9f74754ebdbfc544b05a2586117be3390565b6000610cf18383611dcd565b60075460ff16156108fe5760405162461bcd60e51b815260206004820152601060248201526f14185d5cd8589b194e881c185d5cd95960821b6044820152606401610821565b6000818351602085016000f59050803b6105ff57600080fd5b60006105ff825490565b6107b0838383611df7565b611c228282610cf8565b61083457611c2f81611e5d565b611c3a836020611e6f565b604051602001611c4b92919061273a565b60408051601f198184030181529082905262461bcd60e51b8252610821916004016121c7565b611c7b8282610cf8565b610834576000828152602081815260408083206001600160a01b03851684529091529020805460ff19166001179055611cb13390565b6001600160a01b0316816001600160a01b0316837f2f8788117e7eff1d82e926ec794901d17c78024a50270940304540a733656f0d60405160405180910390a45050565b6000610cf1836001600160a01b03841661200b565b611d148282610cf8565b15610834576000828152602081815260408083206001600160a01b0385168085529252808320805460ff1916905551339285917ff6391f5c32d9c69d2a47ea670b442974b53935d1edc7fd64eb21e047a839171b9190a45050565b6000610cf1836001600160a01b03841661205a565b60075460ff166108fe5760405162461bcd60e51b815260206004820152601460248201527314185d5cd8589b194e881b9bdd081c185d5cd95960621b6044820152606401610821565b6000826000018281548110611de457611de4612534565b9060005260206000200154905092915050565b60075460ff16156107b05760405162461bcd60e51b815260206004820152602a60248201527f45524332305061757361626c653a20746f6b656e207472616e736665722077686044820152691a5b19481c185d5cd95960b21b6064820152608401610821565b60606105ff6001600160a01b03831660145b60606000611e7e8360026127af565b611e89906002612521565b67ffffffffffffffff811115611ea157611ea16125ec565b6040519080825280601f01601f191660200182016040528015611ecb576020820181803683370190505b509050600360fc1b81600081518110611ee657611ee6612534565b60200101906001600160f81b031916908160001a905350600f60fb1b81600181518110611f1557611f15612534565b60200101906001600160f81b031916908160001a9053506000611f398460026127af565b611f44906001612521565b90505b6001811115611fbc576f181899199a1a9b1b9c1cb0b131b232b360811b85600f1660108110611f7857611f78612534565b1a60f81b828281518110611f8e57611f8e612534565b60200101906001600160f81b031916908160001a90535060049490941c93611fb5816127c6565b9050611f47565b508315610cf15760405162461bcd60e51b815260206004820181905260248201527f537472696e67733a20686578206c656e67746820696e73756666696369656e746044820152606401610821565b6000818152600183016020526040812054612052575081546001818101845560008481526020808220909301849055845484825282860190935260409020919091556105ff565b5060006105ff565b6000818152600183016020526040812054801561214357600061207e6001836127dd565b8554909150600090612092906001906127dd565b90508181146120f75760008660000182815481106120b2576120b2612534565b90600052602060002001549050808760000184815481106120d5576120d5612534565b6000918252602080832090910192909255918252600188019052604090208390555b8554869080612108576121086127f0565b6001900381819060005260206000200160009055905585600101600086815260200190815260200160002060009055600193505050506105ff565b60009150506105ff565b60006020828403121561215f57600080fd5b81356001600160e01b031981168114610cf157600080fd5b60005b8381101561219257818101518382015260200161217a565b50506000910152565b600081518084526121b3816020860160208601612177565b601f01601f19169290920160200192915050565b602081526000610cf1602083018461219b565b80356001600160a01b03811681146121f157600080fd5b919050565b6000806040838503121561220957600080fd5b612212836121da565b946020939093013593505050565b60006020828403121561223257600080fd5b5035919050565b6001600160a01b038481168252831660208201526060604082018190526000906122659083018461219b565b95945050505050565b60008060006060848603121561228357600080fd5b61228c846121da565b925061229a602085016121da565b9150604084013590509250925092565b600080604083850312156122bd57600080fd5b823591506122cd602084016121da565b90509250929050565b60008083601f8401126122e857600080fd5b50813567ffffffffffffffff81111561230057600080fd5b6020830191508360208260051b850101111561231b57600080fd5b9250929050565b6000806000806040858703121561233857600080fd5b843567ffffffffffffffff8082111561235057600080fd5b61235c888389016122d6565b9096509450602087013591508082111561237557600080fd5b50612382878288016122d6565b95989497509550505050565b6000602082840312156123a057600080fd5b610cf1826121da565b600080604083850312156123bc57600080fd5b50508035926020909101359150565b60008083601f8401126123dd57600080fd5b50813567ffffffffffffffff8111156123f557600080fd5b60208301915083602082850101111561231b57600080fd5b6000806000806000806060878903121561242657600080fd5b863567ffffffffffffffff8082111561243e57600080fd5b61244a8a838b016123cb565b9098509650602089013591508082111561246357600080fd5b61246f8a838b016123cb565b9096509450604089013591508082111561248857600080fd5b5061249589828a016123cb565b979a9699509497509295939492505050565b600080604083850312156124ba57600080fd5b6124c3836121da565b91506122cd602084016121da565b600181811c908216806124e557607f821691505b60208210810361250557634e487b7160e01b600052602260045260246000fd5b50919050565b634e487b7160e01b600052601160045260246000fd5b808201808211156105ff576105ff61250b565b634e487b7160e01b600052603260045260246000fd5b60008235605e1983360301811261256057600080fd5b9190910192915050565b6000808335601e1984360301811261258157600080fd5b83018035915067ffffffffffffffff82111561259c57600080fd5b60200191503681900382131561231b57600080fd5b6000600182016125c3576125c361250b565b5060010190565b8183823760009101908152919050565b60008251612560818460208701612177565b634e487b7160e01b600052604160045260246000fd5b601f8211156107b057600081815260208120601f850160051c810160208610156126295750805b601f850160051c820191505b8181101561264857828155600101612635565b505050505050565b815167ffffffffffffffff81111561266a5761266a6125ec565b61267e8161267884546124d1565b84612602565b602080601f8311600181146126b3576000841561269b5750858301515b600019600386901b1c1916600185901b178555612648565b600085815260208120601f198616915b828110156126e2578886015182559484019460019091019084016126c3565b50858210156127005787850151600019600388901b60f8161c191681555b5050505050600190811b01905550565b8381526001600160a01b03831660208201526060604082018190526000906122659083018461219b565b7f416363657373436f6e74726f6c3a206163636f756e7420000000000000000000815260008351612772816017850160208801612177565b7001034b99036b4b9b9b4b733903937b6329607d1b60179184019182015283516127a3816028840160208801612177565b01602801949350505050565b80820281158282048414176105ff576105ff61250b565b6000816127d5576127d561250b565b506000190190565b818103818111156105ff576105ff61250b565b634e487b7160e01b600052603160045260246000fdfea264697066735822122049a33fc2d967552e54bbbc305d46d0a4341bb8fcc89ebb46151708b087a8379e64736f6c63430008130033",
    "sourcePath": "c:/Projects/Toolblox.Audit/Toolblox.Token/Contracts/TixToken.sol",
    "compiler": {
        "name": "solc",
        "version": "0.8.19+commit.7dd6d404"
    },
    "functionHashes": {
        "BALANCER()": "96f50b2d",
        "DEFAULT_ADMIN_ROLE()": "a217fddf",
        "MINTER_ROLE()": "d5391393",
        "PAUSER_ROLE()": "e63ab1e9",
        "SERVICE_WORKER()": "5316a58d",
        "_counter()": "7cd49fde",
        "_registrationFee()": "13a978d9",
        "allowance(address,address)": "dd62ed3e",
        "approve(address,uint256)": "095ea7b3",
        "areServicesRegistered(bytes32[],address[])": "8fbf45d3",
        "balanceOf(address)": "70a08231",
        "burn(uint256)": "42966c68",
        "burnFrom(address,uint256)": "79cc6790",
        "decimals()": "313ce567",
        "decreaseAllowance(address,uint256)": "a457c2d7",
        "getRoleAdmin(bytes32)": "248a9ca3",
        "getRoleMember(bytes32,uint256)": "9010d07c",
        "getRoleMemberCount(bytes32)": "ca15c873",
        "getService(bytes32)": "da47d856",
        "grantRole(bytes32,address)": "2f2ff15d",
        "hasRole(bytes32,address)": "91d14854",
        "increaseAllowance(address,uint256)": "39509351",
        "mint(address,uint256)": "40c10f19",
        "name()": "06fdde03",
        "owner()": "8da5cb5b",
        "pause()": "8456cb59",
        "paused()": "5c975abb",
        "registerService(string,string,bytes)": "c292dbe7",
        "registerServices(bytes32[],(address,address,string)[])": "5183d6ee",
        "renounceOwnership()": "715018a6",
        "renounceRole(bytes32,address)": "36568abe",
        "repository(bytes32)": "187f7935",
        "revokeRole(bytes32,address)": "d547741f",
        "setRegistrationFee(uint256)": "c320c727",
        "supportsInterface(bytes4)": "01ffc9a7",
        "symbol()": "95d89b41",
        "totalSupply()": "18160ddd",
        "transfer(address,uint256)": "a9059cbb",
        "transferFrom(address,address,uint256)": "23b872dd",
        "transferOwnership(address)": "f2fde38b",
        "unpause()": "3f4ba83a"
    },
    "gasEstimates": {
        "creation": {
            "codeDepositCost": "2060000",
            "executionCost": "infinite",
            "totalCost": "infinite"
        },
        "external": {
            "BALANCER()": "306",
            "DEFAULT_ADMIN_ROLE()": "328",
            "MINTER_ROLE()": "239",
            "PAUSER_ROLE()": "327",
            "SERVICE_WORKER()": "262",
            "_counter()": "2363",
            "_registrationFee()": "2408",
            "allowance(address,address)": "infinite",
            "approve(address,uint256)": "24681",
            "areServicesRegistered(bytes32[],address[])": "infinite",
            "balanceOf(address)": "2648",
            "burn(uint256)": "infinite",
            "burnFrom(address,uint256)": "infinite",
            "decimals()": "311",
            "decreaseAllowance(address,uint256)": "26984",
            "getRoleAdmin(bytes32)": "2537",
            "getRoleMember(bytes32,uint256)": "infinite",
            "getRoleMemberCount(bytes32)": "infinite",
            "getService(bytes32)": "2565",
            "grantRole(bytes32,address)": "infinite",
            "hasRole(bytes32,address)": "2718",
            "increaseAllowance(address,uint256)": "27040",
            "mint(address,uint256)": "infinite",
            "name()": "infinite",
            "owner()": "2443",
            "pause()": "infinite",
            "paused()": "2382",
            "registerService(string,string,bytes)": "infinite",
            "registerServices(bytes32[],(address,address,string)[])": "infinite",
            "renounceOwnership()": "infinite",
            "renounceRole(bytes32,address)": "infinite",
            "repository(bytes32)": "infinite",
            "revokeRole(bytes32,address)": "infinite",
            "setRegistrationFee(uint256)": "24749",
            "supportsInterface(bytes4)": "infinite",
            "symbol()": "infinite",
            "totalSupply()": "2427",
            "transfer(address,uint256)": "infinite",
            "transferFrom(address,address,uint256)": "infinite",
            "transferOwnership(address)": "28523",
            "unpause()": "infinite"
        },
        "internal": {
            "_registerService(bytes32,address,string memory,address)": "infinite",
            "computeAddress(bytes memory,bytes32)": "infinite",
            "deploy(bytes memory,bytes32)": "infinite"
        }
    }
}