{
    "contractName": "TixToken",
    "abi": [
        {
            "inputs": [
                {
                    "internalType": "uint256",
                    "name": "initialSupply",
                    "type": "uint256"
                }
            ],
            "stateMutability": "nonpayable",
            "type": "constructor"
        },
        {
            "anonymous": false,
            "inputs": [
                {
                    "indexed": true,
                    "internalType": "address",
                    "name": "owner",
                    "type": "address"
                },
                {
                    "indexed": true,
                    "internalType": "address",
                    "name": "spender",
                    "type": "address"
                },
                {
                    "indexed": false,
                    "internalType": "uint256",
                    "name": "value",
                    "type": "uint256"
                }
            ],
            "name": "Approval",
            "type": "event"
        },
        {
            "anonymous": false,
            "inputs": [
                {
                    "indexed": true,
                    "internalType": "address",
                    "name": "previousOwner",
                    "type": "address"
                },
                {
                    "indexed": true,
                    "internalType": "address",
                    "name": "newOwner",
                    "type": "address"
                }
            ],
            "name": "OwnershipTransferred",
            "type": "event"
        },
        {
            "anonymous": false,
            "inputs": [
                {
                    "indexed": false,
                    "internalType": "address",
                    "name": "account",
                    "type": "address"
                }
            ],
            "name": "Paused",
            "type": "event"
        },
        {
            "anonymous": false,
            "inputs": [
                {
                    "indexed": true,
                    "internalType": "bytes32",
                    "name": "role",
                    "type": "bytes32"
                },
                {
                    "indexed": true,
                    "internalType": "bytes32",
                    "name": "previousAdminRole",
                    "type": "bytes32"
                },
                {
                    "indexed": true,
                    "internalType": "bytes32",
                    "name": "newAdminRole",
                    "type": "bytes32"
                }
            ],
            "name": "RoleAdminChanged",
            "type": "event"
        },
        {
            "anonymous": false,
            "inputs": [
                {
                    "indexed": true,
                    "internalType": "bytes32",
                    "name": "role",
                    "type": "bytes32"
                },
                {
                    "indexed": true,
                    "internalType": "address",
                    "name": "account",
                    "type": "address"
                },
                {
                    "indexed": true,
                    "internalType": "address",
                    "name": "sender",
                    "type": "address"
                }
            ],
            "name": "RoleGranted",
            "type": "event"
        },
        {
            "anonymous": false,
            "inputs": [
                {
                    "indexed": true,
                    "internalType": "bytes32",
                    "name": "role",
                    "type": "bytes32"
                },
                {
                    "indexed": true,
                    "internalType": "address",
                    "name": "account",
                    "type": "address"
                },
                {
                    "indexed": true,
                    "internalType": "address",
                    "name": "sender",
                    "type": "address"
                }
            ],
            "name": "RoleRevoked",
            "type": "event"
        },
        {
            "anonymous": false,
            "inputs": [
                {
                    "indexed": false,
                    "internalType": "bytes32",
                    "name": "_name",
                    "type": "bytes32"
                },
                {
                    "indexed": false,
                    "internalType": "address",
                    "name": "_destination",
                    "type": "address"
                },
                {
                    "indexed": false,
                    "internalType": "string",
                    "name": "_spec",
                    "type": "string"
                }
            ],
            "name": "ServiceRegistered",
            "type": "event"
        },
        {
            "anonymous": false,
            "inputs": [
                {
                    "indexed": true,
                    "internalType": "address",
                    "name": "from",
                    "type": "address"
                },
                {
                    "indexed": true,
                    "internalType": "address",
                    "name": "to",
                    "type": "address"
                },
                {
                    "indexed": false,
                    "internalType": "uint256",
                    "name": "value",
                    "type": "uint256"
                }
            ],
            "name": "Transfer",
            "type": "event"
        },
        {
            "anonymous": false,
            "inputs": [
                {
                    "indexed": false,
                    "internalType": "address",
                    "name": "account",
                    "type": "address"
                }
            ],
            "name": "Unpaused",
            "type": "event"
        },
        {
            "inputs": [],
            "name": "BALANCER",
            "outputs": [
                {
                    "internalType": "bytes32",
                    "name": "",
                    "type": "bytes32"
                }
            ],
            "stateMutability": "view",
            "type": "function"
        },
        {
            "inputs": [],
            "name": "DEFAULT_ADMIN_ROLE",
            "outputs": [
                {
                    "internalType": "bytes32",
                    "name": "",
                    "type": "bytes32"
                }
            ],
            "stateMutability": "view",
            "type": "function"
        },
        {
            "inputs": [],
            "name": "MINTER_ROLE",
            "outputs": [
                {
                    "internalType": "bytes32",
                    "name": "",
                    "type": "bytes32"
                }
            ],
            "stateMutability": "view",
            "type": "function"
        },
        {
            "inputs": [],
            "name": "PAUSER_ROLE",
            "outputs": [
                {
                    "internalType": "bytes32",
                    "name": "",
                    "type": "bytes32"
                }
            ],
            "stateMutability": "view",
            "type": "function"
        },
        {
            "inputs": [],
            "name": "SERVICE_WORKER",
            "outputs": [
                {
                    "internalType": "bytes32",
                    "name": "",
                    "type": "bytes32"
                }
            ],
            "stateMutability": "view",
            "type": "function"
        },
        {
            "inputs": [],
            "name": "_counter",
            "outputs": [
                {
                    "internalType": "uint256",
                    "name": "",
                    "type": "uint256"
                }
            ],
            "stateMutability": "view",
            "type": "function"
        },
        {
            "inputs": [],
            "name": "_registrationTransferAmount",
            "outputs": [
                {
                    "internalType": "uint256",
                    "name": "",
                    "type": "uint256"
                }
            ],
            "stateMutability": "view",
            "type": "function"
        },
        {
            "inputs": [
                {
                    "internalType": "address",
                    "name": "owner",
                    "type": "address"
                },
                {
                    "internalType": "address",
                    "name": "spender",
                    "type": "address"
                }
            ],
            "name": "allowance",
            "outputs": [
                {
                    "internalType": "uint256",
                    "name": "",
                    "type": "uint256"
                }
            ],
            "stateMutability": "view",
            "type": "function"
        },
        {
            "inputs": [
                {
                    "internalType": "address",
                    "name": "spender",
                    "type": "address"
                },
                {
                    "internalType": "uint256",
                    "name": "amount",
                    "type": "uint256"
                }
            ],
            "name": "approve",
            "outputs": [
                {
                    "internalType": "bool",
                    "name": "",
                    "type": "bool"
                }
            ],
            "stateMutability": "nonpayable",
            "type": "function"
        },
        {
            "inputs": [
                {
                    "internalType": "bytes32[]",
                    "name": "names",
                    "type": "bytes32[]"
                },
                {
                    "internalType": "address[]",
                    "name": "destinations",
                    "type": "address[]"
                }
            ],
            "name": "areServicesRegistered",
            "outputs": [
                {
                    "internalType": "bool",
                    "name": "",
                    "type": "bool"
                }
            ],
            "stateMutability": "view",
            "type": "function"
        },
        {
            "inputs": [
                {
                    "internalType": "address",
                    "name": "account",
                    "type": "address"
                }
            ],
            "name": "balanceOf",
            "outputs": [
                {
                    "internalType": "uint256",
                    "name": "",
                    "type": "uint256"
                }
            ],
            "stateMutability": "view",
            "type": "function"
        },
        {
            "inputs": [
                {
                    "internalType": "uint256",
                    "name": "amount",
                    "type": "uint256"
                }
            ],
            "name": "burn",
            "outputs": [],
            "stateMutability": "nonpayable",
            "type": "function"
        },
        {
            "inputs": [
                {
                    "internalType": "address",
                    "name": "account",
                    "type": "address"
                },
                {
                    "internalType": "uint256",
                    "name": "amount",
                    "type": "uint256"
                }
            ],
            "name": "burnFrom",
            "outputs": [],
            "stateMutability": "nonpayable",
            "type": "function"
        },
        {
            "inputs": [],
            "name": "decimals",
            "outputs": [
                {
                    "internalType": "uint8",
                    "name": "",
                    "type": "uint8"
                }
            ],
            "stateMutability": "view",
            "type": "function"
        },
        {
            "inputs": [
                {
                    "internalType": "address",
                    "name": "spender",
                    "type": "address"
                },
                {
                    "internalType": "uint256",
                    "name": "subtractedValue",
                    "type": "uint256"
                }
            ],
            "name": "decreaseAllowance",
            "outputs": [
                {
                    "internalType": "bool",
                    "name": "",
                    "type": "bool"
                }
            ],
            "stateMutability": "nonpayable",
            "type": "function"
        },
        {
            "inputs": [
                {
                    "internalType": "bytes32",
                    "name": "role",
                    "type": "bytes32"
                }
            ],
            "name": "getRoleAdmin",
            "outputs": [
                {
                    "internalType": "bytes32",
                    "name": "",
                    "type": "bytes32"
                }
            ],
            "stateMutability": "view",
            "type": "function"
        },
        {
            "inputs": [
                {
                    "internalType": "bytes32",
                    "name": "role",
                    "type": "bytes32"
                },
                {
                    "internalType": "uint256",
                    "name": "index",
                    "type": "uint256"
                }
            ],
            "name": "getRoleMember",
            "outputs": [
                {
                    "internalType": "address",
                    "name": "",
                    "type": "address"
                }
            ],
            "stateMutability": "view",
            "type": "function"
        },
        {
            "inputs": [
                {
                    "internalType": "bytes32",
                    "name": "role",
                    "type": "bytes32"
                }
            ],
            "name": "getRoleMemberCount",
            "outputs": [
                {
                    "internalType": "uint256",
                    "name": "",
                    "type": "uint256"
                }
            ],
            "stateMutability": "view",
            "type": "function"
        },
        {
            "inputs": [
                {
                    "internalType": "bytes32",
                    "name": "name",
                    "type": "bytes32"
                }
            ],
            "name": "getService",
            "outputs": [
                {
                    "internalType": "address",
                    "name": "",
                    "type": "address"
                }
            ],
            "stateMutability": "view",
            "type": "function"
        },
        {
            "inputs": [
                {
                    "internalType": "bytes32",
                    "name": "role",
                    "type": "bytes32"
                },
                {
                    "internalType": "address",
                    "name": "account",
                    "type": "address"
                }
            ],
            "name": "grantRole",
            "outputs": [],
            "stateMutability": "nonpayable",
            "type": "function"
        },
        {
            "inputs": [
                {
                    "internalType": "bytes32",
                    "name": "role",
                    "type": "bytes32"
                },
                {
                    "internalType": "address",
                    "name": "account",
                    "type": "address"
                }
            ],
            "name": "hasRole",
            "outputs": [
                {
                    "internalType": "bool",
                    "name": "",
                    "type": "bool"
                }
            ],
            "stateMutability": "view",
            "type": "function"
        },
        {
            "inputs": [
                {
                    "internalType": "address",
                    "name": "spender",
                    "type": "address"
                },
                {
                    "internalType": "uint256",
                    "name": "addedValue",
                    "type": "uint256"
                }
            ],
            "name": "increaseAllowance",
            "outputs": [
                {
                    "internalType": "bool",
                    "name": "",
                    "type": "bool"
                }
            ],
            "stateMutability": "nonpayable",
            "type": "function"
        },
        {
            "inputs": [
                {
                    "internalType": "address",
                    "name": "to",
                    "type": "address"
                },
                {
                    "internalType": "uint256",
                    "name": "amount",
                    "type": "uint256"
                }
            ],
            "name": "mint",
            "outputs": [],
            "stateMutability": "nonpayable",
            "type": "function"
        },
        {
            "inputs": [],
            "name": "name",
            "outputs": [
                {
                    "internalType": "string",
                    "name": "",
                    "type": "string"
                }
            ],
            "stateMutability": "view",
            "type": "function"
        },
        {
            "inputs": [],
            "name": "owner",
            "outputs": [
                {
                    "internalType": "address",
                    "name": "",
                    "type": "address"
                }
            ],
            "stateMutability": "view",
            "type": "function"
        },
        {
            "inputs": [],
            "name": "pause",
            "outputs": [],
            "stateMutability": "nonpayable",
            "type": "function"
        },
        {
            "inputs": [],
            "name": "paused",
            "outputs": [
                {
                    "internalType": "bool",
                    "name": "",
                    "type": "bool"
                }
            ],
            "stateMutability": "view",
            "type": "function"
        },
        {
            "inputs": [
                {
                    "internalType": "string",
                    "name": "name",
                    "type": "string"
                },
                {
                    "internalType": "string",
                    "name": "spec",
                    "type": "string"
                },
                {
                    "internalType": "address",
                    "name": "destination",
                    "type": "address"
                }
            ],
            "name": "registerService",
            "outputs": [],
            "stateMutability": "nonpayable",
            "type": "function"
        },
        {
            "inputs": [
                {
                    "internalType": "string",
                    "name": "name",
                    "type": "string"
                },
                {
                    "internalType": "string",
                    "name": "spec",
                    "type": "string"
                },
                {
                    "internalType": "address",
                    "name": "destination",
                    "type": "address"
                },
                {
                    "internalType": "address",
                    "name": "owner",
                    "type": "address"
                }
            ],
            "name": "registerService",
            "outputs": [],
            "stateMutability": "nonpayable",
            "type": "function"
        },
        {
            "inputs": [
                {
                    "internalType": "bytes32[]",
                    "name": "names",
                    "type": "bytes32[]"
                },
                {
                    "components": [
                        {
                            "internalType": "address",
                            "name": "destination",
                            "type": "address"
                        },
                        {
                            "internalType": "address",
                            "name": "owner",
                            "type": "address"
                        },
                        {
                            "internalType": "string",
                            "name": "spec",
                            "type": "string"
                        }
                    ],
                    "internalType": "struct TixToken.ServiceRegistration[]",
                    "name": "destinations",
                    "type": "tuple[]"
                }
            ],
            "name": "registerServices",
            "outputs": [],
            "stateMutability": "nonpayable",
            "type": "function"
        },
        {
            "inputs": [],
            "name": "renounceOwnership",
            "outputs": [],
            "stateMutability": "nonpayable",
            "type": "function"
        },
        {
            "inputs": [
                {
                    "internalType": "bytes32",
                    "name": "role",
                    "type": "bytes32"
                },
                {
                    "internalType": "address",
                    "name": "account",
                    "type": "address"
                }
            ],
            "name": "renounceRole",
            "outputs": [],
            "stateMutability": "nonpayable",
            "type": "function"
        },
        {
            "inputs": [
                {
                    "internalType": "bytes32",
                    "name": "",
                    "type": "bytes32"
                }
            ],
            "name": "repository",
            "outputs": [
                {
                    "internalType": "address",
                    "name": "destination",
                    "type": "address"
                },
                {
                    "internalType": "address",
                    "name": "owner",
                    "type": "address"
                },
                {
                    "internalType": "string",
                    "name": "spec",
                    "type": "string"
                }
            ],
            "stateMutability": "view",
            "type": "function"
        },
        {
            "inputs": [
                {
                    "internalType": "bytes32",
                    "name": "role",
                    "type": "bytes32"
                },
                {
                    "internalType": "address",
                    "name": "account",
                    "type": "address"
                }
            ],
            "name": "revokeRole",
            "outputs": [],
            "stateMutability": "nonpayable",
            "type": "function"
        },
        {
            "inputs": [
                {
                    "internalType": "uint256",
                    "name": "fee",
                    "type": "uint256"
                }
            ],
            "name": "setRegistrationFee",
            "outputs": [],
            "stateMutability": "nonpayable",
            "type": "function"
        },
        {
            "inputs": [
                {
                    "internalType": "bytes4",
                    "name": "interfaceId",
                    "type": "bytes4"
                }
            ],
            "name": "supportsInterface",
            "outputs": [
                {
                    "internalType": "bool",
                    "name": "",
                    "type": "bool"
                }
            ],
            "stateMutability": "view",
            "type": "function"
        },
        {
            "inputs": [],
            "name": "symbol",
            "outputs": [
                {
                    "internalType": "string",
                    "name": "",
                    "type": "string"
                }
            ],
            "stateMutability": "view",
            "type": "function"
        },
        {
            "inputs": [],
            "name": "totalSupply",
            "outputs": [
                {
                    "internalType": "uint256",
                    "name": "",
                    "type": "uint256"
                }
            ],
            "stateMutability": "view",
            "type": "function"
        },
        {
            "inputs": [
                {
                    "internalType": "address",
                    "name": "to",
                    "type": "address"
                },
                {
                    "internalType": "uint256",
                    "name": "amount",
                    "type": "uint256"
                }
            ],
            "name": "transfer",
            "outputs": [
                {
                    "internalType": "bool",
                    "name": "",
                    "type": "bool"
                }
            ],
            "stateMutability": "nonpayable",
            "type": "function"
        },
        {
            "inputs": [
                {
                    "internalType": "address",
                    "name": "from",
                    "type": "address"
                },
                {
                    "internalType": "address",
                    "name": "to",
                    "type": "address"
                },
                {
                    "internalType": "uint256",
                    "name": "amount",
                    "type": "uint256"
                }
            ],
            "name": "transferFrom",
            "outputs": [
                {
                    "internalType": "bool",
                    "name": "",
                    "type": "bool"
                }
            ],
            "stateMutability": "nonpayable",
            "type": "function"
        },
        {
            "inputs": [
                {
                    "internalType": "address",
                    "name": "newOwner",
                    "type": "address"
                }
            ],
            "name": "transferOwnership",
            "outputs": [],
            "stateMutability": "nonpayable",
            "type": "function"
        },
        {
            "inputs": [],
            "name": "unpause",
            "outputs": [],
            "stateMutability": "nonpayable",
            "type": "function"
        }
    ],
    "bytecode": "60806040523480156200001157600080fd5b5060405162002c8c38038062002c8c833981016040819052620000349162000479565b6040518060400160405280600e81526020016d2a37b7b6313637bc102a37b5b2b760911b815250604051806040016040528060038152602001620a892b60eb1b815250818181600590816200008a919062000537565b50600662000099828262000537565b50506007805460ff1916905550620000b360003362000186565b620000df7f9f2df0fed2c77648de5860a4cc508cd0818c85b8b8a1ab4ceeef8d981c8956a63362000186565b6200010b7f65d7a28e3265b37a6474929f336521b332c1681b933f6cb9f3376673440d862a3362000186565b506200011990503362000196565b33620001467fb44d7426a530550cf2ab54a0d6ac03f6a065bc4ad313020a85ff3b1d5aa4404e8262000186565b620001727fb774acb85c844ceba5af7a7d2c1ae87bec3d9ae928aa7bb14ad9ece203e2880e8262000186565b6200017e8183620001f0565b505062000625565b620001928282620002c7565b5050565b600780546001600160a01b03838116610100818102610100600160a81b031985161790945560405193909204169182907f8be0079c531659141344cd1fd0a4f28419497f9722a3daafe3b4186f6b6457e090600090a35050565b6001600160a01b0382166200024c5760405162461bcd60e51b815260206004820152601f60248201527f45524332303a206d696e7420746f20746865207a65726f20616464726573730060448201526064015b60405180910390fd5b6200025a60008383620002f2565b80600460008282546200026e919062000603565b90915550506001600160a01b0382166000818152600260209081526040808320805486019055518481527fddf252ad1be2c89b69c2b068fc378daa952ba7f163c4a11628f55a4df523b3ef910160405180910390a35050565b620002d38282620002ff565b6000828152600160205260409020620002ed90826200039f565b505050565b620002ed838383620003bf565b6000828152602081815260408083206001600160a01b038516845290915290205460ff1662000192576000828152602081815260408083206001600160a01b03851684529091529020805460ff191660011790556200035b3390565b6001600160a01b0316816001600160a01b0316837f2f8788117e7eff1d82e926ec794901d17c78024a50270940304540a733656f0d60405160405180910390a45050565b6000620003b6836001600160a01b03841662000427565b90505b92915050565b60075460ff1615620002ed5760405162461bcd60e51b815260206004820152602a60248201527f45524332305061757361626c653a20746f6b656e207472616e736665722077686044820152691a5b19481c185d5cd95960b21b606482015260840162000243565b60008181526001830160205260408120546200047057508154600181810184556000848152602080822090930184905584548482528286019093526040902091909155620003b9565b506000620003b9565b6000602082840312156200048c57600080fd5b5051919050565b634e487b7160e01b600052604160045260246000fd5b600181811c90821680620004be57607f821691505b602082108103620004df57634e487b7160e01b600052602260045260246000fd5b50919050565b601f821115620002ed57600081815260208120601f850160051c810160208610156200050e5750805b601f850160051c820191505b818110156200052f578281556001016200051a565b505050505050565b81516001600160401b0381111562000553576200055362000493565b6200056b81620005648454620004a9565b84620004e5565b602080601f831160018114620005a357600084156200058a5750858301515b600019600386901b1c1916600185901b1785556200052f565b600085815260208120601f198616915b82811015620005d457888601518255948401946001909101908401620005b3565b5085821015620005f35787850151600019600388901b60f8161c191681555b5050505050600190811b01905550565b80820180821115620003b957634e487b7160e01b600052601160045260246000fd5b61265780620006356000396000f3fe608060405234801561001057600080fd5b506004361061025e5760003560e01c80637cd49fde11610146578063a217fddf116100c3578063d539139311610087578063d539139314610544578063d547741f1461056b578063da47d8561461057e578063dd62ed3e146105a7578063e63ab1e9146105ba578063f2fde38b146105e157600080fd5b8063a217fddf146104f0578063a457c2d7146104f8578063a9059cbb1461050b578063c320c7271461051e578063ca15c8731461053157600080fd5b80638fbf45d31161010a5780638fbf45d3146104885780639010d07c1461049b57806391d14854146104ae57806395d89b41146104c157806396f50b2d146104c957600080fd5b80637cd49fde146104315780638386cdd91461043a5780638456cb591461044d57806388f93b0a146104555780638da5cb5b1461045e57600080fd5b806339509351116101df5780635316a58d116101a35780635316a58d146103a85780635c975abb146103cf57806370a08231146103da578063712be7c114610403578063715018a61461041657806379cc67901461041e57600080fd5b806339509351146103545780633f4ba83a1461036757806340c10f191461036f57806342966c68146103825780635183d6ee1461039557600080fd5b806323b872dd1161022657806323b872dd146102e7578063248a9ca3146102fa5780632f2ff15d1461031d578063313ce5671461033257806336568abe1461034157600080fd5b806301ffc9a71461026357806306fdde031461028b578063095ea7b3146102a057806318160ddd146102b3578063187f7935146102c5575b600080fd5b610276610271366004611eae565b6105f4565b60405190151581526020015b60405180910390f35b61029361061f565b6040516102829190611f28565b6102766102ae366004611f57565b6106b1565b6004545b604051908152602001610282565b6102d86102d3366004611f81565b6106c9565b60405161028293929190611f9a565b6102766102f5366004611fcf565b610781565b6102b7610308366004611f81565b60009081526020819052604090206001015490565b61033061032b36600461200b565b6107a5565b005b60405160128152602001610282565b61033061034f36600461200b565b6107cf565b610276610362366004611f57565b610852565b610330610874565b61033061037d366004611f57565b61091a565b610330610390366004611f81565b6109b9565b6103306103a3366004612083565b6109c6565b6102b77fb44d7426a530550cf2ab54a0d6ac03f6a065bc4ad313020a85ff3b1d5aa4404e81565b60075460ff16610276565b6102b76103e83660046120ef565b6001600160a01b031660009081526002602052604090205490565b61033061041136600461214c565b610b2e565b610330610b44565b61033061042c366004611f57565b610b56565b6102b7600a5481565b6103306104483660046121cd565b610b6b565b610330610bc7565b6102b760095481565b60075461010090046001600160a01b03165b6040516001600160a01b039091168152602001610282565b610276610496366004612083565b610c6b565b6104706104a936600461225d565b610d0f565b6102766104bc36600461200b565b610d2e565b610293610d57565b6102b77fb774acb85c844ceba5af7a7d2c1ae87bec3d9ae928aa7bb14ad9ece203e2880e81565b6102b7600081565b610276610506366004611f57565b610d66565b610276610519366004611f57565b610de1565b61033061052c366004611f81565b610def565b6102b761053f366004611f81565b610e83565b6102b77f9f2df0fed2c77648de5860a4cc508cd0818c85b8b8a1ab4ceeef8d981c8956a681565b61033061057936600461200b565b610e9a565b61047061058c366004611f81565b6000908152600860205260409020546001600160a01b031690565b6102b76105b536600461227f565b610ebf565b6102b77f65d7a28e3265b37a6474929f336521b332c1681b933f6cb9f3376673440d862a81565b6103306105ef3660046120ef565b610eea565b60006001600160e01b03198216635a05180f60e01b1480610619575061061982610f60565b92915050565b60606005805461062e906122a9565b80601f016020809104026020016040519081016040528092919081815260200182805461065a906122a9565b80156106a75780601f1061067c576101008083540402835291602001916106a7565b820191906000526020600020905b81548152906001019060200180831161068a57829003601f168201915b5050505050905090565b6000336106bf818585610f95565b5060019392505050565b6008602052600090815260409020805460018201546002830180546001600160a01b039384169492909316926106fe906122a9565b80601f016020809104026020016040519081016040528092919081815260200182805461072a906122a9565b80156107775780601f1061074c57610100808354040283529160200191610777565b820191906000526020600020905b81548152906001019060200180831161075a57829003601f168201915b5050505050905083565b60003361078f8582856110b9565b61079a858585611133565b506001949350505050565b6000828152602081905260409020600101546107c0816112e9565b6107ca83836112f3565b505050565b6001600160a01b03811633146108445760405162461bcd60e51b815260206004820152602f60248201527f416363657373436f6e74726f6c3a2063616e206f6e6c792072656e6f756e636560448201526e103937b632b9903337b91039b2b63360891b60648201526084015b60405180910390fd5b61084e8282611315565b5050565b6000336106bf8185856108658383610ebf565b61086f91906122f9565b610f95565b61089e7f65d7a28e3265b37a6474929f336521b332c1681b933f6cb9f3376673440d862a33610d2e565b6109105760405162461bcd60e51b815260206004820152603960248201527f45524332305072657365744d696e7465725061757365723a206d75737420686160448201527f76652070617573657220726f6c6520746f20756e706175736500000000000000606482015260840161083b565b610918611337565b565b6109447f9f2df0fed2c77648de5860a4cc508cd0818c85b8b8a1ab4ceeef8d981c8956a633610d2e565b6109af5760405162461bcd60e51b815260206004820152603660248201527f45524332305072657365744d696e7465725061757365723a206d7573742068616044820152751d99481b5a5b9d195c881c9bdb19481d1bc81b5a5b9d60521b606482015260840161083b565b61084e8282611389565b6109c33382611456565b50565b6109f07fb44d7426a530550cf2ab54a0d6ac03f6a065bc4ad313020a85ff3b1d5aa4404e33610d2e565b610a0c5760405162461bcd60e51b815260040161083b9061230c565b828114610a5b5760405162461bcd60e51b815260206004820152601860248201527f496e707574206c656e67746873206d757374206d617463680000000000000000604482015260640161083b565b60005b83811015610b27576000858583818110610a7a57610a7a612369565b90506020020135905036848484818110610a9657610a96612369565b9050602002810190610aa8919061237f565b9050610b1282610abb60208401846120ef565b610ac8604085018561239f565b8080601f016020809104026020016040519081016040528093929190818152602001838380828437600092019190915250610b0d9250505060408601602087016120ef565b611596565b50508080610b1f906123e6565b915050610a5e565b5050505050565b610b3661164f565b610b27858585858533611695565b610b4c611861565b61091860006118c1565b610b618233836110b9565b61084e8282611456565b610b957fb44d7426a530550cf2ab54a0d6ac03f6a065bc4ad313020a85ff3b1d5aa4404e33610d2e565b610bb15760405162461bcd60e51b815260040161083b9061230c565b610bbf868686868686611695565b505050505050565b610bf17f65d7a28e3265b37a6474929f336521b332c1681b933f6cb9f3376673440d862a33610d2e565b610c635760405162461bcd60e51b815260206004820152603760248201527f45524332305072657365744d696e7465725061757365723a206d75737420686160448201527f76652070617573657220726f6c6520746f207061757365000000000000000000606482015260840161083b565b61091861191b565b6000805b84811015610d0157838382818110610c8957610c89612369565b9050602002016020810190610c9e91906120ef565b6001600160a01b031660086000888885818110610cbd57610cbd612369565b60209081029290920135835250810191909152604001600020546001600160a01b031614610cef576000915050610d07565b80610cf9816123e6565b915050610c6f565b50600190505b949350505050565b6000828152600160205260408120610d279083611958565b9392505050565b6000918252602082815260408084206001600160a01b0393909316845291905290205460ff1690565b60606006805461062e906122a9565b60003381610d748286610ebf565b905083811015610dd45760405162461bcd60e51b815260206004820152602560248201527f45524332303a2064656372656173656420616c6c6f77616e63652062656c6f77604482015264207a65726f60d81b606482015260840161083b565b61079a8286868403610f95565b6000336106bf818585611133565b610e197fb774acb85c844ceba5af7a7d2c1ae87bec3d9ae928aa7bb14ad9ece203e2880e33610d2e565b610e7e5760405162461bcd60e51b815260206004820152603060248201527f546978546f6b656e3a206d75737420686176652062616c616e63657220726f6c60448201526f6520746f20757064617465206665657360801b606482015260840161083b565b600955565b600081815260016020526040812061061990611964565b600082815260208190526040902060010154610eb5816112e9565b6107ca8383611315565b6001600160a01b03918216600090815260036020908152604080832093909416825291909152205490565b610ef2611861565b6001600160a01b038116610f575760405162461bcd60e51b815260206004820152602660248201527f4f776e61626c653a206e6577206f776e657220697320746865207a65726f206160448201526564647265737360d01b606482015260840161083b565b6109c3816118c1565b60006001600160e01b03198216637965db0b60e01b148061061957506301ffc9a760e01b6001600160e01b0319831614610619565b6001600160a01b038316610ff75760405162461bcd60e51b8152602060048201526024808201527f45524332303a20617070726f76652066726f6d20746865207a65726f206164646044820152637265737360e01b606482015260840161083b565b6001600160a01b0382166110585760405162461bcd60e51b815260206004820152602260248201527f45524332303a20617070726f766520746f20746865207a65726f206164647265604482015261737360f01b606482015260840161083b565b6001600160a01b0383811660008181526003602090815260408083209487168084529482529182902085905590518481527f8c5be1e5ebec7d5bd14f71427d1e84f3dd0314c0f7b2291e5b200ac8c7c3b925910160405180910390a3505050565b60006110c58484610ebf565b9050600019811461112d57818110156111205760405162461bcd60e51b815260206004820152601d60248201527f45524332303a20696e73756666696369656e7420616c6c6f77616e6365000000604482015260640161083b565b61112d8484848403610f95565b50505050565b6001600160a01b0383166111975760405162461bcd60e51b815260206004820152602560248201527f45524332303a207472616e736665722066726f6d20746865207a65726f206164604482015264647265737360d81b606482015260840161083b565b6001600160a01b0382166111f95760405162461bcd60e51b815260206004820152602360248201527f45524332303a207472616e7366657220746f20746865207a65726f206164647260448201526265737360e81b606482015260840161083b565b61120483838361196e565b6001600160a01b0383166000908152600260205260409020548181101561127c5760405162461bcd60e51b815260206004820152602660248201527f45524332303a207472616e7366657220616d6f756e7420657863656564732062604482015265616c616e636560d01b606482015260840161083b565b6001600160a01b0380851660008181526002602052604080822086860390559286168082529083902080548601905591517fddf252ad1be2c89b69c2b068fc378daa952ba7f163c4a11628f55a4df523b3ef906112dc9086815260200190565b60405180910390a361112d565b6109c38133611979565b6112fd82826119d2565b60008281526001602052604090206107ca9082611a56565b61131f8282611a6b565b60008281526001602052604090206107ca9082611ad0565b61133f611ae5565b6007805460ff191690557f5db9ee0a495bf2e6ff9c91a7834c1ba4fdd244a5e8aa4e537bd38aeae4b073aa335b6040516001600160a01b03909116815260200160405180910390a1565b6001600160a01b0382166113df5760405162461bcd60e51b815260206004820152601f60248201527f45524332303a206d696e7420746f20746865207a65726f206164647265737300604482015260640161083b565b6113eb6000838361196e565b80600460008282546113fd91906122f9565b90915550506001600160a01b0382166000818152600260209081526040808320805486019055518481527fddf252ad1be2c89b69c2b068fc378daa952ba7f163c4a11628f55a4df523b3ef910160405180910390a35050565b6001600160a01b0382166114b65760405162461bcd60e51b815260206004820152602160248201527f45524332303a206275726e2066726f6d20746865207a65726f206164647265736044820152607360f81b606482015260840161083b565b6114c28260008361196e565b6001600160a01b038216600090815260026020526040902054818110156115365760405162461bcd60e51b815260206004820152602260248201527f45524332303a206275726e20616d6f756e7420657863656564732062616c616e604482015261636560f01b606482015260840161083b565b6001600160a01b03831660008181526002602090815260408083208686039055600480548790039055518581529192917fddf252ad1be2c89b69c2b068fc378daa952ba7f163c4a11628f55a4df523b3ef910160405180910390a3505050565b604080516060810182526001600160a01b038086168252838116602080840191825283850187815260008a81526008909252949020835181549084166001600160a01b03199182161782559151600182018054919094169216919091179091559151909190600282019061160a908261245b565b509050507fbfe7d95aebe55e97e4d272d0e9b897df6b127618d4b02ae53b3393de5f52c8738484846040516116419392919061251b565b60405180910390a150505050565b60075460ff16156109185760405162461bcd60e51b815260206004820152601060248201526f14185d5cd8589b194e881c185d5cd95960821b604482015260640161083b565b60095415611742576009546001600160a01b038216600090815260026020526040902054101561171e5760405162461bcd60e51b815260206004820152602e60248201527f546978546f6b656e3a204e6f7420656e6f7567682054495820746f207265676960448201526d737465722061207365727669636560901b606482015260840161083b565b6117428161173a6007546001600160a01b036101009091041690565b600954611133565b60008686604051602001611757929190612545565b60408051601f198184030181529181528151602092830120600081815260089093529120600101549091506001600160a01b03168015806117a95750826001600160a01b0316816001600160a01b0316145b6118145760405162461bcd60e51b815260206004820152603660248201527f546978546f6b656e3a204f6e6c79206f776e65722063616e2075706461746520604482015275309039b2b93b34b1b2903932b3b4b9ba3930ba34b7b760511b606482015260840161083b565b611857828588888080601f016020809104026020016040519081016040528093929190818152602001838380828437600092019190915250899250611596915050565b5050505050505050565b6007546001600160a01b036101009091041633146109185760405162461bcd60e51b815260206004820181905260248201527f4f776e61626c653a2063616c6c6572206973206e6f7420746865206f776e6572604482015260640161083b565b600780546001600160a01b03838116610100818102610100600160a81b031985161790945560405193909204169182907f8be0079c531659141344cd1fd0a4f28419497f9722a3daafe3b4186f6b6457e090600090a35050565b61192361164f565b6007805460ff191660011790557f62e78cea01bee320cd4e420270b5ea74000d11b0c9f74754ebdbfc544b05a25861136c3390565b6000610d278383611b2e565b6000610619825490565b6107ca838383611b58565b6119838282610d2e565b61084e5761199081611bbe565b61199b836020611bd0565b6040516020016119ac929190612555565b60408051601f198184030181529082905262461bcd60e51b825261083b91600401611f28565b6119dc8282610d2e565b61084e576000828152602081815260408083206001600160a01b03851684529091529020805460ff19166001179055611a123390565b6001600160a01b0316816001600160a01b0316837f2f8788117e7eff1d82e926ec794901d17c78024a50270940304540a733656f0d60405160405180910390a45050565b6000610d27836001600160a01b038416611d6c565b611a758282610d2e565b1561084e576000828152602081815260408083206001600160a01b0385168085529252808320805460ff1916905551339285917ff6391f5c32d9c69d2a47ea670b442974b53935d1edc7fd64eb21e047a839171b9190a45050565b6000610d27836001600160a01b038416611dbb565b60075460ff166109185760405162461bcd60e51b815260206004820152601460248201527314185d5cd8589b194e881b9bdd081c185d5cd95960621b604482015260640161083b565b6000826000018281548110611b4557611b45612369565b9060005260206000200154905092915050565b60075460ff16156107ca5760405162461bcd60e51b815260206004820152602a60248201527f45524332305061757361626c653a20746f6b656e207472616e736665722077686044820152691a5b19481c185d5cd95960b21b606482015260840161083b565b60606106196001600160a01b03831660145b60606000611bdf8360026125ca565b611bea9060026122f9565b67ffffffffffffffff811115611c0257611c026123ff565b6040519080825280601f01601f191660200182016040528015611c2c576020820181803683370190505b509050600360fc1b81600081518110611c4757611c47612369565b60200101906001600160f81b031916908160001a905350600f60fb1b81600181518110611c7657611c76612369565b60200101906001600160f81b031916908160001a9053506000611c9a8460026125ca565b611ca59060016122f9565b90505b6001811115611d1d576f181899199a1a9b1b9c1cb0b131b232b360811b85600f1660108110611cd957611cd9612369565b1a60f81b828281518110611cef57611cef612369565b60200101906001600160f81b031916908160001a90535060049490941c93611d16816125e1565b9050611ca8565b508315610d275760405162461bcd60e51b815260206004820181905260248201527f537472696e67733a20686578206c656e67746820696e73756666696369656e74604482015260640161083b565b6000818152600183016020526040812054611db357508154600181810184556000848152602080822090930184905584548482528286019093526040902091909155610619565b506000610619565b60008181526001830160205260408120548015611ea4576000611ddf6001836125f8565b8554909150600090611df3906001906125f8565b9050818114611e58576000866000018281548110611e1357611e13612369565b9060005260206000200154905080876000018481548110611e3657611e36612369565b6000918252602080832090910192909255918252600188019052604090208390555b8554869080611e6957611e6961260b565b600190038181906000526020600020016000905590558560010160008681526020019081526020016000206000905560019350505050610619565b6000915050610619565b600060208284031215611ec057600080fd5b81356001600160e01b031981168114610d2757600080fd5b60005b83811015611ef3578181015183820152602001611edb565b50506000910152565b60008151808452611f14816020860160208601611ed8565b601f01601f19169290920160200192915050565b602081526000610d276020830184611efc565b80356001600160a01b0381168114611f5257600080fd5b919050565b60008060408385031215611f6a57600080fd5b611f7383611f3b565b946020939093013593505050565b600060208284031215611f9357600080fd5b5035919050565b6001600160a01b03848116825283166020820152606060408201819052600090611fc690830184611efc565b95945050505050565b600080600060608486031215611fe457600080fd5b611fed84611f3b565b9250611ffb60208501611f3b565b9150604084013590509250925092565b6000806040838503121561201e57600080fd5b8235915061202e60208401611f3b565b90509250929050565b60008083601f84011261204957600080fd5b50813567ffffffffffffffff81111561206157600080fd5b6020830191508360208260051b850101111561207c57600080fd5b9250929050565b6000806000806040858703121561209957600080fd5b843567ffffffffffffffff808211156120b157600080fd5b6120bd88838901612037565b909650945060208701359150808211156120d657600080fd5b506120e387828801612037565b95989497509550505050565b60006020828403121561210157600080fd5b610d2782611f3b565b60008083601f84011261211c57600080fd5b50813567ffffffffffffffff81111561213457600080fd5b60208301915083602082850101111561207c57600080fd5b60008060008060006060868803121561216457600080fd5b853567ffffffffffffffff8082111561217c57600080fd5b61218889838a0161210a565b909750955060208801359150808211156121a157600080fd5b506121ae8882890161210a565b90945092506121c1905060408701611f3b565b90509295509295909350565b600080600080600080608087890312156121e657600080fd5b863567ffffffffffffffff808211156121fe57600080fd5b61220a8a838b0161210a565b9098509650602089013591508082111561222357600080fd5b5061223089828a0161210a565b9095509350612243905060408801611f3b565b915061225160608801611f3b565b90509295509295509295565b6000806040838503121561227057600080fd5b50508035926020909101359150565b6000806040838503121561229257600080fd5b61229b83611f3b565b915061202e60208401611f3b565b600181811c908216806122bd57607f821691505b6020821081036122dd57634e487b7160e01b600052602260045260246000fd5b50919050565b634e487b7160e01b600052601160045260246000fd5b80820180821115610619576106196122e3565b6020808252603c908201527f546978546f6b656e3a206d7573742068617665207365727669636520776f726b60408201527f657220726f6c6520746f20726567697374657220736572766963657300000000606082015260800190565b634e487b7160e01b600052603260045260246000fd5b60008235605e1983360301811261239557600080fd5b9190910192915050565b6000808335601e198436030181126123b657600080fd5b83018035915067ffffffffffffffff8211156123d157600080fd5b60200191503681900382131561207c57600080fd5b6000600182016123f8576123f86122e3565b5060010190565b634e487b7160e01b600052604160045260246000fd5b601f8211156107ca57600081815260208120601f850160051c8101602086101561243c5750805b601f850160051c820191505b81811015610bbf57828155600101612448565b815167ffffffffffffffff811115612475576124756123ff565b6124898161248384546122a9565b84612415565b602080601f8311600181146124be57600084156124a65750858301515b600019600386901b1c1916600185901b178555610bbf565b600085815260208120601f198616915b828110156124ed578886015182559484019460019091019084016124ce565b508582101561250b5787850151600019600388901b60f8161c191681555b5050505050600190811b01905550565b8381526001600160a01b0383166020820152606060408201819052600090611fc690830184611efc565b8183823760009101908152919050565b7f416363657373436f6e74726f6c3a206163636f756e742000000000000000000081526000835161258d816017850160208801611ed8565b7001034b99036b4b9b9b4b733903937b6329607d1b60179184019182015283516125be816028840160208801611ed8565b01602801949350505050565b8082028115828204841417610619576106196122e3565b6000816125f0576125f06122e3565b506000190190565b81810381811115610619576106196122e3565b634e487b7160e01b600052603160045260246000fdfea2646970667358221220407349fff83ec5e7948d19ab099515349846af492d4c970e851c1813b0ed479364736f6c63430008130033",
    "sourcePath": "c:/Projects/Toolblox.Audit/Toolblox.Token/Contracts/TixToken.sol",
    "compiler": {
        "name": "solc",
        "version": "0.8.19+commit.7dd6d404"
    },
    "functionHashes": {
        "BALANCER()": "96f50b2d",
        "DEFAULT_ADMIN_ROLE()": "a217fddf",
        "MINTER_ROLE()": "d5391393",
        "PAUSER_ROLE()": "e63ab1e9",
        "SERVICE_WORKER()": "5316a58d",
        "_counter()": "7cd49fde",
        "_registrationTransferAmount()": "88f93b0a",
        "allowance(address,address)": "dd62ed3e",
        "approve(address,uint256)": "095ea7b3",
        "areServicesRegistered(bytes32[],address[])": "8fbf45d3",
        "balanceOf(address)": "70a08231",
        "burn(uint256)": "42966c68",
        "burnFrom(address,uint256)": "79cc6790",
        "decimals()": "313ce567",
        "decreaseAllowance(address,uint256)": "a457c2d7",
        "getRoleAdmin(bytes32)": "248a9ca3",
        "getRoleMember(bytes32,uint256)": "9010d07c",
        "getRoleMemberCount(bytes32)": "ca15c873",
        "getService(bytes32)": "da47d856",
        "grantRole(bytes32,address)": "2f2ff15d",
        "hasRole(bytes32,address)": "91d14854",
        "increaseAllowance(address,uint256)": "39509351",
        "mint(address,uint256)": "40c10f19",
        "name()": "06fdde03",
        "owner()": "8da5cb5b",
        "pause()": "8456cb59",
        "paused()": "5c975abb",
        "registerService(string,string,address)": "712be7c1",
        "registerService(string,string,address,address)": "8386cdd9",
        "registerServices(bytes32[],(address,address,string)[])": "5183d6ee",
        "renounceOwnership()": "715018a6",
        "renounceRole(bytes32,address)": "36568abe",
        "repository(bytes32)": "187f7935",
        "revokeRole(bytes32,address)": "d547741f",
        "setRegistrationFee(uint256)": "c320c727",
        "supportsInterface(bytes4)": "01ffc9a7",
        "symbol()": "95d89b41",
        "totalSupply()": "18160ddd",
        "transfer(address,uint256)": "a9059cbb",
        "transferFrom(address,address,uint256)": "23b872dd",
        "transferOwnership(address)": "f2fde38b",
        "unpause()": "3f4ba83a"
    },
    "gasEstimates": {
        "creation": {
            "codeDepositCost": "1963000",
            "executionCost": "infinite",
            "totalCost": "infinite"
        },
        "external": {
            "BALANCER()": "328",
            "DEFAULT_ADMIN_ROLE()": "240",
            "MINTER_ROLE()": "239",
            "PAUSER_ROLE()": "327",
            "SERVICE_WORKER()": "240",
            "_counter()": "2341",
            "_registrationTransferAmount()": "2407",
            "allowance(address,address)": "infinite",
            "approve(address,uint256)": "24681",
            "areServicesRegistered(bytes32[],address[])": "infinite",
            "balanceOf(address)": "2626",
            "burn(uint256)": "infinite",
            "burnFrom(address,uint256)": "infinite",
            "decimals()": "289",
            "decreaseAllowance(address,uint256)": "27006",
            "getRoleAdmin(bytes32)": "2515",
            "getRoleMember(bytes32,uint256)": "infinite",
            "getRoleMemberCount(bytes32)": "infinite",
            "getService(bytes32)": "2565",
            "grantRole(bytes32,address)": "infinite",
            "hasRole(bytes32,address)": "2740",
            "increaseAllowance(address,uint256)": "27018",
            "mint(address,uint256)": "infinite",
            "name()": "infinite",
            "owner()": "2465",
            "pause()": "infinite",
            "paused()": "2360",
            "registerService(string,string,address)": "infinite",
            "registerService(string,string,address,address)": "infinite",
            "registerServices(bytes32[],(address,address,string)[])": "infinite",
            "renounceOwnership()": "infinite",
            "renounceRole(bytes32,address)": "infinite",
            "repository(bytes32)": "infinite",
            "revokeRole(bytes32,address)": "infinite",
            "setRegistrationFee(uint256)": "24749",
            "supportsInterface(bytes4)": "infinite",
            "symbol()": "infinite",
            "totalSupply()": "2394",
            "transfer(address,uint256)": "infinite",
            "transferFrom(address,address,uint256)": "infinite",
            "transferOwnership(address)": "28523",
            "unpause()": "infinite"
        },
        "internal": {
            "_registerService(bytes32,address,string memory,address)": "infinite",
            "_transferAndRegisterService(string calldata,string calldata,address,address)": "infinite"
        }
    }
}