{
    "contractName": "WorkflowBaseMock",
    "abi": [
        {
            "anonymous": false,
            "inputs": [
                {
                    "indexed": false,
                    "internalType": "uint256",
                    "name": "_id",
                    "type": "uint256"
                },
                {
                    "indexed": false,
                    "internalType": "uint64",
                    "name": "_status",
                    "type": "uint64"
                }
            ],
            "name": "ItemUpdated",
            "type": "event"
        },
        {
            "inputs": [
                {
                    "internalType": "uint256",
                    "name": "num",
                    "type": "uint256"
                }
            ],
            "name": "addItems",
            "outputs": [],
            "stateMutability": "nonpayable",
            "type": "function"
        },
        {
            "inputs": [
                {
                    "internalType": "uint256",
                    "name": "cnt",
                    "type": "uint256"
                }
            ],
            "name": "getLatestIds",
            "outputs": [
                {
                    "internalType": "uint256[]",
                    "name": "",
                    "type": "uint256[]"
                }
            ],
            "stateMutability": "view",
            "type": "function"
        },
        {
            "inputs": [
                {
                    "internalType": "uint256",
                    "name": "cursor",
                    "type": "uint256"
                },
                {
                    "internalType": "uint256",
                    "name": "howMany",
                    "type": "uint256"
                }
            ],
            "name": "getPageIds",
            "outputs": [
                {
                    "internalType": "uint256[]",
                    "name": "",
                    "type": "uint256[]"
                }
            ],
            "stateMutability": "view",
            "type": "function"
        }
    ],
    "bytecode": "60806040526000805534801561001457600080fd5b506103b0806100246000396000f3fe608060405234801561001057600080fd5b50600436106100415760003560e01c806306889aa81461004657806359f719f51461006f578063d7c116f914610082575b600080fd5b61005961005436600461027a565b610097565b604051610066919061029c565b60405180910390f35b61005961007d3660046102e0565b610141565b6100956100903660046102e0565b610234565b005b606060008267ffffffffffffffff8111156100b4576100b46102f9565b6040519080825280602002602001820160405280156100dd578160200160208202803683370190505b50905060005b60005485111580156100f457508381105b15610137578482828151811061010c5761010c61030f565b6020908102919091010152806101218161033b565b915050848061012f9061033b565b9550506100e3565b5090505b92915050565b600080546060918184101561015d5761015a8483610354565b90505b81811180610169575081155b1561018557505060408051600081526020810190915292915050565b60006101918284610354565b67ffffffffffffffff8111156101a9576101a96102f9565b6040519080825280602002602001820160405280156101d2578160200160208202803683370190505b5090506000825b84811015610229576101ec816001610367565b8383815181106101fe576101fe61030f565b6020908102919091010152816102138161033b565b92505080806102219061033b565b9150506101d9565b509095945050505050565b60005b8181101561025a5761024761025e565b50806102528161033b565b915050610237565b5050565b60008054818061026d8361033b565b9190505550600054905090565b6000806040838503121561028d57600080fd5b50508035926020909101359150565b6020808252825182820181905260009190848201906040850190845b818110156102d4578351835292840192918401916001016102b8565b50909695505050505050565b6000602082840312156102f257600080fd5b5035919050565b634e487b7160e01b600052604160045260246000fd5b634e487b7160e01b600052603260045260246000fd5b634e487b7160e01b600052601160045260246000fd5b60006001820161034d5761034d610325565b5060010190565b8181038181111561013b5761013b610325565b8082018082111561013b5761013b61032556fea2646970667358221220c73d3af7126e94813c07da54ef3a5e21be9f6d638338933fb551aad94125a23e64736f6c63430008130033",
    "sourcePath": "c:/Projects/Toolblox.Audit/Toolblox.Token/Contracts/Mocks/WorkflowBaseMock.sol",
    "compiler": {
        "name": "solc",
        "version": "0.8.19+commit.7dd6d404"
    },
    "functionHashes": {
        "addItems(uint256)": "d7c116f9",
        "getLatestIds(uint256)": "59f719f5",
        "getPageIds(uint256,uint256)": "06889aa8"
    },
    "gasEstimates": {
        "creation": {
            "codeDepositCost": "188800",
            "executionCost": "5238",
            "totalCost": "194038"
        },
        "external": {
            "addItems(uint256)": "infinite",
            "getLatestIds(uint256)": "infinite",
            "getPageIds(uint256,uint256)": "infinite"
        }
    }
}