{
    "contractName": "RentalWorkflow",
    "abi": [
        {
            "inputs": [],
            "stateMutability": "nonpayable",
            "type": "constructor"
        },
        {
            "anonymous": false,
            "inputs": [
                {
                    "indexed": false,
                    "internalType": "uint256",
                    "name": "_id",
                    "type": "uint256"
                },
                {
                    "indexed": false,
                    "internalType": "uint64",
                    "name": "_status",
                    "type": "uint64"
                }
            ],
            "name": "ItemUpdated",
            "type": "event"
        },
        {
            "anonymous": false,
            "inputs": [
                {
                    "indexed": true,
                    "internalType": "address",
                    "name": "previousOwner",
                    "type": "address"
                },
                {
                    "indexed": true,
                    "internalType": "address",
                    "name": "newOwner",
                    "type": "address"
                }
            ],
            "name": "OwnershipTransferred",
            "type": "event"
        },
        {
            "anonymous": false,
            "inputs": [
                {
                    "indexed": false,
                    "internalType": "address",
                    "name": "account",
                    "type": "address"
                }
            ],
            "name": "Paused",
            "type": "event"
        },
        {
            "anonymous": false,
            "inputs": [
                {
                    "indexed": false,
                    "internalType": "address",
                    "name": "account",
                    "type": "address"
                }
            ],
            "name": "Unpaused",
            "type": "event"
        },
        {
            "inputs": [
                {
                    "internalType": "uint256",
                    "name": "id",
                    "type": "uint256"
                }
            ],
            "name": "charge",
            "outputs": [
                {
                    "internalType": "uint256",
                    "name": "",
                    "type": "uint256"
                }
            ],
            "stateMutability": "nonpayable",
            "type": "function"
        },
        {
            "inputs": [
                {
                    "internalType": "uint256",
                    "name": "id",
                    "type": "uint256"
                }
            ],
            "name": "chargeWithCollateral",
            "outputs": [
                {
                    "internalType": "uint256",
                    "name": "",
                    "type": "uint256"
                }
            ],
            "stateMutability": "nonpayable",
            "type": "function"
        },
        {
            "inputs": [
                {
                    "internalType": "uint256",
                    "name": "id",
                    "type": "uint256"
                }
            ],
            "name": "endAndSettle",
            "outputs": [
                {
                    "internalType": "uint256",
                    "name": "",
                    "type": "uint256"
                }
            ],
            "stateMutability": "nonpayable",
            "type": "function"
        },
        {
            "inputs": [
                {
                    "internalType": "uint256",
                    "name": "id",
                    "type": "uint256"
                }
            ],
            "name": "endRental",
            "outputs": [
                {
                    "internalType": "uint256",
                    "name": "",
                    "type": "uint256"
                }
            ],
            "stateMutability": "nonpayable",
            "type": "function"
        },
        {
            "inputs": [
                {
                    "internalType": "uint256",
                    "name": "id",
                    "type": "uint256"
                },
                {
                    "internalType": "uint256",
                    "name": "chargeAmount",
                    "type": "uint256"
                }
            ],
            "name": "finalCharge",
            "outputs": [
                {
                    "internalType": "uint256",
                    "name": "",
                    "type": "uint256"
                }
            ],
            "stateMutability": "nonpayable",
            "type": "function"
        },
        {
            "inputs": [
                {
                    "internalType": "uint256",
                    "name": "id",
                    "type": "uint256"
                }
            ],
            "name": "getItem",
            "outputs": [
                {
                    "components": [
                        {
                            "internalType": "uint256",
                            "name": "id",
                            "type": "uint256"
                        },
                        {
                            "internalType": "string",
                            "name": "name",
                            "type": "string"
                        },
                        {
                            "internalType": "address",
                            "name": "renter",
                            "type": "address"
                        },
                        {
                            "internalType": "uint256",
                            "name": "startTime",
                            "type": "uint256"
                        },
                        {
                            "internalType": "uint256",
                            "name": "pricePerDay",
                            "type": "uint256"
                        },
                        {
                            "internalType": "uint256",
                            "name": "daysCharged",
                            "type": "uint256"
                        },
                        {
                            "internalType": "uint256",
                            "name": "collateral",
                            "type": "uint256"
                        },
                        {
                            "internalType": "uint256",
                            "name": "leftoverCharge",
                            "type": "uint256"
                        },
                        {
                            "internalType": "uint64",
                            "name": "numberOfDays",
                            "type": "uint64"
                        },
                        {
                            "internalType": "uint64",
                            "name": "status",
                            "type": "uint64"
                        }
                    ],
                    "internalType": "struct RentalWorkflow.Rental",
                    "name": "",
                    "type": "tuple"
                }
            ],
            "stateMutability": "view",
            "type": "function"
        },
        {
            "inputs": [
                {
                    "internalType": "uint256",
                    "name": "cnt",
                    "type": "uint256"
                }
            ],
            "name": "getLatest",
            "outputs": [
                {
                    "components": [
                        {
                            "internalType": "uint256",
                            "name": "id",
                            "type": "uint256"
                        },
                        {
                            "internalType": "string",
                            "name": "name",
                            "type": "string"
                        },
                        {
                            "internalType": "address",
                            "name": "renter",
                            "type": "address"
                        },
                        {
                            "internalType": "uint256",
                            "name": "startTime",
                            "type": "uint256"
                        },
                        {
                            "internalType": "uint256",
                            "name": "pricePerDay",
                            "type": "uint256"
                        },
                        {
                            "internalType": "uint256",
                            "name": "daysCharged",
                            "type": "uint256"
                        },
                        {
                            "internalType": "uint256",
                            "name": "collateral",
                            "type": "uint256"
                        },
                        {
                            "internalType": "uint256",
                            "name": "leftoverCharge",
                            "type": "uint256"
                        },
                        {
                            "internalType": "uint64",
                            "name": "numberOfDays",
                            "type": "uint64"
                        },
                        {
                            "internalType": "uint64",
                            "name": "status",
                            "type": "uint64"
                        }
                    ],
                    "internalType": "struct RentalWorkflow.Rental[]",
                    "name": "",
                    "type": "tuple[]"
                }
            ],
            "stateMutability": "view",
            "type": "function"
        },
        {
            "inputs": [
                {
                    "internalType": "uint256",
                    "name": "cnt",
                    "type": "uint256"
                }
            ],
            "name": "getLatestIds",
            "outputs": [
                {
                    "internalType": "uint256[]",
                    "name": "",
                    "type": "uint256[]"
                }
            ],
            "stateMutability": "view",
            "type": "function"
        },
        {
            "inputs": [
                {
                    "internalType": "uint256",
                    "name": "cursor",
                    "type": "uint256"
                },
                {
                    "internalType": "uint256",
                    "name": "howMany",
                    "type": "uint256"
                }
            ],
            "name": "getPage",
            "outputs": [
                {
                    "components": [
                        {
                            "internalType": "uint256",
                            "name": "id",
                            "type": "uint256"
                        },
                        {
                            "internalType": "string",
                            "name": "name",
                            "type": "string"
                        },
                        {
                            "internalType": "address",
                            "name": "renter",
                            "type": "address"
                        },
                        {
                            "internalType": "uint256",
                            "name": "startTime",
                            "type": "uint256"
                        },
                        {
                            "internalType": "uint256",
                            "name": "pricePerDay",
                            "type": "uint256"
                        },
                        {
                            "internalType": "uint256",
                            "name": "daysCharged",
                            "type": "uint256"
                        },
                        {
                            "internalType": "uint256",
                            "name": "collateral",
                            "type": "uint256"
                        },
                        {
                            "internalType": "uint256",
                            "name": "leftoverCharge",
                            "type": "uint256"
                        },
                        {
                            "internalType": "uint64",
                            "name": "numberOfDays",
                            "type": "uint64"
                        },
                        {
                            "internalType": "uint64",
                            "name": "status",
                            "type": "uint64"
                        }
                    ],
                    "internalType": "struct RentalWorkflow.Rental[]",
                    "name": "",
                    "type": "tuple[]"
                }
            ],
            "stateMutability": "view",
            "type": "function"
        },
        {
            "inputs": [
                {
                    "internalType": "uint256",
                    "name": "cursor",
                    "type": "uint256"
                },
                {
                    "internalType": "uint256",
                    "name": "howMany",
                    "type": "uint256"
                }
            ],
            "name": "getPageIds",
            "outputs": [
                {
                    "internalType": "uint256[]",
                    "name": "",
                    "type": "uint256[]"
                }
            ],
            "stateMutability": "view",
            "type": "function"
        },
        {
            "inputs": [
                {
                    "internalType": "uint256",
                    "name": "",
                    "type": "uint256"
                }
            ],
            "name": "items",
            "outputs": [
                {
                    "internalType": "uint256",
                    "name": "id",
                    "type": "uint256"
                },
                {
                    "internalType": "string",
                    "name": "name",
                    "type": "string"
                },
                {
                    "internalType": "address",
                    "name": "renter",
                    "type": "address"
                },
                {
                    "internalType": "uint256",
                    "name": "startTime",
                    "type": "uint256"
                },
                {
                    "internalType": "uint256",
                    "name": "pricePerDay",
                    "type": "uint256"
                },
                {
                    "internalType": "uint256",
                    "name": "daysCharged",
                    "type": "uint256"
                },
                {
                    "internalType": "uint256",
                    "name": "collateral",
                    "type": "uint256"
                },
                {
                    "internalType": "uint256",
                    "name": "leftoverCharge",
                    "type": "uint256"
                },
                {
                    "internalType": "uint64",
                    "name": "numberOfDays",
                    "type": "uint64"
                },
                {
                    "internalType": "uint64",
                    "name": "status",
                    "type": "uint64"
                }
            ],
            "stateMutability": "view",
            "type": "function"
        },
        {
            "inputs": [
                {
                    "internalType": "uint256",
                    "name": "id",
                    "type": "uint256"
                },
                {
                    "internalType": "string",
                    "name": "name",
                    "type": "string"
                },
                {
                    "internalType": "uint256",
                    "name": "collateral",
                    "type": "uint256"
                },
                {
                    "internalType": "uint256",
                    "name": "pricePerDay",
                    "type": "uint256"
                }
            ],
            "name": "makeAvailable",
            "outputs": [
                {
                    "internalType": "uint256",
                    "name": "",
                    "type": "uint256"
                }
            ],
            "stateMutability": "nonpayable",
            "type": "function"
        },
        {
            "inputs": [],
            "name": "owner",
            "outputs": [
                {
                    "internalType": "address",
                    "name": "",
                    "type": "address"
                }
            ],
            "stateMutability": "view",
            "type": "function"
        },
        {
            "inputs": [],
            "name": "pause",
            "outputs": [],
            "stateMutability": "nonpayable",
            "type": "function"
        },
        {
            "inputs": [],
            "name": "paused",
            "outputs": [
                {
                    "internalType": "bool",
                    "name": "",
                    "type": "bool"
                }
            ],
            "stateMutability": "view",
            "type": "function"
        },
        {
            "inputs": [
                {
                    "internalType": "string",
                    "name": "name",
                    "type": "string"
                },
                {
                    "internalType": "uint256",
                    "name": "collateral",
                    "type": "uint256"
                },
                {
                    "internalType": "uint256",
                    "name": "pricePerDay",
                    "type": "uint256"
                }
            ],
            "name": "registerItem",
            "outputs": [
                {
                    "internalType": "uint256",
                    "name": "",
                    "type": "uint256"
                }
            ],
            "stateMutability": "nonpayable",
            "type": "function"
        },
        {
            "inputs": [
                {
                    "internalType": "uint256",
                    "name": "id",
                    "type": "uint256"
                },
                {
                    "internalType": "uint256",
                    "name": "chargeAmount",
                    "type": "uint256"
                },
                {
                    "internalType": "string",
                    "name": "",
                    "type": "string"
                }
            ],
            "name": "releaseCollateral",
            "outputs": [
                {
                    "internalType": "uint256",
                    "name": "",
                    "type": "uint256"
                }
            ],
            "stateMutability": "nonpayable",
            "type": "function"
        },
        {
            "inputs": [],
            "name": "renounceOwnership",
            "outputs": [],
            "stateMutability": "nonpayable",
            "type": "function"
        },
        {
            "inputs": [
                {
                    "internalType": "address",
                    "name": "_newOwner",
                    "type": "address"
                }
            ],
            "name": "setOwner",
            "outputs": [],
            "stateMutability": "nonpayable",
            "type": "function"
        },
        {
            "inputs": [
                {
                    "internalType": "uint256",
                    "name": "id",
                    "type": "uint256"
                },
                {
                    "internalType": "uint64",
                    "name": "numberOfDays",
                    "type": "uint64"
                },
                {
                    "internalType": "uint256",
                    "name": "allowance",
                    "type": "uint256"
                }
            ],
            "name": "startRent",
            "outputs": [
                {
                    "internalType": "uint256",
                    "name": "",
                    "type": "uint256"
                }
            ],
            "stateMutability": "nonpayable",
            "type": "function"
        },
        {
            "inputs": [],
            "name": "token",
            "outputs": [
                {
                    "internalType": "address",
                    "name": "",
                    "type": "address"
                }
            ],
            "stateMutability": "view",
            "type": "function"
        },
        {
            "inputs": [
                {
                    "internalType": "address",
                    "name": "newOwner",
                    "type": "address"
                }
            ],
            "name": "transferOwnership",
            "outputs": [],
            "stateMutability": "nonpayable",
            "type": "function"
        },
        {
            "inputs": [],
            "name": "unpause",
            "outputs": [],
            "stateMutability": "nonpayable",
            "type": "function"
        },
        {
            "inputs": [
                {
                    "internalType": "uint256",
                    "name": "id",
                    "type": "uint256"
                },
                {
                    "internalType": "string",
                    "name": "name",
                    "type": "string"
                },
                {
                    "internalType": "uint256",
                    "name": "collateral",
                    "type": "uint256"
                },
                {
                    "internalType": "uint256",
                    "name": "pricePerDay",
                    "type": "uint256"
                }
            ],
            "name": "update",
            "outputs": [
                {
                    "internalType": "uint256",
                    "name": "",
                    "type": "uint256"
                }
            ],
            "stateMutability": "nonpayable",
            "type": "function"
        }
    ],
    "bytecode": "608060405260008055600680546001600160a01b03191673fe4f5145f6e09952a5ba9e956ed0c25e3fa4c7f11790553480156200003b57600080fd5b50620000473362000067565b60016003556004805460ff19169055620000613362000067565b620000b9565b600280546001600160a01b038381166001600160a01b0319831681179093556040519116919082907f8be0079c531659141344cd1fd0a4f28419497f9722a3daafe3b4186f6b6457e090600090a35050565b612bf580620000c96000396000f3fe608060405234801561001057600080fd5b50600436106101585760003560e01c8063806a0faf116100c3578063bfb231d21161007c578063bfb231d2146102e7578063cbd44ec414610310578063cd1a2e9114610323578063e457e1e514610336578063f2fde38b14610349578063fc0c546a1461035c57600080fd5b8063806a0faf1461026e5780638456cb59146102815780638da5cb5b1461028957806397491d6f146102ae578063a7c6309b146102c1578063abeb0b7e146102d457600080fd5b806359f719f51161011557806359f719f5146102045780635adc0246146102175780635c975abb1461022a578063615704c41461024057806367bc080c14610253578063715018a61461026657600080fd5b806306889aa81461015d57806313af4035146101865780633129e7731461019b57806333495dd3146101bb578063393bef2b146101db5780633f4ba83a146101fc575b600080fd5b61017061016b366004612525565b61036f565b60405161017d9190612547565b60405180910390f35b61019961019436600461258b565b610418565b005b6101ae6101a93660046125b4565b610424565b60405161017d91906126c7565b6101ce6101c93660046125b4565b6105ab565b60405161017d91906126da565b6101ee6101e9366004612525565b610795565b60405190815260200161017d565b6101996109a7565b6101706102123660046125b4565b6109b9565b6101ee610225366004612784565b610aaf565b60045460ff16604051901515815260200161017d565b6101ee61024e3660046125b4565b610c27565b6101ee6102613660046127e1565b610ef2565b6101996110c0565b6101ee61027c366004612784565b6110d2565b61019961119e565b6002546001600160a01b03165b6040516001600160a01b03909116815260200161017d565b6101ee6102bc3660046125b4565b6111ae565b6101ee6102cf366004612833565b611430565b6101ee6102e23660046125b4565b611664565b6102fa6102f53660046125b4565b6117f5565b60405161017d9a99989796959493929190612883565b6101ee61031e3660046128f4565b6118e4565b6101ce610331366004612525565b611ac1565b6101ee6103443660046125b4565b611ca4565b61019961035736600461258b565b611eab565b600654610296906001600160a01b031681565b60606000826001600160401b0381111561038b5761038b612938565b6040519080825280602002602001820160405280156103b4578160200160208202803683370190505b50905060005b60005485111580156103cb57508381105b1561040e57848282815181106103e3576103e361294e565b6020908102919091010152806103f88161297a565b91505084806104069061297a565b9550506103ba565b5090505b92915050565b61042181611eab565b50565b61042c6124b7565b600060056000848152602001908152602001600020604051806101400160405290816000820154815260200160018201805461046790612993565b80601f016020809104026020016040519081016040528092919081815260200182805461049390612993565b80156104e05780601f106104b5576101008083540402835291602001916104e0565b820191906000526020600020905b8154815290600101906020018083116104c357829003601f168201915b505050918352505060028201546001600160a01b03166020820152600382015460408201526004820154606082015260058201546080820152600682015460a0820152600782015460c08201526008909101546001600160401b0380821660e0840152600160401b9091041661010090910152805190915083146104125760405162461bcd60e51b815260206004820152601e60248201527f43616e6e6f742066696e64206974656d207769746820676976656e206964000060448201526064015b60405180910390fd5b606060006105b8836109b9565b9050600081516001600160401b038111156105d5576105d5612938565b60405190808252806020026020018201604052801561060e57816020015b6105fb6124b7565b8152602001906001900390816105f35790505b50905060005b825181101561078d57600560008483815181106106335761063361294e565b60200260200101518152602001908152602001600020604051806101400160405290816000820154815260200160018201805461066f90612993565b80601f016020809104026020016040519081016040528092919081815260200182805461069b90612993565b80156106e85780601f106106bd576101008083540402835291602001916106e8565b820191906000526020600020905b8154815290600101906020018083116106cb57829003601f168201915b505050918352505060028201546001600160a01b03166020820152600382015460408201526004820154606082015260058201546080820152600682015460a0820152600782015460c08201526008909101546001600160401b0380821660e0840152600160401b9091041661010090910152825183908390811061076f5761076f61294e565b602002602001018190525080806107859061297a565b915050610614565b509392505050565b600061079f611f21565b6107a7611f7b565b6107af611fc1565b60006107ba84610424565b90506107c781600261201a565b8060e0015183111561081b5760405162461bcd60e51b815260206004820181905260248201527f43616e6e6f7420636861726765206d6f7265207468616e206c6566746f76657260448201526064016105a2565b8060e00151831461082d576002610830565b60045b60ff166101208201526000848152600560209081526040909120825181559082015182919060018201906108649082612a18565b506040828101516002830180546001600160a01b039092166001600160a01b0319909216919091179055606083015160038301556080830151600483015560a0830151600583015560c0830151600683015560e0830151600783015561010083015160089092018054610120948501516001600160401b03908116600160401b026001600160801b03199092169481169490941717905591830151825187815291166020820152600080516020612ba0833981519152910160405180910390a160006109386002546001600160a01b031690565b6001600160a01b03161415801561095b575060408101516001600160a01b031615155b80156109675750600083115b1561099a57600654604082015161099a916001600160a01b0316906109946002546001600160a01b031690565b8661209a565b5050600160035581610412565b6109af611f21565b6109b76121d8565b565b60008054606091818410156109d5576109d28483612ad7565b90505b818111806109e1575081155b15610a015760408051600080825260208201909252905b50949350505050565b6000610a0d8284612ad7565b6001600160401b03811115610a2457610a24612938565b604051908082528060200260200182016040528015610a4d578160200160208202803683370190505b5090506000825b84811015610aa457610a67816001612aea565b838381518110610a7957610a7961294e565b602090810291909101015281610a8e8161297a565b9250508080610a9c9061297a565b915050610a54565b509095945050505050565b6000610ab9611f21565b610ac1611f7b565b610ac9611fc1565b6000610ad487610424565b9050610ae181600361201a565b85858080601f0160208091040260200160405190810160405280939291908181526020018383808284376000920182905250602080870195865260c087018a90526080870189905260036101208801528c8252600590526040902085518155935185949350600184019250610b57915082612a18565b506040828101516002830180546001600160a01b039092166001600160a01b0319909216919091179055606083015160038301556080830151600483015560a0830151600583015560c0830151600683015560e0830151600783015561010083015160089092018054610120948501516001600160401b03908116600160401b026001600160801b0319909216948116949094171790559183015182518a815291166020820152600080516020612ba0833981519152910160405180910390a15050600160035550929392505050565b6000610c31611f21565b610c39611f7b565b610c41611fc1565b6000610c4c83610424565b9050610c5981600161201a565b600081608001518260a001518361010001516001600160401b0316610c7e9190612ad7565b610c889190612afd565b905060008261010001516018610c9e9190612b14565b610ca990603c612b14565b610cb490603c612b14565b6001600160401b03168360600151610ccc9190612aea565b9050804211610cdc576000610d18565b603c8060188560800151610cf09190612b3f565b610cfa9190612b3f565b610d049190612b3f565b610d0e4283612ad7565b610d189190612afd565b610d229083612aea565b60e084015260056101208401819052600086815260209182526040902084518155908401518491906001820190610d599082612a18565b506040828101516002830180546001600160a01b039092166001600160a01b0319909216919091179055606083015160038301556080830151600483015560a0830151600583015560c0830151600683015560e0830151600783015561010083015160089092018054610120948501516001600160401b03908116600160401b026001600160801b03199092169481169490941717905591850151825188815291166020820152600080516020612ba0833981519152910160405180910390a160408301516001600160a01b031615801590610e39575060008360c00151115b15610e5f57600654604084015160c0850151610e5f926001600160a01b0316919061222a565b6000610e736002546001600160a01b031690565b6001600160a01b031614158015610e96575060408301516001600160a01b031615155b8015610ea6575060008360e00151115b15610edd576006546040840151610edd916001600160a01b031690610ed36002546001600160a01b031690565b8660e0015161209a565b849350505050610eed6001600355565b919050565b6000610efc611f7b565b610f04611fc1565b6000610f0f86610424565b9050610f1c81600461201a565b848160c001511015610f625760405162461bcd60e51b815260206004820152600f60248201526e48617320636f6c6c61746572616c3f60881b60448201526064016105a2565b848160c00151610f729190612ad7565b60c082015260056101208201819052600087815260209182526040902082518155908201518291906001820190610fa99082612a18565b506040828101516002830180546001600160a01b039092166001600160a01b0319909216919091179055606083015160038301556080830151600483015560a0830151600583015560c0830151600683015560e0830151600783015561010083015160089092018054610120948501516001600160401b03908116600160401b026001600160801b03199092169481169490941717905591830151825189815291166020820152600080516020612ba0833981519152910160405180910390a160408101516001600160a01b031615801590611089575060008160c00151115b156110af57600654604082015160c08301516110af926001600160a01b0316919061222a565b50506001600355835b949350505050565b6110c8611f21565b6109b7600061235b565b60006110dc611f21565b6110e4611f7b565b6110ec611fc1565b60006110f787610424565b905061110481600561201a565b85858080601f0160208091040260200160405190810160405280939291908181526020018383808284376000920182905250602080870195865260c087018a90526080870189905260408088018390526060880183905260e0880183905260a08801839052610100880183905260036101208901528d83526005909152902085518155935185949350600184019250610b57915082612a18565b6111a6611f21565b6109b76123ad565b60006111b8611f7b565b6111c0611fc1565b60006111cb83610424565b60408101519091506001600160a01b03163314806111f357506002546001600160a01b031633145b6112545760405162461bcd60e51b815260206004820152602c60248201527f416363657373207265737472696374656420746f3a2072656e7465722c20776f60448201526b3935b33637bb9037bbb732b960a11b60648201526084016105a2565b61125f81600161201a565b600081608001518260a001518361010001516001600160401b03166112849190612ad7565b61128e9190612afd565b9050600082610100015160186112a49190612b14565b6112af90603c612b14565b6112ba90603c612b14565b6001600160401b031683606001516112d29190612aea565b90508042116112e257600061131e565b603c80601885608001516112f69190612b3f565b6113009190612b3f565b61130a9190612b3f565b6113144283612ad7565b61131e9190612afd565b6113289083612aea565b60e084015260026101208401526000858152600560209081526040909120845181559084015184919060018201906113609082612a18565b506040828101516002830180546001600160a01b039092166001600160a01b0319909216919091179055606083015160038301556080830151600483015560a0830151600583015560c0830151600683015560e0830151600783015561010083015160089092018054610120948501516001600160401b03908116600160401b026001600160801b03199092169481169490941717905591850151825188815291166020820152600080516020612ba0833981519152910160405180910390a1849350505050610eed6001600355565b600061143a611f21565b611442611f7b565b61144a611fc1565b60006114546123ea565b905061145e6124b7565b81815260008281526005602090815260409091208251815590820151829190600182019061148c9082612a18565b506040828101516002830180546001600160a01b039092166001600160a01b0319909216919091179055606083015160038301556080830151600483015560a0830151600583015560c0830151600683015560e0830151600783015561010083015160089092018054610120909401516001600160401b03908116600160401b026001600160801b031990951693169290921792909217905580516020601f89018190048102820181019092528781529088908890819084018382808284376000920182905250602080870195865260c087018b9052608087018a90526003610120880152878252600590526040902085518155935185949350600184019250611597915082612a18565b506040828101516002830180546001600160a01b039092166001600160a01b0319909216919091179055606083015160038301556080830151600483015560a0830151600583015560c0830151600683015560e0830151600783015561010083015160089092018054610120948501516001600160401b03908116600160401b026001600160801b03199092169481169490941717905591830151825185815291166020820152600080516020612ba0833981519152910160405180910390a15090506110b86001600355565b600061166e611f21565b611676611f7b565b61167e611fc1565b600061168983610424565b905061169681600261201a565b8060e001518160c0015110156116df5760405162461bcd60e51b815260206004820152600e60248201526d12185cc818dbdb1b185d195c985b60921b60448201526064016105a2565b8060e001518160c001516116f39190612ad7565b60c0820152600461012082015260008381526005602090815260409091208251815590820151829190600182019061172b9082612a18565b506040828101516002830180546001600160a01b039092166001600160a01b0319909216919091179055606083015160038301556080830151600483015560a0830151600583015560c0830151600683015560e0830151600783015561010083015160089092018054610120948501516001600160401b03908116600160401b026001600160801b03199092169481169490941717905591830151825186815291166020820152600080516020612ba0833981519152910160405180910390a15050600160035590565b6005602052600090815260409020805460018201805491929161181790612993565b80601f016020809104026020016040519081016040528092919081815260200182805461184390612993565b80156118905780601f1061186557610100808354040283529160200191611890565b820191906000526020600020905b81548152906001019060200180831161187357829003601f168201915b5050505060028301546003840154600485015460058601546006870154600788015460089098015496976001600160a01b0390951696939550919390926001600160401b0380821691600160401b9004168a565b60006118ee611f7b565b6118f6611fc1565b600061190185610424565b905061190c81612406565b61191781600361201a565b608081015161192f906001600160401b038616612afd565b83146119755760405162461bcd60e51b8152602060048201526015602482015274416c6c6f77616e636520697320636f72726563743f60581b60448201526064016105a2565b6001600160401b038416610100820152426060820152600161012082018190526000868152600560209081526040909120835181559083015183928201906119bd9082612a18565b506040828101516002830180546001600160a01b039092166001600160a01b0319909216919091179055606083015160038301556080830151600483015560a0830151600583015560c0830151600683015560e0830151600783015561010083015160089092018054610120948501516001600160401b03908116600160401b026001600160801b03199092169481169490941717905591830151825188815291166020820152600080516020612ba0833981519152910160405180910390a13015801590611a90575060008160c00151115b15611ab157600654611ab1906001600160a01b031633308460c0015161209a565b50506001600355825b9392505050565b60606000611acf848461036f565b9050600081516001600160401b03811115611aec57611aec612938565b604051908082528060200260200182016040528015611b2557816020015b611b126124b7565b815260200190600190039081611b0a5790505b50905060005b82518110156109f85760056000848381518110611b4a57611b4a61294e565b602002602001015181526020019081526020016000206040518061014001604052908160008201548152602001600182018054611b8690612993565b80601f0160208091040260200160405190810160405280929190818152602001828054611bb290612993565b8015611bff5780601f10611bd457610100808354040283529160200191611bff565b820191906000526020600020905b815481529060010190602001808311611be257829003601f168201915b505050918352505060028201546001600160a01b03166020820152600382015460408201526004820154606082015260058201546080820152600682015460a0820152600782015460c08201526008909101546001600160401b0380821660e0840152600160401b90910416610100909101528251839083908110611c8657611c8661294e565b60200260200101819052508080611c9c9061297a565b915050611b2b565b6000611cae611f21565b611cb6611f7b565b611cbe611fc1565b6000611cc983610424565b9050611cd681600161201a565b60008160a0015162015180836060015142611cf19190612ad7565b611cfb9190612b3f565b611d059190612ad7565b9050808260a00151611d179190612aea565b60a08301526080820151611d2b9082612afd565b60e083015260016101208301819052600085815260056020908152604090912084518155908401518492820190611d629082612a18565b506040828101516002830180546001600160a01b039092166001600160a01b0319909216919091179055606083015160038301556080830151600483015560a0830151600583015560c0830151600683015560e0830151600783015561010083015160089092018054610120948501516001600160401b03908116600160401b026001600160801b03199092169481169490941717905591840151825187815291166020820152600080516020612ba0833981519152910160405180910390a16000611e366002546001600160a01b031690565b6001600160a01b031614158015611e59575060408201516001600160a01b031615155b8015611e69575060008260e00151115b15611ea0576006546040830151611ea0916001600160a01b031690611e966002546001600160a01b031690565b8560e0015161209a565b505060016003555090565b611eb3611f21565b6001600160a01b038116611f185760405162461bcd60e51b815260206004820152602660248201527f4f776e61626c653a206e6577206f776e657220697320746865207a65726f206160448201526564647265737360d01b60648201526084016105a2565b6104218161235b565b6002546001600160a01b031633146109b75760405162461bcd60e51b815260206004820181905260248201527f4f776e61626c653a2063616c6c6572206973206e6f7420746865206f776e657260448201526064016105a2565b60045460ff16156109b75760405162461bcd60e51b815260206004820152601060248201526f14185d5cd8589b194e881c185d5cd95960821b60448201526064016105a2565b6002600354036120135760405162461bcd60e51b815260206004820152601f60248201527f5265656e7472616e637947756172643a207265656e7472616e742063616c6c0060448201526064016105a2565b6002600355565b806001600160401b03168261012001516001600160401b0316146120965760405162461bcd60e51b815260206004820152602d60248201527f43616e6e6f742072756e20576f726b666c6f7720616374696f6e3b20756e657860448201526c7065637465642073746174757360981b60648201526084016105a2565b5050565b604080516001600160a01b0385811660248301528481166044830152606480830185905283518084039091018152608490920183526020820180516001600160e01b03166323b872dd60e01b17905291516000928392908816916120fe9190612b61565b6000604051808303816000865af19150503d806000811461213b576040519150601f19603f3d011682016040523d82523d6000602084013e612140565b606091505b509150915081801561216a57508051158061216a57508080602001905181019061216a9190612b7d565b6121d05760405162461bcd60e51b815260206004820152603160248201527f5472616e7366657248656c7065723a3a7472616e7366657246726f6d3a207472604482015270185b9cd9995c919c9bdb4819985a5b1959607a1b60648201526084016105a2565b505050505050565b6121e061246e565b6004805460ff191690557f5db9ee0a495bf2e6ff9c91a7834c1ba4fdd244a5e8aa4e537bd38aeae4b073aa335b6040516001600160a01b03909116815260200160405180910390a1565b604080516001600160a01b038481166024830152604480830185905283518084039091018152606490920183526020820180516001600160e01b031663a9059cbb60e01b17905291516000928392908716916122869190612b61565b6000604051808303816000865af19150503d80600081146122c3576040519150601f19603f3d011682016040523d82523d6000602084013e6122c8565b606091505b50915091508180156122f25750805115806122f25750808060200190518101906122f29190612b7d565b6123545760405162461bcd60e51b815260206004820152602d60248201527f5472616e7366657248656c7065723a3a736166655472616e736665723a20747260448201526c185b9cd9995c8819985a5b1959609a1b60648201526084016105a2565b5050505050565b600280546001600160a01b038381166001600160a01b0319831681179093556040519116919082907f8be0079c531659141344cd1fd0a4f28419497f9722a3daafe3b4186f6b6457e090600090a35050565b6123b5611f7b565b6004805460ff191660011790557f62e78cea01bee320cd4e420270b5ea74000d11b0c9f74754ebdbfc544b05a25861220d3390565b6000805481806123f98361297a565b9190505550600054905090565b60408101516001600160a01b0381161561246357336001600160a01b038216146120965760405162461bcd60e51b815260206004820152600e60248201526d24b73b30b634b2102932b73a32b960911b60448201526064016105a2565b503360409190910152565b60045460ff166109b75760405162461bcd60e51b815260206004820152601460248201527314185d5cd8589b194e881b9bdd081c185d5cd95960621b60448201526064016105a2565b604051806101400160405280600081526020016060815260200160006001600160a01b03168152602001600081526020016000815260200160008152602001600081526020016000815260200160006001600160401b0316815260200160006001600160401b031681525090565b6000806040838503121561253857600080fd5b50508035926020909101359150565b6020808252825182820181905260009190848201906040850190845b8181101561257f57835183529284019291840191600101612563565b50909695505050505050565b60006020828403121561259d57600080fd5b81356001600160a01b0381168114611aba57600080fd5b6000602082840312156125c657600080fd5b5035919050565b60005b838110156125e85781810151838201526020016125d0565b50506000910152565b600081518084526126098160208601602086016125cd565b601f01601f19169290920160200192915050565b600061014082518452602083015181602086015261263d828601826125f1565b915050604083015161265a60408601826001600160a01b03169052565b50606083015160608501526080830151608085015260a083015160a085015260c083015160c085015260e083015160e0850152610100808401516126a8828701826001600160401b03169052565b5050610120928301516001600160401b03169390920192909252919050565b602081526000611aba602083018461261d565b6000602080830181845280855180835260408601915060408160051b870101925083870160005b8281101561272f57603f1988860301845261271d85835161261d565b94509285019290850190600101612701565b5092979650505050505050565b60008083601f84011261274e57600080fd5b5081356001600160401b0381111561276557600080fd5b60208301915083602082850101111561277d57600080fd5b9250929050565b60008060008060006080868803121561279c57600080fd5b8535945060208601356001600160401b038111156127b957600080fd5b6127c58882890161273c565b9699909850959660408101359660609091013595509350505050565b600080600080606085870312156127f757600080fd5b843593506020850135925060408501356001600160401b0381111561281b57600080fd5b6128278782880161273c565b95989497509550505050565b6000806000806060858703121561284957600080fd5b84356001600160401b0381111561285f57600080fd5b61286b8782880161273c565b90989097506020870135966040013595509350505050565b60006101408c835280602084015261289d8184018d6125f1565b6001600160a01b039b909b16604084015250506060810197909752608087019590955260a086019390935260c085019190915260e08401526001600160401b03908116610100840152166101209091015292915050565b60008060006060848603121561290957600080fd5b8335925060208401356001600160401b038116811461292757600080fd5b929592945050506040919091013590565b634e487b7160e01b600052604160045260246000fd5b634e487b7160e01b600052603260045260246000fd5b634e487b7160e01b600052601160045260246000fd5b60006001820161298c5761298c612964565b5060010190565b600181811c908216806129a757607f821691505b6020821081036129c757634e487b7160e01b600052602260045260246000fd5b50919050565b601f821115612a1357600081815260208120601f850160051c810160208610156129f45750805b601f850160051c820191505b818110156121d057828155600101612a00565b505050565b81516001600160401b03811115612a3157612a31612938565b612a4581612a3f8454612993565b846129cd565b602080601f831160018114612a7a5760008415612a625750858301515b600019600386901b1c1916600185901b1785556121d0565b600085815260208120601f198616915b82811015612aa957888601518255948401946001909101908401612a8a565b5085821015612ac75787850151600019600388901b60f8161c191681555b5050505050600190811b01905550565b8181038181111561041257610412612964565b8082018082111561041257610412612964565b808202811582820484141761041257610412612964565b6001600160401b03818116838216028082169190828114612b3757612b37612964565b505092915050565b600082612b5c57634e487b7160e01b600052601260045260246000fd5b500490565b60008251612b738184602087016125cd565b9190910192915050565b600060208284031215612b8f57600080fd5b81518015158114611aba57600080fdfef12a1a922705ffd5ec4fc8a3f56e1ddef3c5f715c7034230a0a280240c29a6f0a26469706673582212200f47d304227f28666537db3f1a800cbac8e22d137acbea0d6a8ee52ef1c76dd064736f6c63430008130033",
    "sourcePath": "c:/Projects/Toolblox.Audit/Toolblox.Token/Audit/RentalWorkflow.sol",
    "compiler": {
        "name": "solc",
        "version": "0.8.19+commit.7dd6d404"
    },
    "functionHashes": {
        "charge(uint256)": "e457e1e5",
        "chargeWithCollateral(uint256)": "abeb0b7e",
        "endAndSettle(uint256)": "615704c4",
        "endRental(uint256)": "97491d6f",
        "finalCharge(uint256,uint256)": "393bef2b",
        "getItem(uint256)": "3129e773",
        "getLatest(uint256)": "33495dd3",
        "getLatestIds(uint256)": "59f719f5",
        "getPage(uint256,uint256)": "cd1a2e91",
        "getPageIds(uint256,uint256)": "06889aa8",
        "items(uint256)": "bfb231d2",
        "makeAvailable(uint256,string,uint256,uint256)": "806a0faf",
        "owner()": "8da5cb5b",
        "pause()": "8456cb59",
        "paused()": "5c975abb",
        "registerItem(string,uint256,uint256)": "a7c6309b",
        "releaseCollateral(uint256,uint256,string)": "67bc080c",
        "renounceOwnership()": "715018a6",
        "setOwner(address)": "13af4035",
        "startRent(uint256,uint64,uint256)": "cbd44ec4",
        "token()": "fc0c546a",
        "transferOwnership(address)": "f2fde38b",
        "unpause()": "3f4ba83a",
        "update(uint256,string,uint256,uint256)": "5adc0246"
    },
    "gasEstimates": {
        "creation": {
            "codeDepositCost": "2250600",
            "executionCost": "infinite",
            "totalCost": "infinite"
        },
        "external": {
            "charge(uint256)": "infinite",
            "chargeWithCollateral(uint256)": "infinite",
            "endAndSettle(uint256)": "infinite",
            "endRental(uint256)": "infinite",
            "finalCharge(uint256,uint256)": "infinite",
            "getItem(uint256)": "infinite",
            "getLatest(uint256)": "infinite",
            "getLatestIds(uint256)": "infinite",
            "getPage(uint256,uint256)": "infinite",
            "getPageIds(uint256,uint256)": "infinite",
            "items(uint256)": "infinite",
            "makeAvailable(uint256,string,uint256,uint256)": "infinite",
            "owner()": "2387",
            "pause()": "infinite",
            "paused()": "2359",
            "registerItem(string,uint256,uint256)": "infinite",
            "releaseCollateral(uint256,uint256,string)": "infinite",
            "renounceOwnership()": "infinite",
            "setOwner(address)": "infinite",
            "startRent(uint256,uint64,uint256)": "infinite",
            "token()": "2469",
            "transferOwnership(address)": "28411",
            "unpause()": "infinite",
            "update(uint256,string,uint256,uint256)": "infinite"
        },
        "internal": {
            "_assertOrAssignRenter(struct RentalWorkflow.Rental memory)": "infinite",
            "_assertStatus(struct RentalWorkflow.Rental memory,uint64)": "infinite"
        }
    }
}