{
    "contractName": "RentalWorkflow",
    "abi": [
        {
            "inputs": [],
            "stateMutability": "nonpayable",
            "type": "constructor"
        },
        {
            "anonymous": false,
            "inputs": [
                {
                    "indexed": false,
                    "internalType": "uint256",
                    "name": "_id",
                    "type": "uint256"
                },
                {
                    "indexed": false,
                    "internalType": "uint64",
                    "name": "_status",
                    "type": "uint64"
                }
            ],
            "name": "ItemUpdated",
            "type": "event"
        },
        {
            "anonymous": false,
            "inputs": [
                {
                    "indexed": true,
                    "internalType": "address",
                    "name": "previousOwner",
                    "type": "address"
                },
                {
                    "indexed": true,
                    "internalType": "address",
                    "name": "newOwner",
                    "type": "address"
                }
            ],
            "name": "OwnershipTransferred",
            "type": "event"
        },
        {
            "stateMutability": "payable",
            "type": "fallback"
        },
        {
            "inputs": [
                {
                    "internalType": "uint256",
                    "name": "id",
                    "type": "uint256"
                }
            ],
            "name": "charge",
            "outputs": [
                {
                    "internalType": "uint256",
                    "name": "",
                    "type": "uint256"
                }
            ],
            "stateMutability": "nonpayable",
            "type": "function"
        },
        {
            "inputs": [
                {
                    "internalType": "uint256",
                    "name": "id",
                    "type": "uint256"
                }
            ],
            "name": "chargeWithCollateral",
            "outputs": [
                {
                    "internalType": "uint256",
                    "name": "",
                    "type": "uint256"
                }
            ],
            "stateMutability": "nonpayable",
            "type": "function"
        },
        {
            "inputs": [
                {
                    "internalType": "uint256",
                    "name": "id",
                    "type": "uint256"
                }
            ],
            "name": "endAndSettle",
            "outputs": [
                {
                    "internalType": "uint256",
                    "name": "",
                    "type": "uint256"
                }
            ],
            "stateMutability": "nonpayable",
            "type": "function"
        },
        {
            "inputs": [
                {
                    "internalType": "uint256",
                    "name": "id",
                    "type": "uint256"
                }
            ],
            "name": "endRental",
            "outputs": [
                {
                    "internalType": "uint256",
                    "name": "",
                    "type": "uint256"
                }
            ],
            "stateMutability": "nonpayable",
            "type": "function"
        },
        {
            "inputs": [
                {
                    "internalType": "uint256",
                    "name": "id",
                    "type": "uint256"
                },
                {
                    "internalType": "uint256",
                    "name": "chargeAmount",
                    "type": "uint256"
                }
            ],
            "name": "finalCharge",
            "outputs": [
                {
                    "internalType": "uint256",
                    "name": "",
                    "type": "uint256"
                }
            ],
            "stateMutability": "nonpayable",
            "type": "function"
        },
        {
            "inputs": [
                {
                    "internalType": "uint256",
                    "name": "id",
                    "type": "uint256"
                }
            ],
            "name": "getItem",
            "outputs": [
                {
                    "components": [
                        {
                            "internalType": "uint256",
                            "name": "id",
                            "type": "uint256"
                        },
                        {
                            "internalType": "string",
                            "name": "name",
                            "type": "string"
                        },
                        {
                            "internalType": "address",
                            "name": "renter",
                            "type": "address"
                        },
                        {
                            "internalType": "uint256",
                            "name": "startTime",
                            "type": "uint256"
                        },
                        {
                            "internalType": "uint256",
                            "name": "pricePerDay",
                            "type": "uint256"
                        },
                        {
                            "internalType": "uint256",
                            "name": "daysCharged",
                            "type": "uint256"
                        },
                        {
                            "internalType": "uint256",
                            "name": "collateral",
                            "type": "uint256"
                        },
                        {
                            "internalType": "uint256",
                            "name": "leftoverCharge",
                            "type": "uint256"
                        },
                        {
                            "internalType": "uint64",
                            "name": "numberOfDays",
                            "type": "uint64"
                        },
                        {
                            "internalType": "uint64",
                            "name": "status",
                            "type": "uint64"
                        }
                    ],
                    "internalType": "struct RentalWorkflow.Rental",
                    "name": "",
                    "type": "tuple"
                }
            ],
            "stateMutability": "view",
            "type": "function"
        },
        {
            "inputs": [
                {
                    "internalType": "uint256",
                    "name": "cnt",
                    "type": "uint256"
                }
            ],
            "name": "getLatest",
            "outputs": [
                {
                    "components": [
                        {
                            "internalType": "uint256",
                            "name": "id",
                            "type": "uint256"
                        },
                        {
                            "internalType": "string",
                            "name": "name",
                            "type": "string"
                        },
                        {
                            "internalType": "address",
                            "name": "renter",
                            "type": "address"
                        },
                        {
                            "internalType": "uint256",
                            "name": "startTime",
                            "type": "uint256"
                        },
                        {
                            "internalType": "uint256",
                            "name": "pricePerDay",
                            "type": "uint256"
                        },
                        {
                            "internalType": "uint256",
                            "name": "daysCharged",
                            "type": "uint256"
                        },
                        {
                            "internalType": "uint256",
                            "name": "collateral",
                            "type": "uint256"
                        },
                        {
                            "internalType": "uint256",
                            "name": "leftoverCharge",
                            "type": "uint256"
                        },
                        {
                            "internalType": "uint64",
                            "name": "numberOfDays",
                            "type": "uint64"
                        },
                        {
                            "internalType": "uint64",
                            "name": "status",
                            "type": "uint64"
                        }
                    ],
                    "internalType": "struct RentalWorkflow.Rental[]",
                    "name": "",
                    "type": "tuple[]"
                }
            ],
            "stateMutability": "view",
            "type": "function"
        },
        {
            "inputs": [
                {
                    "internalType": "uint256",
                    "name": "cnt",
                    "type": "uint256"
                }
            ],
            "name": "getLatestIds",
            "outputs": [
                {
                    "internalType": "uint256[]",
                    "name": "",
                    "type": "uint256[]"
                }
            ],
            "stateMutability": "view",
            "type": "function"
        },
        {
            "inputs": [
                {
                    "internalType": "uint256",
                    "name": "cursor",
                    "type": "uint256"
                },
                {
                    "internalType": "uint256",
                    "name": "howMany",
                    "type": "uint256"
                }
            ],
            "name": "getPage",
            "outputs": [
                {
                    "components": [
                        {
                            "internalType": "uint256",
                            "name": "id",
                            "type": "uint256"
                        },
                        {
                            "internalType": "string",
                            "name": "name",
                            "type": "string"
                        },
                        {
                            "internalType": "address",
                            "name": "renter",
                            "type": "address"
                        },
                        {
                            "internalType": "uint256",
                            "name": "startTime",
                            "type": "uint256"
                        },
                        {
                            "internalType": "uint256",
                            "name": "pricePerDay",
                            "type": "uint256"
                        },
                        {
                            "internalType": "uint256",
                            "name": "daysCharged",
                            "type": "uint256"
                        },
                        {
                            "internalType": "uint256",
                            "name": "collateral",
                            "type": "uint256"
                        },
                        {
                            "internalType": "uint256",
                            "name": "leftoverCharge",
                            "type": "uint256"
                        },
                        {
                            "internalType": "uint64",
                            "name": "numberOfDays",
                            "type": "uint64"
                        },
                        {
                            "internalType": "uint64",
                            "name": "status",
                            "type": "uint64"
                        }
                    ],
                    "internalType": "struct RentalWorkflow.Rental[]",
                    "name": "",
                    "type": "tuple[]"
                }
            ],
            "stateMutability": "view",
            "type": "function"
        },
        {
            "inputs": [
                {
                    "internalType": "uint256",
                    "name": "cursor",
                    "type": "uint256"
                },
                {
                    "internalType": "uint256",
                    "name": "howMany",
                    "type": "uint256"
                }
            ],
            "name": "getPageIds",
            "outputs": [
                {
                    "internalType": "uint256[]",
                    "name": "",
                    "type": "uint256[]"
                }
            ],
            "stateMutability": "view",
            "type": "function"
        },
        {
            "inputs": [
                {
                    "internalType": "uint256",
                    "name": "",
                    "type": "uint256"
                }
            ],
            "name": "items",
            "outputs": [
                {
                    "internalType": "uint256",
                    "name": "id",
                    "type": "uint256"
                },
                {
                    "internalType": "string",
                    "name": "name",
                    "type": "string"
                },
                {
                    "internalType": "address",
                    "name": "renter",
                    "type": "address"
                },
                {
                    "internalType": "uint256",
                    "name": "startTime",
                    "type": "uint256"
                },
                {
                    "internalType": "uint256",
                    "name": "pricePerDay",
                    "type": "uint256"
                },
                {
                    "internalType": "uint256",
                    "name": "daysCharged",
                    "type": "uint256"
                },
                {
                    "internalType": "uint256",
                    "name": "collateral",
                    "type": "uint256"
                },
                {
                    "internalType": "uint256",
                    "name": "leftoverCharge",
                    "type": "uint256"
                },
                {
                    "internalType": "uint64",
                    "name": "numberOfDays",
                    "type": "uint64"
                },
                {
                    "internalType": "uint64",
                    "name": "status",
                    "type": "uint64"
                }
            ],
            "stateMutability": "view",
            "type": "function"
        },
        {
            "inputs": [
                {
                    "internalType": "uint256",
                    "name": "id",
                    "type": "uint256"
                },
                {
                    "internalType": "string",
                    "name": "name",
                    "type": "string"
                },
                {
                    "internalType": "uint256",
                    "name": "collateral",
                    "type": "uint256"
                },
                {
                    "internalType": "uint256",
                    "name": "pricePerDay",
                    "type": "uint256"
                }
            ],
            "name": "makeAvailable",
            "outputs": [
                {
                    "internalType": "uint256",
                    "name": "",
                    "type": "uint256"
                }
            ],
            "stateMutability": "nonpayable",
            "type": "function"
        },
        {
            "inputs": [],
            "name": "owner",
            "outputs": [
                {
                    "internalType": "address",
                    "name": "",
                    "type": "address"
                }
            ],
            "stateMutability": "view",
            "type": "function"
        },
        {
            "inputs": [
                {
                    "internalType": "string",
                    "name": "name",
                    "type": "string"
                },
                {
                    "internalType": "uint256",
                    "name": "collateral",
                    "type": "uint256"
                },
                {
                    "internalType": "uint256",
                    "name": "pricePerDay",
                    "type": "uint256"
                }
            ],
            "name": "registerItem",
            "outputs": [
                {
                    "internalType": "uint256",
                    "name": "",
                    "type": "uint256"
                }
            ],
            "stateMutability": "nonpayable",
            "type": "function"
        },
        {
            "inputs": [
                {
                    "internalType": "uint256",
                    "name": "id",
                    "type": "uint256"
                },
                {
                    "internalType": "uint256",
                    "name": "chargeAmount",
                    "type": "uint256"
                },
                {
                    "internalType": "string",
                    "name": "",
                    "type": "string"
                }
            ],
            "name": "releaseCollateral",
            "outputs": [
                {
                    "internalType": "uint256",
                    "name": "",
                    "type": "uint256"
                }
            ],
            "stateMutability": "nonpayable",
            "type": "function"
        },
        {
            "inputs": [],
            "name": "renounceOwnership",
            "outputs": [],
            "stateMutability": "nonpayable",
            "type": "function"
        },
        {
            "inputs": [
                {
                    "internalType": "address",
                    "name": "_newOwner",
                    "type": "address"
                }
            ],
            "name": "setOwner",
            "outputs": [],
            "stateMutability": "nonpayable",
            "type": "function"
        },
        {
            "inputs": [
                {
                    "internalType": "uint256",
                    "name": "id",
                    "type": "uint256"
                },
                {
                    "internalType": "uint64",
                    "name": "numberOfDays",
                    "type": "uint64"
                },
                {
                    "internalType": "uint256",
                    "name": "allowance",
                    "type": "uint256"
                }
            ],
            "name": "startRent",
            "outputs": [
                {
                    "internalType": "uint256",
                    "name": "",
                    "type": "uint256"
                }
            ],
            "stateMutability": "nonpayable",
            "type": "function"
        },
        {
            "inputs": [],
            "name": "token",
            "outputs": [
                {
                    "internalType": "address",
                    "name": "",
                    "type": "address"
                }
            ],
            "stateMutability": "view",
            "type": "function"
        },
        {
            "inputs": [
                {
                    "internalType": "address",
                    "name": "newOwner",
                    "type": "address"
                }
            ],
            "name": "transferOwnership",
            "outputs": [],
            "stateMutability": "nonpayable",
            "type": "function"
        },
        {
            "inputs": [
                {
                    "internalType": "uint256",
                    "name": "id",
                    "type": "uint256"
                },
                {
                    "internalType": "string",
                    "name": "name",
                    "type": "string"
                },
                {
                    "internalType": "uint256",
                    "name": "collateral",
                    "type": "uint256"
                },
                {
                    "internalType": "uint256",
                    "name": "pricePerDay",
                    "type": "uint256"
                }
            ],
            "name": "update",
            "outputs": [
                {
                    "internalType": "uint256",
                    "name": "",
                    "type": "uint256"
                }
            ],
            "stateMutability": "nonpayable",
            "type": "function"
        },
        {
            "stateMutability": "payable",
            "type": "receive"
        }
    ],
    "bytecode": "608060405260008055600480546001600160a01b0319167302cbe6055f8aad745321f70d6add4711455c7f451790553480156200003b57600080fd5b50620000473362000058565b620000523362000058565b620000aa565b600280546001600160a01b038381166001600160a01b0319831681179093556040519116919082907f8be0079c531659141344cd1fd0a4f28419497f9722a3daafe3b4186f6b6457e090600090a35050565b6129e080620000ba6000396000f3fe6080604052600436106101225760003560e01c8063806a0faf116100a5578063bfb231d21161006c578063bfb231d214610350578063cbd44ec414610386578063cd1a2e91146103a6578063e457e1e5146103c6578063f2fde38b146103e6578063fc0c546a1461040657005b8063806a0faf1461029e5780638da5cb5b146102be57806397491d6f146102f0578063a7c6309b14610310578063abeb0b7e1461033057005b806359f719f5116100e957806359f719f5146102095780635adc024614610229578063615704c41461024957806367bc080c14610269578063715018a61461028957005b806306889aa81461012b57806313af4035146101615780633129e7731461018157806333495dd3146101ae578063393bef2b146101db57005b3661012957005b005b34801561013757600080fd5b5061014b610146366004612309565b610426565b604051610158919061232b565b60405180910390f35b34801561016d57600080fd5b5061012961017c36600461236f565b6104cf565b34801561018d57600080fd5b506101a161019c36600461239f565b6104db565b60405161015891906124b2565b3480156101ba57600080fd5b506101ce6101c936600461239f565b610662565b60405161015891906124c5565b3480156101e757600080fd5b506101fb6101f6366004612309565b61084c565b604051908152602001610158565b34801561021557600080fd5b5061014b61022436600461239f565b610a56565b34801561023557600080fd5b506101fb61024436600461256f565b610b43565b34801561025557600080fd5b506101fb61026436600461239f565b610ca5565b34801561027557600080fd5b506101fb6102843660046125cc565b610f58565b34801561029557600080fd5b50610129611112565b3480156102aa57600080fd5b506101fb6102b936600461256f565b611126565b3480156102ca57600080fd5b506002546001600160a01b03165b6040516001600160a01b039091168152602001610158565b3480156102fc57600080fd5b506101fb61030b36600461239f565b6111e1565b34801561031c57600080fd5b506101fb61032b36600461261e565b6113c0565b34801561033c57600080fd5b506101fb61034b36600461239f565b6115e3565b34801561035c57600080fd5b5061037061036b36600461239f565b611760565b6040516101589a9998979695949392919061266e565b34801561039257600080fd5b506101fb6103a13660046126df565b61184f565b3480156103b257600080fd5b506101ce6103c1366004612309565b611a22565b3480156103d257600080fd5b506101fb6103e136600461239f565b611c05565b3480156103f257600080fd5b5061012961040136600461236f565b611e06565b34801561041257600080fd5b506004546102d8906001600160a01b031681565b60606000826001600160401b0381111561044257610442612723565b60405190808252806020026020018201604052801561046b578160200160208202803683370190505b50905060005b600054851115801561048257508381105b156104c5578482828151811061049a5761049a612739565b6020908102919091010152806104af81612765565b91505084806104bd90612765565b955050610471565b5090505b92915050565b6104d881611e06565b50565b6104e361229b565b600060036000848152602001908152602001600020604051806101400160405290816000820154815260200160018201805461051e9061277e565b80601f016020809104026020016040519081016040528092919081815260200182805461054a9061277e565b80156105975780601f1061056c57610100808354040283529160200191610597565b820191906000526020600020905b81548152906001019060200180831161057a57829003601f168201915b505050918352505060028201546001600160a01b03166020820152600382015460408201526004820154606082015260058201546080820152600682015460a0820152600782015460c08201526008909101546001600160401b0380821660e0840152600160401b9091041661010090910152805190915083146104c95760405162461bcd60e51b815260206004820152601e60248201527f43616e6e6f742066696e64206974656d207769746820676976656e206964000060448201526064015b60405180910390fd5b6060600061066f83610a56565b9050600081516001600160401b0381111561068c5761068c612723565b6040519080825280602002602001820160405280156106c557816020015b6106b261229b565b8152602001906001900390816106aa5790505b50905060005b825181101561084457600360008483815181106106ea576106ea612739565b6020026020010151815260200190815260200160002060405180610140016040529081600082015481526020016001820180546107269061277e565b80601f01602080910402602001604051908101604052809291908181526020018280546107529061277e565b801561079f5780601f106107745761010080835404028352916020019161079f565b820191906000526020600020905b81548152906001019060200180831161078257829003601f168201915b505050918352505060028201546001600160a01b03166020820152600382015460408201526004820154606082015260058201546080820152600682015460a0820152600782015460c08201526008909101546001600160401b0380821660e0840152600160401b9091041661010090910152825183908390811061082657610826612739565b6020026020010181905250808061083c90612765565b9150506106cb565b509392505050565b600080610858846104db565b9050610862611e7c565b61086d816002611ed6565b8060e001518311156108c15760405162461bcd60e51b815260206004820181905260248201527f43616e6e6f7420636861726765206d6f7265207468616e206c6566746f7665726044820152606401610659565b8060e0015183146108d35760026108d6565b60045b60ff1661012082015260008481526003602090815260409091208251815590820151829190600182019061090a9082612803565b5060408201516002820180546001600160a01b039092166001600160a01b0319909216919091179055606082015160038201556080820151600482015560a0820151600582015560c0820151600682015560e0820151600782015561010082015160089091018054610120909301516001600160401b03908116600160401b026001600160801b031990941692169190911791909117905560006109b66002546001600160a01b031690565b6001600160a01b0316141580156109d9575060408101516001600160a01b031615155b80156109e55750600083115b15610a18576004546040820151610a18916001600160a01b031690610a126002546001600160a01b031690565b86611f56565b610120810151604080518681526001600160401b03909216602083015260008051602061298b833981519152910160405180910390a1509192915050565b6000805460609181841015610a7257610a6f84836128c2565b90505b81811180610a7e575060005b15610a9e5760408051600080825260208201909252905b50949350505050565b6000846001600160401b03811115610ab857610ab8612723565b604051908082528060200260200182016040528015610ae1578160200160208202803683370190505b5090506000825b84811015610b3857610afb8160016128d5565b838381518110610b0d57610b0d612739565b602090810291909101015281610b2281612765565b9250508080610b3090612765565b915050610ae8565b509095945050505050565b600080610b4f876104db565b9050610b59611e7c565b610b64816003611ed6565b85858080601f0160208091040260200160405190810160405280939291908181526020018383808284376000920182905250602080870195865260c087018a905260808701899052600361012088018190528d835290526040902085518155935185949350600184019250610bda915082612803565b506040828101516002830180546001600160a01b039092166001600160a01b0319909216919091179055606083015160038301556080830151600483015560a0830151600583015560c0830151600683015560e0830151600783015561010083015160089092018054610120948501516001600160401b03908116600160401b026001600160801b0319909216948116949094171790559183015182518a81529116602082015260008051602061298b833981519152910160405180910390a1509495945050505050565b600080610cb1836104db565b9050610cbb611e7c565b610cc6816001611ed6565b600081608001518260a001518361010001516001600160401b0316610ceb91906128c2565b610cf591906128e8565b905060008261010001516018610d0b91906128ff565b610d1690603c6128ff565b610d2190603c6128ff565b6001600160401b03168360600151610d3991906128d5565b9050804211610d49576000610d85565b603c8060188560800151610d5d919061292a565b610d67919061292a565b610d71919061292a565b610d7b42836128c2565b610d8591906128e8565b610d8f90836128d5565b60e08401526005610120840152600085815260036020908152604090912084518155908401518491906001820190610dc79082612803565b506040828101516002830180546001600160a01b039283166001600160a01b0319909116179055606084015160038401556080840151600484015560a0840151600584015560c0840151600684015560e0840151600784015561010084015160089093018054610120909501516001600160401b03908116600160401b026001600160801b0319909616941693909317939093179091558401511615801590610e74575060008360c00151115b15610e9a57600454604084015160c0850151610e9a926001600160a01b03169190612094565b6000610eae6002546001600160a01b031690565b6001600160a01b031614158015610ed1575060408301516001600160a01b031615155b8015610ee1575060008360e00151115b15610f18576004546040840151610f18916001600160a01b031690610f0e6002546001600160a01b031690565b8660e00151611f56565b610120830151604080518781526001600160401b03909216602083015260008051602061298b83398151915291015b60405180910390a150929392505050565b600080610f64866104db565b9050610f71816004611ed6565b848160c001511015610fb75760405162461bcd60e51b815260206004820152600f60248201526e48617320636f6c6c61746572616c3f60881b6044820152606401610659565b848160c00151610fc791906128c2565b60c08201526005610120820152600086815260036020908152604090912082518155908201518291906001820190610fff9082612803565b506040828101516002830180546001600160a01b039283166001600160a01b0319909116179055606084015160038401556080840151600484015560a0840151600584015560c0840151600684015560e0840151600784015561010084015160089093018054610120909501516001600160401b03908116600160401b026001600160801b03199096169416939093179390931790915582015116158015906110ac575060008160c00151115b156110d257600454604082015160c08301516110d2926001600160a01b03169190612094565b610120810151604080518881526001600160401b03909216602083015260008051602061298b833981519152910160405180910390a15093949350505050565b61111a611e7c565b61112460006121c5565b565b600080611132876104db565b905061113c611e7c565b611147816005611ed6565b85858080601f0160208091040260200160405190810160405280939291908181526020018383808284376000920182905250602080870195865260c087018a90526080870189905260408088018390526060880183905260e0880183905260a088018390526101008801839052600361012089018190528e8452909152902085518155935185949350600184019250610bda915082612803565b6000806111ed836104db565b90506111f7611e7c565b611202816001611ed6565b600081608001518260a001518361010001516001600160401b031661122791906128c2565b61123191906128e8565b90506000826101000151601861124791906128ff565b61125290603c6128ff565b61125d90603c6128ff565b6001600160401b0316836060015161127591906128d5565b90508042116112855760006112c1565b603c8060188560800151611299919061292a565b6112a3919061292a565b6112ad919061292a565b6112b742836128c2565b6112c191906128e8565b6112cb90836128d5565b60e084015260026101208401526000858152600360209081526040909120845181559084015184919060018201906113039082612803565b506040828101516002830180546001600160a01b039092166001600160a01b0319909216919091179055606083015160038301556080830151600483015560a0830151600583015560c0830151600683015560e0830151600783015561010083015160089092018054610120948501516001600160401b03908116600160401b026001600160801b0319909216948116949094171790559185015182518881529116602082015260008051602061298b8339815191529101610f47565b6000806113cb612217565b90506113d561229b565b8181526000828152600360209081526040909120825181559082015182919060018201906114039082612803565b5060408201516002820180546001600160a01b039092166001600160a01b0319909216919091179055606082015160038201556080820151600482015560a0820151600582015560c0820151600682015560e0820151600782015561010082015160089091018054610120909301516001600160401b03908116600160401b026001600160801b03199094169216919091179190911790556114a3611e7c565b86868080601f0160208091040260200160405190810160405280939291908181526020018383808284376000920182905250602080870195865260c087018b9052608087018a90526003610120880181905288835290526040902085518155935185949350600184019250611519915082612803565b506040828101516002830180546001600160a01b039092166001600160a01b0319909216919091179055606083015160038301556080830151600483015560a0830151600583015560c0830151600683015560e0830151600783015561010083015160089092018054610120948501516001600160401b03908116600160401b026001600160801b0319909216948116949094171790559183015182518581529116602082015260008051602061298b833981519152910160405180910390a15095945050505050565b6000806115ef836104db565b90506115f9611e7c565b611604816002611ed6565b8060e001518160c00151101561164d5760405162461bcd60e51b815260206004820152600e60248201526d12185cc818dbdb1b185d195c985b60921b6044820152606401610659565b8060e001518160c0015161166191906128c2565b60c082015260046101208201526000838152600360209081526040909120825181559082015182919060018201906116999082612803565b506040828101516002830180546001600160a01b039092166001600160a01b0319909216919091179055606083015160038301556080830151600483015560a0830151600583015560c0830151600683015560e0830151600783015561010083015160089092018054610120948501516001600160401b03908116600160401b026001600160801b0319909216948116949094171790559183015182518681529116602082015260008051602061298b833981519152910160405180910390a15090919050565b600360205260009081526040902080546001820180549192916117829061277e565b80601f01602080910402602001604051908101604052809291908181526020018280546117ae9061277e565b80156117fb5780601f106117d0576101008083540402835291602001916117fb565b820191906000526020600020905b8154815290600101906020018083116117de57829003601f168201915b5050505060028301546003840154600485015460058601546006870154600788015460089098015496976001600160a01b0390951696939550919390926001600160401b0380821691600160401b9004168a565b60008061185b856104db565b905061186681612233565b611871816003611ed6565b6080810151611889906001600160401b0386166128e8565b83146118cf5760405162461bcd60e51b8152602060048201526015602482015274416c6c6f77616e636520697320636f72726563743f60581b6044820152606401610659565b6001600160401b038416610100820152426060820152600161012082018190526000868152600360209081526040909120835181559083015183928201906119179082612803565b5060408201516002820180546001600160a01b039092166001600160a01b0319909216919091179055606082015160038201556080820151600482015560a0820151600582015560c0820151600682015560e0820151600782015561010082015160089091018054610120909301516001600160401b03908116600160401b026001600160801b031990941692169190911791909117905530158015906119c2575060008160c00151115b156119e3576004546119e3906001600160a01b031633308460c00151611f56565b610120810151604080518781526001600160401b03909216602083015260008051602061298b833981519152910160405180910390a150929392505050565b60606000611a308484610426565b9050600081516001600160401b03811115611a4d57611a4d612723565b604051908082528060200260200182016040528015611a8657816020015b611a7361229b565b815260200190600190039081611a6b5790505b50905060005b8251811015610a955760036000848381518110611aab57611aab612739565b602002602001015181526020019081526020016000206040518061014001604052908160008201548152602001600182018054611ae79061277e565b80601f0160208091040260200160405190810160405280929190818152602001828054611b139061277e565b8015611b605780601f10611b3557610100808354040283529160200191611b60565b820191906000526020600020905b815481529060010190602001808311611b4357829003601f168201915b505050918352505060028201546001600160a01b03166020820152600382015460408201526004820154606082015260058201546080820152600682015460a0820152600782015460c08201526008909101546001600160401b0380821660e0840152600160401b90910416610100909101528251839083908110611be757611be7612739565b60200260200101819052508080611bfd90612765565b915050611a8c565b600080611c11836104db565b9050611c1b611e7c565b611c26816001611ed6565b60008160a0015162015180836060015142611c4191906128c2565b611c4b919061292a565b611c5591906128c2565b9050808260a00151611c6791906128d5565b60a08301526080820151611c7b90826128e8565b60e083015260016101208301819052600085815260036020908152604090912084518155908401518492820190611cb29082612803565b5060408201516002820180546001600160a01b039092166001600160a01b0319909216919091179055606082015160038201556080820151600482015560a0820151600582015560c0820151600682015560e0820151600782015561010082015160089091018054610120909301516001600160401b03908116600160401b026001600160801b03199094169216919091179190911790556000611d5e6002546001600160a01b031690565b6001600160a01b031614158015611d81575060408201516001600160a01b031615155b8015611d91575060008260e00151115b15611dc8576004546040830151611dc8916001600160a01b031690611dbe6002546001600160a01b031690565b8560e00151611f56565b610120820151604080518681526001600160401b03909216602083015260008051602061298b833981519152910160405180910390a1509192915050565b611e0e611e7c565b6001600160a01b038116611e735760405162461bcd60e51b815260206004820152602660248201527f4f776e61626c653a206e6577206f776e657220697320746865207a65726f206160448201526564647265737360d01b6064820152608401610659565b6104d8816121c5565b6002546001600160a01b031633146111245760405162461bcd60e51b815260206004820181905260248201527f4f776e61626c653a2063616c6c6572206973206e6f7420746865206f776e65726044820152606401610659565b806001600160401b03168261012001516001600160401b031614611f525760405162461bcd60e51b815260206004820152602d60248201527f43616e6e6f742072756e20576f726b666c6f7720616374696f6e3b20756e657860448201526c7065637465642073746174757360981b6064820152608401610659565b5050565b604080516001600160a01b0385811660248301528481166044830152606480830185905283518084039091018152608490920183526020820180516001600160e01b03166323b872dd60e01b1790529151600092839290881691611fba919061294c565b6000604051808303816000865af19150503d8060008114611ff7576040519150601f19603f3d011682016040523d82523d6000602084013e611ffc565b606091505b50915091508180156120265750805115806120265750808060200190518101906120269190612968565b61208c5760405162461bcd60e51b815260206004820152603160248201527f5472616e7366657248656c7065723a3a7472616e7366657246726f6d3a207472604482015270185b9cd9995c919c9bdb4819985a5b1959607a1b6064820152608401610659565b505050505050565b604080516001600160a01b038481166024830152604480830185905283518084039091018152606490920183526020820180516001600160e01b031663a9059cbb60e01b17905291516000928392908716916120f0919061294c565b6000604051808303816000865af19150503d806000811461212d576040519150601f19603f3d011682016040523d82523d6000602084013e612132565b606091505b509150915081801561215c57508051158061215c57508080602001905181019061215c9190612968565b6121be5760405162461bcd60e51b815260206004820152602d60248201527f5472616e7366657248656c7065723a3a736166655472616e736665723a20747260448201526c185b9cd9995c8819985a5b1959609a1b6064820152608401610659565b5050505050565b600280546001600160a01b038381166001600160a01b0319831681179093556040519116919082907f8be0079c531659141344cd1fd0a4f28419497f9722a3daafe3b4186f6b6457e090600090a35050565b60008054818061222683612765565b9190505550600054905090565b60408101516001600160a01b0381161561229057336001600160a01b03821614611f525760405162461bcd60e51b815260206004820152600e60248201526d24b73b30b634b2102932b73a32b960911b6044820152606401610659565b503360409190910152565b604051806101400160405280600081526020016060815260200160006001600160a01b03168152602001600081526020016000815260200160008152602001600081526020016000815260200160006001600160401b0316815260200160006001600160401b031681525090565b6000806040838503121561231c57600080fd5b50508035926020909101359150565b6020808252825182820181905260009190848201906040850190845b8181101561236357835183529284019291840191600101612347565b50909695505050505050565b60006020828403121561238157600080fd5b81356001600160a01b038116811461239857600080fd5b9392505050565b6000602082840312156123b157600080fd5b5035919050565b60005b838110156123d35781810151838201526020016123bb565b50506000910152565b600081518084526123f48160208601602086016123b8565b601f01601f19169290920160200192915050565b6000610140825184526020830151816020860152612428828601826123dc565b915050604083015161244560408601826001600160a01b03169052565b50606083015160608501526080830151608085015260a083015160a085015260c083015160c085015260e083015160e085015261010080840151612493828701826001600160401b03169052565b5050610120928301516001600160401b03169390920192909252919050565b6020815260006123986020830184612408565b6000602080830181845280855180835260408601915060408160051b870101925083870160005b8281101561251a57603f19888603018452612508858351612408565b945092850192908501906001016124ec565b5092979650505050505050565b60008083601f84011261253957600080fd5b5081356001600160401b0381111561255057600080fd5b60208301915083602082850101111561256857600080fd5b9250929050565b60008060008060006080868803121561258757600080fd5b8535945060208601356001600160401b038111156125a457600080fd5b6125b088828901612527565b9699909850959660408101359660609091013595509350505050565b600080600080606085870312156125e257600080fd5b843593506020850135925060408501356001600160401b0381111561260657600080fd5b61261287828801612527565b95989497509550505050565b6000806000806060858703121561263457600080fd5b84356001600160401b0381111561264a57600080fd5b61265687828801612527565b90989097506020870135966040013595509350505050565b60006101408c83528060208401526126888184018d6123dc565b6001600160a01b039b909b16604084015250506060810197909752608087019590955260a086019390935260c085019190915260e08401526001600160401b03908116610100840152166101209091015292915050565b6000806000606084860312156126f457600080fd5b8335925060208401356001600160401b038116811461271257600080fd5b929592945050506040919091013590565b634e487b7160e01b600052604160045260246000fd5b634e487b7160e01b600052603260045260246000fd5b634e487b7160e01b600052601160045260246000fd5b6000600182016127775761277761274f565b5060010190565b600181811c9082168061279257607f821691505b6020821081036127b257634e487b7160e01b600052602260045260246000fd5b50919050565b601f8211156127fe57600081815260208120601f850160051c810160208610156127df5750805b601f850160051c820191505b8181101561208c578281556001016127eb565b505050565b81516001600160401b0381111561281c5761281c612723565b6128308161282a845461277e565b846127b8565b602080601f831160018114612865576000841561284d5750858301515b600019600386901b1c1916600185901b17855561208c565b600085815260208120601f198616915b8281101561289457888601518255948401946001909101908401612875565b50858210156128b25787850151600019600388901b60f8161c191681555b5050505050600190811b01905550565b818103818111156104c9576104c961274f565b808201808211156104c9576104c961274f565b80820281158282048414176104c9576104c961274f565b6001600160401b038181168382160280821691908281146129225761292261274f565b505092915050565b60008261294757634e487b7160e01b600052601260045260246000fd5b500490565b6000825161295e8184602087016123b8565b9190910192915050565b60006020828403121561297a57600080fd5b8151801515811461239857600080fdfef12a1a922705ffd5ec4fc8a3f56e1ddef3c5f715c7034230a0a280240c29a6f0a2646970667358221220dbb2e1d48fb2ba8081461b598575cf4e1ef961bc72fad524133641f6b939ac2964736f6c63430008130033",
    "sourcePath": "c:/Projects/Toolblox.Audit/Toolblox.Token/Audit/RentalWorkflow.sol",
    "compiler": {
        "name": "solc",
        "version": "0.8.19+commit.7dd6d404"
    },
    "functionHashes": {
        "charge(uint256)": "e457e1e5",
        "chargeWithCollateral(uint256)": "abeb0b7e",
        "endAndSettle(uint256)": "615704c4",
        "endRental(uint256)": "97491d6f",
        "finalCharge(uint256,uint256)": "393bef2b",
        "getItem(uint256)": "3129e773",
        "getLatest(uint256)": "33495dd3",
        "getLatestIds(uint256)": "59f719f5",
        "getPage(uint256,uint256)": "cd1a2e91",
        "getPageIds(uint256,uint256)": "06889aa8",
        "items(uint256)": "bfb231d2",
        "makeAvailable(uint256,string,uint256,uint256)": "806a0faf",
        "owner()": "8da5cb5b",
        "registerItem(string,uint256,uint256)": "a7c6309b",
        "releaseCollateral(uint256,uint256,string)": "67bc080c",
        "renounceOwnership()": "715018a6",
        "setOwner(address)": "13af4035",
        "startRent(uint256,uint64,uint256)": "cbd44ec4",
        "token()": "fc0c546a",
        "transferOwnership(address)": "f2fde38b",
        "update(uint256,string,uint256,uint256)": "5adc0246"
    },
    "gasEstimates": {
        "creation": {
            "codeDepositCost": "2144000",
            "executionCost": "infinite",
            "totalCost": "infinite"
        },
        "external": {
            "": "207",
            "charge(uint256)": "infinite",
            "chargeWithCollateral(uint256)": "infinite",
            "endAndSettle(uint256)": "infinite",
            "endRental(uint256)": "infinite",
            "finalCharge(uint256,uint256)": "infinite",
            "getItem(uint256)": "infinite",
            "getLatest(uint256)": "infinite",
            "getLatestIds(uint256)": "infinite",
            "getPage(uint256,uint256)": "infinite",
            "getPageIds(uint256,uint256)": "infinite",
            "items(uint256)": "infinite",
            "makeAvailable(uint256,string,uint256,uint256)": "infinite",
            "owner()": "2365",
            "registerItem(string,uint256,uint256)": "infinite",
            "releaseCollateral(uint256,uint256,string)": "infinite",
            "renounceOwnership()": "infinite",
            "setOwner(address)": "infinite",
            "startRent(uint256,uint64,uint256)": "infinite",
            "token()": "2469",
            "transferOwnership(address)": "28411",
            "update(uint256,string,uint256,uint256)": "infinite"
        },
        "internal": {
            "_assertOnlyRenter(struct RentalWorkflow.Rental memory)": "infinite",
            "_assertStatus(struct RentalWorkflow.Rental memory,uint64)": "infinite"
        }
    }
}