{
    "contractName": "RentalWorkflow",
    "abi": [
        {
            "inputs": [],
            "stateMutability": "nonpayable",
            "type": "constructor"
        },
        {
            "anonymous": false,
            "inputs": [
                {
                    "indexed": false,
                    "internalType": "uint256",
                    "name": "_id",
                    "type": "uint256"
                },
                {
                    "indexed": false,
                    "internalType": "uint64",
                    "name": "_status",
                    "type": "uint64"
                }
            ],
            "name": "ItemUpdated",
            "type": "event"
        },
        {
            "anonymous": false,
            "inputs": [
                {
                    "indexed": true,
                    "internalType": "address",
                    "name": "previousOwner",
                    "type": "address"
                },
                {
                    "indexed": true,
                    "internalType": "address",
                    "name": "newOwner",
                    "type": "address"
                }
            ],
            "name": "OwnershipTransferred",
            "type": "event"
        },
        {
            "anonymous": false,
            "inputs": [
                {
                    "indexed": false,
                    "internalType": "address",
                    "name": "account",
                    "type": "address"
                }
            ],
            "name": "Paused",
            "type": "event"
        },
        {
            "anonymous": false,
            "inputs": [
                {
                    "indexed": false,
                    "internalType": "address",
                    "name": "account",
                    "type": "address"
                }
            ],
            "name": "Unpaused",
            "type": "event"
        },
        {
            "inputs": [
                {
                    "internalType": "uint256",
                    "name": "id",
                    "type": "uint256"
                }
            ],
            "name": "charge",
            "outputs": [
                {
                    "internalType": "uint256",
                    "name": "",
                    "type": "uint256"
                }
            ],
            "stateMutability": "nonpayable",
            "type": "function"
        },
        {
            "inputs": [
                {
                    "internalType": "uint256",
                    "name": "id",
                    "type": "uint256"
                }
            ],
            "name": "chargeWithCollateral",
            "outputs": [
                {
                    "internalType": "uint256",
                    "name": "",
                    "type": "uint256"
                }
            ],
            "stateMutability": "nonpayable",
            "type": "function"
        },
        {
            "inputs": [
                {
                    "internalType": "uint256",
                    "name": "id",
                    "type": "uint256"
                }
            ],
            "name": "endAndSettle",
            "outputs": [
                {
                    "internalType": "uint256",
                    "name": "",
                    "type": "uint256"
                }
            ],
            "stateMutability": "nonpayable",
            "type": "function"
        },
        {
            "inputs": [
                {
                    "internalType": "uint256",
                    "name": "id",
                    "type": "uint256"
                }
            ],
            "name": "endRental",
            "outputs": [
                {
                    "internalType": "uint256",
                    "name": "",
                    "type": "uint256"
                }
            ],
            "stateMutability": "nonpayable",
            "type": "function"
        },
        {
            "inputs": [
                {
                    "internalType": "uint256",
                    "name": "id",
                    "type": "uint256"
                },
                {
                    "internalType": "uint256",
                    "name": "chargeAmount",
                    "type": "uint256"
                }
            ],
            "name": "finalCharge",
            "outputs": [
                {
                    "internalType": "uint256",
                    "name": "",
                    "type": "uint256"
                }
            ],
            "stateMutability": "nonpayable",
            "type": "function"
        },
        {
            "inputs": [
                {
                    "internalType": "uint256",
                    "name": "id",
                    "type": "uint256"
                }
            ],
            "name": "getItem",
            "outputs": [
                {
                    "components": [
                        {
                            "internalType": "uint256",
                            "name": "id",
                            "type": "uint256"
                        },
                        {
                            "internalType": "string",
                            "name": "name",
                            "type": "string"
                        },
                        {
                            "internalType": "address",
                            "name": "renter",
                            "type": "address"
                        },
                        {
                            "internalType": "uint256",
                            "name": "startTime",
                            "type": "uint256"
                        },
                        {
                            "internalType": "uint256",
                            "name": "pricePerDay",
                            "type": "uint256"
                        },
                        {
                            "internalType": "uint256",
                            "name": "daysCharged",
                            "type": "uint256"
                        },
                        {
                            "internalType": "uint256",
                            "name": "collateral",
                            "type": "uint256"
                        },
                        {
                            "internalType": "uint256",
                            "name": "leftoverCharge",
                            "type": "uint256"
                        },
                        {
                            "internalType": "uint64",
                            "name": "numberOfDays",
                            "type": "uint64"
                        },
                        {
                            "internalType": "uint64",
                            "name": "status",
                            "type": "uint64"
                        }
                    ],
                    "internalType": "struct RentalWorkflow.Rental",
                    "name": "",
                    "type": "tuple"
                }
            ],
            "stateMutability": "view",
            "type": "function"
        },
        {
            "inputs": [
                {
                    "internalType": "uint256",
                    "name": "cnt",
                    "type": "uint256"
                }
            ],
            "name": "getLatest",
            "outputs": [
                {
                    "components": [
                        {
                            "internalType": "uint256",
                            "name": "id",
                            "type": "uint256"
                        },
                        {
                            "internalType": "string",
                            "name": "name",
                            "type": "string"
                        },
                        {
                            "internalType": "address",
                            "name": "renter",
                            "type": "address"
                        },
                        {
                            "internalType": "uint256",
                            "name": "startTime",
                            "type": "uint256"
                        },
                        {
                            "internalType": "uint256",
                            "name": "pricePerDay",
                            "type": "uint256"
                        },
                        {
                            "internalType": "uint256",
                            "name": "daysCharged",
                            "type": "uint256"
                        },
                        {
                            "internalType": "uint256",
                            "name": "collateral",
                            "type": "uint256"
                        },
                        {
                            "internalType": "uint256",
                            "name": "leftoverCharge",
                            "type": "uint256"
                        },
                        {
                            "internalType": "uint64",
                            "name": "numberOfDays",
                            "type": "uint64"
                        },
                        {
                            "internalType": "uint64",
                            "name": "status",
                            "type": "uint64"
                        }
                    ],
                    "internalType": "struct RentalWorkflow.Rental[]",
                    "name": "",
                    "type": "tuple[]"
                }
            ],
            "stateMutability": "view",
            "type": "function"
        },
        {
            "inputs": [
                {
                    "internalType": "uint256",
                    "name": "cnt",
                    "type": "uint256"
                }
            ],
            "name": "getLatestIds",
            "outputs": [
                {
                    "internalType": "uint256[]",
                    "name": "",
                    "type": "uint256[]"
                }
            ],
            "stateMutability": "view",
            "type": "function"
        },
        {
            "inputs": [
                {
                    "internalType": "uint256",
                    "name": "cursor",
                    "type": "uint256"
                },
                {
                    "internalType": "uint256",
                    "name": "howMany",
                    "type": "uint256"
                }
            ],
            "name": "getPage",
            "outputs": [
                {
                    "components": [
                        {
                            "internalType": "uint256",
                            "name": "id",
                            "type": "uint256"
                        },
                        {
                            "internalType": "string",
                            "name": "name",
                            "type": "string"
                        },
                        {
                            "internalType": "address",
                            "name": "renter",
                            "type": "address"
                        },
                        {
                            "internalType": "uint256",
                            "name": "startTime",
                            "type": "uint256"
                        },
                        {
                            "internalType": "uint256",
                            "name": "pricePerDay",
                            "type": "uint256"
                        },
                        {
                            "internalType": "uint256",
                            "name": "daysCharged",
                            "type": "uint256"
                        },
                        {
                            "internalType": "uint256",
                            "name": "collateral",
                            "type": "uint256"
                        },
                        {
                            "internalType": "uint256",
                            "name": "leftoverCharge",
                            "type": "uint256"
                        },
                        {
                            "internalType": "uint64",
                            "name": "numberOfDays",
                            "type": "uint64"
                        },
                        {
                            "internalType": "uint64",
                            "name": "status",
                            "type": "uint64"
                        }
                    ],
                    "internalType": "struct RentalWorkflow.Rental[]",
                    "name": "",
                    "type": "tuple[]"
                }
            ],
            "stateMutability": "view",
            "type": "function"
        },
        {
            "inputs": [
                {
                    "internalType": "uint256",
                    "name": "cursor",
                    "type": "uint256"
                },
                {
                    "internalType": "uint256",
                    "name": "howMany",
                    "type": "uint256"
                }
            ],
            "name": "getPageIds",
            "outputs": [
                {
                    "internalType": "uint256[]",
                    "name": "",
                    "type": "uint256[]"
                }
            ],
            "stateMutability": "view",
            "type": "function"
        },
        {
            "inputs": [
                {
                    "internalType": "uint256",
                    "name": "",
                    "type": "uint256"
                }
            ],
            "name": "items",
            "outputs": [
                {
                    "internalType": "uint256",
                    "name": "id",
                    "type": "uint256"
                },
                {
                    "internalType": "string",
                    "name": "name",
                    "type": "string"
                },
                {
                    "internalType": "address",
                    "name": "renter",
                    "type": "address"
                },
                {
                    "internalType": "uint256",
                    "name": "startTime",
                    "type": "uint256"
                },
                {
                    "internalType": "uint256",
                    "name": "pricePerDay",
                    "type": "uint256"
                },
                {
                    "internalType": "uint256",
                    "name": "daysCharged",
                    "type": "uint256"
                },
                {
                    "internalType": "uint256",
                    "name": "collateral",
                    "type": "uint256"
                },
                {
                    "internalType": "uint256",
                    "name": "leftoverCharge",
                    "type": "uint256"
                },
                {
                    "internalType": "uint64",
                    "name": "numberOfDays",
                    "type": "uint64"
                },
                {
                    "internalType": "uint64",
                    "name": "status",
                    "type": "uint64"
                }
            ],
            "stateMutability": "view",
            "type": "function"
        },
        {
            "inputs": [
                {
                    "internalType": "uint256",
                    "name": "id",
                    "type": "uint256"
                },
                {
                    "internalType": "string",
                    "name": "name",
                    "type": "string"
                },
                {
                    "internalType": "uint256",
                    "name": "collateral",
                    "type": "uint256"
                },
                {
                    "internalType": "uint256",
                    "name": "pricePerDay",
                    "type": "uint256"
                }
            ],
            "name": "makeAvailable",
            "outputs": [
                {
                    "internalType": "uint256",
                    "name": "",
                    "type": "uint256"
                }
            ],
            "stateMutability": "nonpayable",
            "type": "function"
        },
        {
            "inputs": [],
            "name": "owner",
            "outputs": [
                {
                    "internalType": "address",
                    "name": "",
                    "type": "address"
                }
            ],
            "stateMutability": "view",
            "type": "function"
        },
        {
            "inputs": [],
            "name": "pause",
            "outputs": [],
            "stateMutability": "nonpayable",
            "type": "function"
        },
        {
            "inputs": [],
            "name": "paused",
            "outputs": [
                {
                    "internalType": "bool",
                    "name": "",
                    "type": "bool"
                }
            ],
            "stateMutability": "view",
            "type": "function"
        },
        {
            "inputs": [
                {
                    "internalType": "string",
                    "name": "name",
                    "type": "string"
                },
                {
                    "internalType": "uint256",
                    "name": "collateral",
                    "type": "uint256"
                },
                {
                    "internalType": "uint256",
                    "name": "pricePerDay",
                    "type": "uint256"
                }
            ],
            "name": "registerItem",
            "outputs": [
                {
                    "internalType": "uint256",
                    "name": "",
                    "type": "uint256"
                }
            ],
            "stateMutability": "nonpayable",
            "type": "function"
        },
        {
            "inputs": [
                {
                    "internalType": "uint256",
                    "name": "id",
                    "type": "uint256"
                },
                {
                    "internalType": "uint256",
                    "name": "chargeAmount",
                    "type": "uint256"
                },
                {
                    "internalType": "string",
                    "name": "",
                    "type": "string"
                }
            ],
            "name": "releaseCollateral",
            "outputs": [
                {
                    "internalType": "uint256",
                    "name": "",
                    "type": "uint256"
                }
            ],
            "stateMutability": "nonpayable",
            "type": "function"
        },
        {
            "inputs": [],
            "name": "renounceOwnership",
            "outputs": [],
            "stateMutability": "nonpayable",
            "type": "function"
        },
        {
            "inputs": [
                {
                    "internalType": "address",
                    "name": "_newOwner",
                    "type": "address"
                }
            ],
            "name": "setOwner",
            "outputs": [],
            "stateMutability": "nonpayable",
            "type": "function"
        },
        {
            "inputs": [
                {
                    "internalType": "uint256",
                    "name": "id",
                    "type": "uint256"
                },
                {
                    "internalType": "uint64",
                    "name": "numberOfDays",
                    "type": "uint64"
                },
                {
                    "internalType": "uint256",
                    "name": "allowance",
                    "type": "uint256"
                }
            ],
            "name": "startRent",
            "outputs": [
                {
                    "internalType": "uint256",
                    "name": "",
                    "type": "uint256"
                }
            ],
            "stateMutability": "nonpayable",
            "type": "function"
        },
        {
            "inputs": [],
            "name": "token",
            "outputs": [
                {
                    "internalType": "address",
                    "name": "",
                    "type": "address"
                }
            ],
            "stateMutability": "view",
            "type": "function"
        },
        {
            "inputs": [
                {
                    "internalType": "address",
                    "name": "newOwner",
                    "type": "address"
                }
            ],
            "name": "transferOwnership",
            "outputs": [],
            "stateMutability": "nonpayable",
            "type": "function"
        },
        {
            "inputs": [],
            "name": "unpause",
            "outputs": [],
            "stateMutability": "nonpayable",
            "type": "function"
        },
        {
            "inputs": [
                {
                    "internalType": "uint256",
                    "name": "id",
                    "type": "uint256"
                },
                {
                    "internalType": "string",
                    "name": "name",
                    "type": "string"
                },
                {
                    "internalType": "uint256",
                    "name": "collateral",
                    "type": "uint256"
                },
                {
                    "internalType": "uint256",
                    "name": "pricePerDay",
                    "type": "uint256"
                }
            ],
            "name": "update",
            "outputs": [
                {
                    "internalType": "uint256",
                    "name": "",
                    "type": "uint256"
                }
            ],
            "stateMutability": "nonpayable",
            "type": "function"
        }
    ],
    "bytecode": "608060405260008055600480546001600160a01b03191673fe4f5145f6e09952a5ba9e956ed0c25e3fa4c7f11790553480156200003b57600080fd5b50620000473362000065565b6002805460ff60a01b191690556200005f3362000065565b620000b7565b600280546001600160a01b038381166001600160a01b0319831681179093556040519116919082907f8be0079c531659141344cd1fd0a4f28419497f9722a3daafe3b4186f6b6457e090600090a35050565b612b2e80620000c76000396000f3fe608060405234801561001057600080fd5b50600436106101585760003560e01c8063806a0faf116100c3578063bfb231d21161007c578063bfb231d2146102ee578063cbd44ec414610317578063cd1a2e911461032a578063e457e1e51461033d578063f2fde38b14610350578063fc0c546a1461036357600080fd5b8063806a0faf146102755780638456cb59146102885780638da5cb5b1461029057806397491d6f146102b5578063a7c6309b146102c8578063abeb0b7e146102db57600080fd5b806359f719f51161011557806359f719f5146102045780635adc0246146102175780635c975abb1461022a578063615704c41461024757806367bc080c1461025a578063715018a61461026d57600080fd5b806306889aa81461015d57806313af4035146101865780633129e7731461019b57806333495dd3146101bb578063393bef2b146101db5780633f4ba83a146101fc575b600080fd5b61017061016b366004612457565b610376565b60405161017d9190612479565b60405180910390f35b6101996101943660046124bd565b61041f565b005b6101ae6101a93660046124ed565b61042b565b60405161017d9190612600565b6101ce6101c93660046124ed565b6105b2565b60405161017d9190612613565b6101ee6101e9366004612457565b61079c565b60405190815260200161017d565b6101996109a1565b6101706102123660046124ed565b6109b3565b6101ee6102253660046126bd565b610aa9565b600254600160a01b900460ff16604051901515815260200161017d565b6101ee6102553660046124ed565b610c14565b6101ee61026836600461271a565b610ecc565b61019961108c565b6101ee6102833660046126bd565b61109e565b610199611162565b6002546001600160a01b03165b6040516001600160a01b03909116815260200161017d565b6101ee6102c33660046124ed565b611172565b6101ee6102d636600461276c565b6113e5565b6101ee6102e93660046124ed565b61160e565b6103016102fc3660046124ed565b611794565b60405161017d9a999897969594939291906127bc565b6101ee61032536600461282d565b611883565b6101ce610338366004612457565b611a48565b6101ee61034b3660046124ed565b611c2b565b61019961035e3660046124bd565b611e1f565b60045461029d906001600160a01b031681565b60606000826001600160401b0381111561039257610392612871565b6040519080825280602002602001820160405280156103bb578160200160208202803683370190505b50905060005b60005485111580156103d257508381105b1561041557848282815181106103ea576103ea612887565b6020908102919091010152806103ff816128b3565b915050848061040d906128b3565b9550506103c1565b5090505b92915050565b61042881611e1f565b50565b6104336123e9565b600060036000848152602001908152602001600020604051806101400160405290816000820154815260200160018201805461046e906128cc565b80601f016020809104026020016040519081016040528092919081815260200182805461049a906128cc565b80156104e75780601f106104bc576101008083540402835291602001916104e7565b820191906000526020600020905b8154815290600101906020018083116104ca57829003601f168201915b505050918352505060028201546001600160a01b03166020820152600382015460408201526004820154606082015260058201546080820152600682015460a0820152600782015460c08201526008909101546001600160401b0380821660e0840152600160401b9091041661010090910152805190915083146104195760405162461bcd60e51b815260206004820152601e60248201527f43616e6e6f742066696e64206974656d207769746820676976656e206964000060448201526064015b60405180910390fd5b606060006105bf836109b3565b9050600081516001600160401b038111156105dc576105dc612871565b60405190808252806020026020018201604052801561061557816020015b6106026123e9565b8152602001906001900390816105fa5790505b50905060005b8251811015610794576003600084838151811061063a5761063a612887565b602002602001015181526020019081526020016000206040518061014001604052908160008201548152602001600182018054610676906128cc565b80601f01602080910402602001604051908101604052809291908181526020018280546106a2906128cc565b80156106ef5780601f106106c4576101008083540402835291602001916106ef565b820191906000526020600020905b8154815290600101906020018083116106d257829003601f168201915b505050918352505060028201546001600160a01b03166020820152600382015460408201526004820154606082015260058201546080820152600682015460a0820152600782015460c08201526008909101546001600160401b0380821660e0840152600160401b9091041661010090910152825183908390811061077657610776612887565b6020026020010181905250808061078c906128b3565b91505061061b565b509392505050565b60006107a6611e95565b6107ae611eef565b60006107b98461042b565b90506107c6816002611f3c565b8060e0015183111561081a5760405162461bcd60e51b815260206004820181905260248201527f43616e6e6f7420636861726765206d6f7265207468616e206c6566746f76657260448201526064016105a9565b8060e00151831461082c57600261082f565b60045b60ff166101208201526000848152600360209081526040909120825181559082015182919060018201906108639082612951565b506040828101516002830180546001600160a01b039092166001600160a01b0319909216919091179055606083015160038301556080830151600483015560a0830151600583015560c0830151600683015560e0830151600783015561010083015160089092018054610120948501516001600160401b03908116600160401b026001600160801b03199092169481169490941717905591830151825187815291166020820152600080516020612ad9833981519152910160405180910390a160006109376002546001600160a01b031690565b6001600160a01b03161415801561095a575060408101516001600160a01b031615155b80156109665750600083115b15610999576004546040820151610999916001600160a01b0316906109936002546001600160a01b031690565b86611fbc565b509192915050565b6109a9611e95565b6109b16120fa565b565b60008054606091818410156109cf576109cc8483612a10565b90505b818111806109db575081155b156109fb5760408051600080825260208201909252905b50949350505050565b6000610a078284612a10565b6001600160401b03811115610a1e57610a1e612871565b604051908082528060200260200182016040528015610a47578160200160208202803683370190505b5090506000825b84811015610a9e57610a61816001612a23565b838381518110610a7357610a73612887565b602090810291909101015281610a88816128b3565b9250508080610a96906128b3565b915050610a4e565b509095945050505050565b6000610ab3611e95565b610abb611eef565b6000610ac68761042b565b9050610ad3816003611f3c565b85858080601f0160208091040260200160405190810160405280939291908181526020018383808284376000920182905250602080870195865260c087018a905260808701899052600361012088018190528d835290526040902085518155935185949350600184019250610b49915082612951565b506040828101516002830180546001600160a01b039092166001600160a01b0319909216919091179055606083015160038301556080830151600483015560a0830151600583015560c0830151600683015560e0830151600783015561010083015160089092018054610120948501516001600160401b03908116600160401b026001600160801b0319909216948116949094171790559183015182518a815291166020820152600080516020612ad9833981519152910160405180910390a1509495945050505050565b6000610c1e611e95565b610c26611eef565b6000610c318361042b565b9050610c3e816001611f3c565b600081608001518260a001518361010001516001600160401b0316610c639190612a10565b610c6d9190612a36565b905060008261010001516018610c839190612a4d565b610c8e90603c612a4d565b610c9990603c612a4d565b6001600160401b03168360600151610cb19190612a23565b9050804211610cc1576000610cfd565b603c8060188560800151610cd59190612a78565b610cdf9190612a78565b610ce99190612a78565b610cf34283612a10565b610cfd9190612a36565b610d079083612a23565b60e08401526005610120840152600085815260036020908152604090912084518155908401518491906001820190610d3f9082612951565b506040828101516002830180546001600160a01b039092166001600160a01b0319909216919091179055606083015160038301556080830151600483015560a0830151600583015560c0830151600683015560e0830151600783015561010083015160089092018054610120948501516001600160401b03908116600160401b026001600160801b03199092169481169490941717905591850151825188815291166020820152600080516020612ad9833981519152910160405180910390a160408301516001600160a01b031615801590610e1f575060008360c00151115b15610e4557600454604084015160c0850151610e45926001600160a01b0316919061214f565b6000610e596002546001600160a01b031690565b6001600160a01b031614158015610e7c575060408301516001600160a01b031615155b8015610e8c575060008360e00151115b15610ec3576004546040840151610ec3916001600160a01b031690610eb96002546001600160a01b031690565b8660e00151611fbc565b50929392505050565b6000610ed6611eef565b6000610ee18661042b565b9050610eee816004611f3c565b848160c001511015610f345760405162461bcd60e51b815260206004820152600f60248201526e48617320636f6c6c61746572616c3f60881b60448201526064016105a9565b848160c00151610f449190612a10565b60c08201526005610120820152600086815260036020908152604090912082518155908201518291906001820190610f7c9082612951565b506040828101516002830180546001600160a01b039092166001600160a01b0319909216919091179055606083015160038301556080830151600483015560a0830151600583015560c0830151600683015560e0830151600783015561010083015160089092018054610120948501516001600160401b03908116600160401b026001600160801b03199092169481169490941717905591830151825189815291166020820152600080516020612ad9833981519152910160405180910390a160408101516001600160a01b03161580159061105c575060008160c00151115b1561108257600454604082015160c0830151611082926001600160a01b0316919061214f565b5093949350505050565b611094611e95565b6109b16000612280565b60006110a8611e95565b6110b0611eef565b60006110bb8761042b565b90506110c8816005611f3c565b85858080601f0160208091040260200160405190810160405280939291908181526020018383808284376000920182905250602080870195865260c087018a90526080870189905260408088018390526060880183905260e0880183905260a088018390526101008801839052600361012089018190528e8452909152902085518155935185949350600184019250610b49915082612951565b61116a611e95565b6109b16122d2565b600061117c611eef565b60006111878361042b565b60408101519091506001600160a01b03163314806111af57506002546001600160a01b031633145b6112105760405162461bcd60e51b815260206004820152602c60248201527f416363657373207265737472696374656420746f3a2072656e7465722c20776f60448201526b3935b33637bb9037bbb732b960a11b60648201526084016105a9565b61121b816001611f3c565b600081608001518260a001518361010001516001600160401b03166112409190612a10565b61124a9190612a36565b9050600082610100015160186112609190612a4d565b61126b90603c612a4d565b61127690603c612a4d565b6001600160401b0316836060015161128e9190612a23565b905080421161129e5760006112da565b603c80601885608001516112b29190612a78565b6112bc9190612a78565b6112c69190612a78565b6112d04283612a10565b6112da9190612a36565b6112e49083612a23565b60e0840152600261012084015260008581526003602090815260409091208451815590840151849190600182019061131c9082612951565b506040828101516002830180546001600160a01b039092166001600160a01b0319909216919091179055606083015160038301556080830151600483015560a0830151600583015560c0830151600683015560e0830151600783015561010083015160089092018054610120948501516001600160401b03908116600160401b026001600160801b03199092169481169490941717905591850151825188815291166020820152600080516020612ad9833981519152910160405180910390a150929392505050565b60006113ef611e95565b6113f7611eef565b6000611401612315565b905061140b6123e9565b8181526000828152600360209081526040909120825181559082015182919060018201906114399082612951565b506040828101516002830180546001600160a01b039092166001600160a01b0319909216919091179055606083015160038301556080830151600483015560a0830151600583015560c0830151600683015560e0830151600783015561010083015160089092018054610120909401516001600160401b03908116600160401b026001600160801b031990951693169290921792909217905580516020601f89018190048102820181019092528781529088908890819084018382808284376000920182905250602080870195865260c087018b9052608087018a90526003610120880181905288835290526040902085518155935185949350600184019250611544915082612951565b506040828101516002830180546001600160a01b039092166001600160a01b0319909216919091179055606083015160038301556080830151600483015560a0830151600583015560c0830151600683015560e0830151600783015561010083015160089092018054610120948501516001600160401b03908116600160401b026001600160801b03199092169481169490941717905591830151825185815291166020820152600080516020612ad9833981519152910160405180910390a15095945050505050565b6000611618611e95565b611620611eef565b600061162b8361042b565b9050611638816002611f3c565b8060e001518160c0015110156116815760405162461bcd60e51b815260206004820152600e60248201526d12185cc818dbdb1b185d195c985b60921b60448201526064016105a9565b8060e001518160c001516116959190612a10565b60c082015260046101208201526000838152600360209081526040909120825181559082015182919060018201906116cd9082612951565b506040828101516002830180546001600160a01b039092166001600160a01b0319909216919091179055606083015160038301556080830151600483015560a0830151600583015560c0830151600683015560e0830151600783015561010083015160089092018054610120948501516001600160401b03908116600160401b026001600160801b03199092169481169490941717905591830151825186815291166020820152600080516020612ad9833981519152910160405180910390a15090919050565b600360205260009081526040902080546001820180549192916117b6906128cc565b80601f01602080910402602001604051908101604052809291908181526020018280546117e2906128cc565b801561182f5780601f106118045761010080835404028352916020019161182f565b820191906000526020600020905b81548152906001019060200180831161181257829003601f168201915b5050505060028301546003840154600485015460058601546006870154600788015460089098015496976001600160a01b0390951696939550919390926001600160401b0380821691600160401b9004168a565b600061188d611eef565b60006118988561042b565b90506118a381612331565b6118ae816003611f3c565b60808101516118c6906001600160401b038616612a36565b831461190c5760405162461bcd60e51b8152602060048201526015602482015274416c6c6f77616e636520697320636f72726563743f60581b60448201526064016105a9565b6001600160401b038416610100820152426060820152600161012082018190526000868152600360209081526040909120835181559083015183928201906119549082612951565b506040828101516002830180546001600160a01b039092166001600160a01b0319909216919091179055606083015160038301556080830151600483015560a0830151600583015560c0830151600683015560e0830151600783015561010083015160089092018054610120948501516001600160401b03908116600160401b026001600160801b03199092169481169490941717905591830151825188815291166020820152600080516020612ad9833981519152910160405180910390a13015801590611a27575060008160c00151115b15610ec357600454610ec3906001600160a01b031633308460c00151611fbc565b60606000611a568484610376565b9050600081516001600160401b03811115611a7357611a73612871565b604051908082528060200260200182016040528015611aac57816020015b611a996123e9565b815260200190600190039081611a915790505b50905060005b82518110156109f25760036000848381518110611ad157611ad1612887565b602002602001015181526020019081526020016000206040518061014001604052908160008201548152602001600182018054611b0d906128cc565b80601f0160208091040260200160405190810160405280929190818152602001828054611b39906128cc565b8015611b865780601f10611b5b57610100808354040283529160200191611b86565b820191906000526020600020905b815481529060010190602001808311611b6957829003601f168201915b505050918352505060028201546001600160a01b03166020820152600382015460408201526004820154606082015260058201546080820152600682015460a0820152600782015460c08201526008909101546001600160401b0380821660e0840152600160401b90910416610100909101528251839083908110611c0d57611c0d612887565b60200260200101819052508080611c23906128b3565b915050611ab2565b6000611c35611e95565b611c3d611eef565b6000611c488361042b565b9050611c55816001611f3c565b60008160a0015162015180836060015142611c709190612a10565b611c7a9190612a78565b611c849190612a10565b9050808260a00151611c969190612a23565b60a08301526080820151611caa9082612a36565b60e083015260016101208301819052600085815260036020908152604090912084518155908401518492820190611ce19082612951565b506040828101516002830180546001600160a01b039092166001600160a01b0319909216919091179055606083015160038301556080830151600483015560a0830151600583015560c0830151600683015560e0830151600783015561010083015160089092018054610120948501516001600160401b03908116600160401b026001600160801b03199092169481169490941717905591840151825187815291166020820152600080516020612ad9833981519152910160405180910390a16000611db56002546001600160a01b031690565b6001600160a01b031614158015611dd8575060408201516001600160a01b031615155b8015611de8575060008260e00151115b15610999576004546040830151610999916001600160a01b031690611e156002546001600160a01b031690565b8560e00151611fbc565b611e27611e95565b6001600160a01b038116611e8c5760405162461bcd60e51b815260206004820152602660248201527f4f776e61626c653a206e6577206f776e657220697320746865207a65726f206160448201526564647265737360d01b60648201526084016105a9565b61042881612280565b6002546001600160a01b031633146109b15760405162461bcd60e51b815260206004820181905260248201527f4f776e61626c653a2063616c6c6572206973206e6f7420746865206f776e657260448201526064016105a9565b600254600160a01b900460ff16156109b15760405162461bcd60e51b815260206004820152601060248201526f14185d5cd8589b194e881c185d5cd95960821b60448201526064016105a9565b806001600160401b03168261012001516001600160401b031614611fb85760405162461bcd60e51b815260206004820152602d60248201527f43616e6e6f742072756e20576f726b666c6f7720616374696f6e3b20756e657860448201526c7065637465642073746174757360981b60648201526084016105a9565b5050565b604080516001600160a01b0385811660248301528481166044830152606480830185905283518084039091018152608490920183526020820180516001600160e01b03166323b872dd60e01b17905291516000928392908816916120209190612a9a565b6000604051808303816000865af19150503d806000811461205d576040519150601f19603f3d011682016040523d82523d6000602084013e612062565b606091505b509150915081801561208c57508051158061208c57508080602001905181019061208c9190612ab6565b6120f25760405162461bcd60e51b815260206004820152603160248201527f5472616e7366657248656c7065723a3a7472616e7366657246726f6d3a207472604482015270185b9cd9995c919c9bdb4819985a5b1959607a1b60648201526084016105a9565b505050505050565b612102612399565b6002805460ff60a01b191690557f5db9ee0a495bf2e6ff9c91a7834c1ba4fdd244a5e8aa4e537bd38aeae4b073aa335b6040516001600160a01b03909116815260200160405180910390a1565b604080516001600160a01b038481166024830152604480830185905283518084039091018152606490920183526020820180516001600160e01b031663a9059cbb60e01b17905291516000928392908716916121ab9190612a9a565b6000604051808303816000865af19150503d80600081146121e8576040519150601f19603f3d011682016040523d82523d6000602084013e6121ed565b606091505b50915091508180156122175750805115806122175750808060200190518101906122179190612ab6565b6122795760405162461bcd60e51b815260206004820152602d60248201527f5472616e7366657248656c7065723a3a736166655472616e736665723a20747260448201526c185b9cd9995c8819985a5b1959609a1b60648201526084016105a9565b5050505050565b600280546001600160a01b038381166001600160a01b0319831681179093556040519116919082907f8be0079c531659141344cd1fd0a4f28419497f9722a3daafe3b4186f6b6457e090600090a35050565b6122da611eef565b6002805460ff60a01b1916600160a01b1790557f62e78cea01bee320cd4e420270b5ea74000d11b0c9f74754ebdbfc544b05a2586121323390565b600080548180612324836128b3565b9190505550600054905090565b60408101516001600160a01b0381161561238e57336001600160a01b03821614611fb85760405162461bcd60e51b815260206004820152600e60248201526d24b73b30b634b2102932b73a32b960911b60448201526064016105a9565b503360409190910152565b600254600160a01b900460ff166109b15760405162461bcd60e51b815260206004820152601460248201527314185d5cd8589b194e881b9bdd081c185d5cd95960621b60448201526064016105a9565b604051806101400160405280600081526020016060815260200160006001600160a01b03168152602001600081526020016000815260200160008152602001600081526020016000815260200160006001600160401b0316815260200160006001600160401b031681525090565b6000806040838503121561246a57600080fd5b50508035926020909101359150565b6020808252825182820181905260009190848201906040850190845b818110156124b157835183529284019291840191600101612495565b50909695505050505050565b6000602082840312156124cf57600080fd5b81356001600160a01b03811681146124e657600080fd5b9392505050565b6000602082840312156124ff57600080fd5b5035919050565b60005b83811015612521578181015183820152602001612509565b50506000910152565b60008151808452612542816020860160208601612506565b601f01601f19169290920160200192915050565b60006101408251845260208301518160208601526125768286018261252a565b915050604083015161259360408601826001600160a01b03169052565b50606083015160608501526080830151608085015260a083015160a085015260c083015160c085015260e083015160e0850152610100808401516125e1828701826001600160401b03169052565b5050610120928301516001600160401b03169390920192909252919050565b6020815260006124e66020830184612556565b6000602080830181845280855180835260408601915060408160051b870101925083870160005b8281101561266857603f19888603018452612656858351612556565b9450928501929085019060010161263a565b5092979650505050505050565b60008083601f84011261268757600080fd5b5081356001600160401b0381111561269e57600080fd5b6020830191508360208285010111156126b657600080fd5b9250929050565b6000806000806000608086880312156126d557600080fd5b8535945060208601356001600160401b038111156126f257600080fd5b6126fe88828901612675565b9699909850959660408101359660609091013595509350505050565b6000806000806060858703121561273057600080fd5b843593506020850135925060408501356001600160401b0381111561275457600080fd5b61276087828801612675565b95989497509550505050565b6000806000806060858703121561278257600080fd5b84356001600160401b0381111561279857600080fd5b6127a487828801612675565b90989097506020870135966040013595509350505050565b60006101408c83528060208401526127d68184018d61252a565b6001600160a01b039b909b16604084015250506060810197909752608087019590955260a086019390935260c085019190915260e08401526001600160401b03908116610100840152166101209091015292915050565b60008060006060848603121561284257600080fd5b8335925060208401356001600160401b038116811461286057600080fd5b929592945050506040919091013590565b634e487b7160e01b600052604160045260246000fd5b634e487b7160e01b600052603260045260246000fd5b634e487b7160e01b600052601160045260246000fd5b6000600182016128c5576128c561289d565b5060010190565b600181811c908216806128e057607f821691505b60208210810361290057634e487b7160e01b600052602260045260246000fd5b50919050565b601f82111561294c57600081815260208120601f850160051c8101602086101561292d5750805b601f850160051c820191505b818110156120f257828155600101612939565b505050565b81516001600160401b0381111561296a5761296a612871565b61297e8161297884546128cc565b84612906565b602080601f8311600181146129b3576000841561299b5750858301515b600019600386901b1c1916600185901b1785556120f2565b600085815260208120601f198616915b828110156129e2578886015182559484019460019091019084016129c3565b5085821015612a005787850151600019600388901b60f8161c191681555b5050505050600190811b01905550565b818103818111156104195761041961289d565b808201808211156104195761041961289d565b80820281158282048414176104195761041961289d565b6001600160401b03818116838216028082169190828114612a7057612a7061289d565b505092915050565b600082612a9557634e487b7160e01b600052601260045260246000fd5b500490565b60008251612aac818460208701612506565b9190910192915050565b600060208284031215612ac857600080fd5b815180151581146124e657600080fdfef12a1a922705ffd5ec4fc8a3f56e1ddef3c5f715c7034230a0a280240c29a6f0a26469706673582212205b1b8f0281aa18096021e240b1b033b02b76d6bd89b413173fe227fc25265a2164736f6c63430008130033",
    "sourcePath": "c:/Projects/Toolblox.Audit/Toolblox.Token/Audit/RentalWorkflow.sol",
    "compiler": {
        "name": "solc",
        "version": "0.8.19+commit.7dd6d404"
    },
    "functionHashes": {
        "charge(uint256)": "e457e1e5",
        "chargeWithCollateral(uint256)": "abeb0b7e",
        "endAndSettle(uint256)": "615704c4",
        "endRental(uint256)": "97491d6f",
        "finalCharge(uint256,uint256)": "393bef2b",
        "getItem(uint256)": "3129e773",
        "getLatest(uint256)": "33495dd3",
        "getLatestIds(uint256)": "59f719f5",
        "getPage(uint256,uint256)": "cd1a2e91",
        "getPageIds(uint256,uint256)": "06889aa8",
        "items(uint256)": "bfb231d2",
        "makeAvailable(uint256,string,uint256,uint256)": "806a0faf",
        "owner()": "8da5cb5b",
        "pause()": "8456cb59",
        "paused()": "5c975abb",
        "registerItem(string,uint256,uint256)": "a7c6309b",
        "releaseCollateral(uint256,uint256,string)": "67bc080c",
        "renounceOwnership()": "715018a6",
        "setOwner(address)": "13af4035",
        "startRent(uint256,uint64,uint256)": "cbd44ec4",
        "token()": "fc0c546a",
        "transferOwnership(address)": "f2fde38b",
        "unpause()": "3f4ba83a",
        "update(uint256,string,uint256,uint256)": "5adc0246"
    },
    "gasEstimates": {
        "creation": {
            "codeDepositCost": "2210800",
            "executionCost": "infinite",
            "totalCost": "infinite"
        },
        "external": {
            "charge(uint256)": "infinite",
            "chargeWithCollateral(uint256)": "infinite",
            "endAndSettle(uint256)": "infinite",
            "endRental(uint256)": "infinite",
            "finalCharge(uint256,uint256)": "infinite",
            "getItem(uint256)": "infinite",
            "getLatest(uint256)": "infinite",
            "getLatestIds(uint256)": "infinite",
            "getPage(uint256,uint256)": "infinite",
            "getPageIds(uint256,uint256)": "infinite",
            "items(uint256)": "infinite",
            "makeAvailable(uint256,string,uint256,uint256)": "infinite",
            "owner()": "2387",
            "pause()": "infinite",
            "paused()": "2376",
            "registerItem(string,uint256,uint256)": "infinite",
            "releaseCollateral(uint256,uint256,string)": "infinite",
            "renounceOwnership()": "infinite",
            "setOwner(address)": "infinite",
            "startRent(uint256,uint64,uint256)": "infinite",
            "token()": "2469",
            "transferOwnership(address)": "28411",
            "unpause()": "infinite",
            "update(uint256,string,uint256,uint256)": "infinite"
        },
        "internal": {
            "_assertOrAssignRenter(struct RentalWorkflow.Rental memory)": "infinite",
            "_assertStatus(struct RentalWorkflow.Rental memory,uint64)": "infinite"
        }
    }
}