{
    "contractName": "RentalWorkflow",
    "abi": [
        {
            "inputs": [],
            "stateMutability": "nonpayable",
            "type": "constructor"
        },
        {
            "anonymous": false,
            "inputs": [
                {
                    "indexed": false,
                    "internalType": "uint256",
                    "name": "_id",
                    "type": "uint256"
                },
                {
                    "indexed": false,
                    "internalType": "uint64",
                    "name": "_status",
                    "type": "uint64"
                }
            ],
            "name": "ItemUpdated",
            "type": "event"
        },
        {
            "anonymous": false,
            "inputs": [
                {
                    "indexed": true,
                    "internalType": "address",
                    "name": "previousOwner",
                    "type": "address"
                },
                {
                    "indexed": true,
                    "internalType": "address",
                    "name": "newOwner",
                    "type": "address"
                }
            ],
            "name": "OwnershipTransferred",
            "type": "event"
        },
        {
            "stateMutability": "payable",
            "type": "fallback"
        },
        {
            "inputs": [
                {
                    "internalType": "uint256",
                    "name": "id",
                    "type": "uint256"
                }
            ],
            "name": "charge",
            "outputs": [
                {
                    "internalType": "uint256",
                    "name": "",
                    "type": "uint256"
                }
            ],
            "stateMutability": "nonpayable",
            "type": "function"
        },
        {
            "inputs": [
                {
                    "internalType": "uint256",
                    "name": "id",
                    "type": "uint256"
                }
            ],
            "name": "chargeWithCollateral",
            "outputs": [
                {
                    "internalType": "uint256",
                    "name": "",
                    "type": "uint256"
                }
            ],
            "stateMutability": "nonpayable",
            "type": "function"
        },
        {
            "inputs": [
                {
                    "internalType": "uint256",
                    "name": "id",
                    "type": "uint256"
                }
            ],
            "name": "endAndSettle",
            "outputs": [
                {
                    "internalType": "uint256",
                    "name": "",
                    "type": "uint256"
                }
            ],
            "stateMutability": "nonpayable",
            "type": "function"
        },
        {
            "inputs": [
                {
                    "internalType": "uint256",
                    "name": "id",
                    "type": "uint256"
                }
            ],
            "name": "endRental",
            "outputs": [
                {
                    "internalType": "uint256",
                    "name": "",
                    "type": "uint256"
                }
            ],
            "stateMutability": "nonpayable",
            "type": "function"
        },
        {
            "inputs": [
                {
                    "internalType": "uint256",
                    "name": "id",
                    "type": "uint256"
                },
                {
                    "internalType": "uint256",
                    "name": "chargeAmount",
                    "type": "uint256"
                }
            ],
            "name": "finalCharge",
            "outputs": [
                {
                    "internalType": "uint256",
                    "name": "",
                    "type": "uint256"
                }
            ],
            "stateMutability": "nonpayable",
            "type": "function"
        },
        {
            "inputs": [
                {
                    "internalType": "uint256",
                    "name": "id",
                    "type": "uint256"
                }
            ],
            "name": "getItem",
            "outputs": [
                {
                    "components": [
                        {
                            "internalType": "uint256",
                            "name": "id",
                            "type": "uint256"
                        },
                        {
                            "internalType": "string",
                            "name": "name",
                            "type": "string"
                        },
                        {
                            "internalType": "address",
                            "name": "renter",
                            "type": "address"
                        },
                        {
                            "internalType": "uint256",
                            "name": "startTime",
                            "type": "uint256"
                        },
                        {
                            "internalType": "uint256",
                            "name": "pricePerDay",
                            "type": "uint256"
                        },
                        {
                            "internalType": "uint256",
                            "name": "daysCharged",
                            "type": "uint256"
                        },
                        {
                            "internalType": "uint256",
                            "name": "collateral",
                            "type": "uint256"
                        },
                        {
                            "internalType": "uint256",
                            "name": "leftoverCharge",
                            "type": "uint256"
                        },
                        {
                            "internalType": "uint64",
                            "name": "numberOfDays",
                            "type": "uint64"
                        },
                        {
                            "internalType": "uint64",
                            "name": "status",
                            "type": "uint64"
                        }
                    ],
                    "internalType": "struct RentalWorkflow.Rental",
                    "name": "",
                    "type": "tuple"
                }
            ],
            "stateMutability": "view",
            "type": "function"
        },
        {
            "inputs": [
                {
                    "internalType": "uint256",
                    "name": "cnt",
                    "type": "uint256"
                }
            ],
            "name": "getLatest",
            "outputs": [
                {
                    "components": [
                        {
                            "internalType": "uint256",
                            "name": "id",
                            "type": "uint256"
                        },
                        {
                            "internalType": "string",
                            "name": "name",
                            "type": "string"
                        },
                        {
                            "internalType": "address",
                            "name": "renter",
                            "type": "address"
                        },
                        {
                            "internalType": "uint256",
                            "name": "startTime",
                            "type": "uint256"
                        },
                        {
                            "internalType": "uint256",
                            "name": "pricePerDay",
                            "type": "uint256"
                        },
                        {
                            "internalType": "uint256",
                            "name": "daysCharged",
                            "type": "uint256"
                        },
                        {
                            "internalType": "uint256",
                            "name": "collateral",
                            "type": "uint256"
                        },
                        {
                            "internalType": "uint256",
                            "name": "leftoverCharge",
                            "type": "uint256"
                        },
                        {
                            "internalType": "uint64",
                            "name": "numberOfDays",
                            "type": "uint64"
                        },
                        {
                            "internalType": "uint64",
                            "name": "status",
                            "type": "uint64"
                        }
                    ],
                    "internalType": "struct RentalWorkflow.Rental[]",
                    "name": "",
                    "type": "tuple[]"
                }
            ],
            "stateMutability": "view",
            "type": "function"
        },
        {
            "inputs": [
                {
                    "internalType": "uint256",
                    "name": "cnt",
                    "type": "uint256"
                }
            ],
            "name": "getLatestIds",
            "outputs": [
                {
                    "internalType": "uint256[]",
                    "name": "",
                    "type": "uint256[]"
                }
            ],
            "stateMutability": "view",
            "type": "function"
        },
        {
            "inputs": [
                {
                    "internalType": "uint256",
                    "name": "cursor",
                    "type": "uint256"
                },
                {
                    "internalType": "uint256",
                    "name": "howMany",
                    "type": "uint256"
                }
            ],
            "name": "getPage",
            "outputs": [
                {
                    "components": [
                        {
                            "internalType": "uint256",
                            "name": "id",
                            "type": "uint256"
                        },
                        {
                            "internalType": "string",
                            "name": "name",
                            "type": "string"
                        },
                        {
                            "internalType": "address",
                            "name": "renter",
                            "type": "address"
                        },
                        {
                            "internalType": "uint256",
                            "name": "startTime",
                            "type": "uint256"
                        },
                        {
                            "internalType": "uint256",
                            "name": "pricePerDay",
                            "type": "uint256"
                        },
                        {
                            "internalType": "uint256",
                            "name": "daysCharged",
                            "type": "uint256"
                        },
                        {
                            "internalType": "uint256",
                            "name": "collateral",
                            "type": "uint256"
                        },
                        {
                            "internalType": "uint256",
                            "name": "leftoverCharge",
                            "type": "uint256"
                        },
                        {
                            "internalType": "uint64",
                            "name": "numberOfDays",
                            "type": "uint64"
                        },
                        {
                            "internalType": "uint64",
                            "name": "status",
                            "type": "uint64"
                        }
                    ],
                    "internalType": "struct RentalWorkflow.Rental[]",
                    "name": "",
                    "type": "tuple[]"
                }
            ],
            "stateMutability": "view",
            "type": "function"
        },
        {
            "inputs": [
                {
                    "internalType": "uint256",
                    "name": "cursor",
                    "type": "uint256"
                },
                {
                    "internalType": "uint256",
                    "name": "howMany",
                    "type": "uint256"
                }
            ],
            "name": "getPageIds",
            "outputs": [
                {
                    "internalType": "uint256[]",
                    "name": "",
                    "type": "uint256[]"
                }
            ],
            "stateMutability": "view",
            "type": "function"
        },
        {
            "inputs": [
                {
                    "internalType": "uint256",
                    "name": "",
                    "type": "uint256"
                }
            ],
            "name": "items",
            "outputs": [
                {
                    "internalType": "uint256",
                    "name": "id",
                    "type": "uint256"
                },
                {
                    "internalType": "string",
                    "name": "name",
                    "type": "string"
                },
                {
                    "internalType": "address",
                    "name": "renter",
                    "type": "address"
                },
                {
                    "internalType": "uint256",
                    "name": "startTime",
                    "type": "uint256"
                },
                {
                    "internalType": "uint256",
                    "name": "pricePerDay",
                    "type": "uint256"
                },
                {
                    "internalType": "uint256",
                    "name": "daysCharged",
                    "type": "uint256"
                },
                {
                    "internalType": "uint256",
                    "name": "collateral",
                    "type": "uint256"
                },
                {
                    "internalType": "uint256",
                    "name": "leftoverCharge",
                    "type": "uint256"
                },
                {
                    "internalType": "uint64",
                    "name": "numberOfDays",
                    "type": "uint64"
                },
                {
                    "internalType": "uint64",
                    "name": "status",
                    "type": "uint64"
                }
            ],
            "stateMutability": "view",
            "type": "function"
        },
        {
            "inputs": [
                {
                    "internalType": "uint256",
                    "name": "id",
                    "type": "uint256"
                },
                {
                    "internalType": "string",
                    "name": "name",
                    "type": "string"
                },
                {
                    "internalType": "uint256",
                    "name": "collateral",
                    "type": "uint256"
                },
                {
                    "internalType": "uint256",
                    "name": "pricePerDay",
                    "type": "uint256"
                }
            ],
            "name": "makeAvailable",
            "outputs": [
                {
                    "internalType": "uint256",
                    "name": "",
                    "type": "uint256"
                }
            ],
            "stateMutability": "nonpayable",
            "type": "function"
        },
        {
            "inputs": [],
            "name": "owner",
            "outputs": [
                {
                    "internalType": "address",
                    "name": "",
                    "type": "address"
                }
            ],
            "stateMutability": "view",
            "type": "function"
        },
        {
            "inputs": [
                {
                    "internalType": "string",
                    "name": "name",
                    "type": "string"
                },
                {
                    "internalType": "uint256",
                    "name": "collateral",
                    "type": "uint256"
                },
                {
                    "internalType": "uint256",
                    "name": "pricePerDay",
                    "type": "uint256"
                }
            ],
            "name": "registerItem",
            "outputs": [
                {
                    "internalType": "uint256",
                    "name": "",
                    "type": "uint256"
                }
            ],
            "stateMutability": "nonpayable",
            "type": "function"
        },
        {
            "inputs": [
                {
                    "internalType": "uint256",
                    "name": "id",
                    "type": "uint256"
                },
                {
                    "internalType": "uint256",
                    "name": "chargeAmount",
                    "type": "uint256"
                },
                {
                    "internalType": "string",
                    "name": "",
                    "type": "string"
                }
            ],
            "name": "releaseCollateral",
            "outputs": [
                {
                    "internalType": "uint256",
                    "name": "",
                    "type": "uint256"
                }
            ],
            "stateMutability": "nonpayable",
            "type": "function"
        },
        {
            "inputs": [],
            "name": "renounceOwnership",
            "outputs": [],
            "stateMutability": "nonpayable",
            "type": "function"
        },
        {
            "inputs": [
                {
                    "internalType": "address",
                    "name": "_newOwner",
                    "type": "address"
                }
            ],
            "name": "setOwner",
            "outputs": [],
            "stateMutability": "nonpayable",
            "type": "function"
        },
        {
            "inputs": [
                {
                    "internalType": "uint256",
                    "name": "id",
                    "type": "uint256"
                },
                {
                    "internalType": "uint64",
                    "name": "numberOfDays",
                    "type": "uint64"
                },
                {
                    "internalType": "uint256",
                    "name": "allowance",
                    "type": "uint256"
                }
            ],
            "name": "startRent",
            "outputs": [
                {
                    "internalType": "uint256",
                    "name": "",
                    "type": "uint256"
                }
            ],
            "stateMutability": "nonpayable",
            "type": "function"
        },
        {
            "inputs": [],
            "name": "token",
            "outputs": [
                {
                    "internalType": "address",
                    "name": "",
                    "type": "address"
                }
            ],
            "stateMutability": "view",
            "type": "function"
        },
        {
            "inputs": [
                {
                    "internalType": "address",
                    "name": "newOwner",
                    "type": "address"
                }
            ],
            "name": "transferOwnership",
            "outputs": [],
            "stateMutability": "nonpayable",
            "type": "function"
        },
        {
            "inputs": [
                {
                    "internalType": "uint256",
                    "name": "id",
                    "type": "uint256"
                },
                {
                    "internalType": "string",
                    "name": "name",
                    "type": "string"
                },
                {
                    "internalType": "uint256",
                    "name": "collateral",
                    "type": "uint256"
                },
                {
                    "internalType": "uint256",
                    "name": "pricePerDay",
                    "type": "uint256"
                }
            ],
            "name": "update",
            "outputs": [
                {
                    "internalType": "uint256",
                    "name": "",
                    "type": "uint256"
                }
            ],
            "stateMutability": "nonpayable",
            "type": "function"
        },
        {
            "stateMutability": "payable",
            "type": "receive"
        }
    ],
    "bytecode": "608060405260008055600380546001600160a01b0319167302cbe6055f8aad745321f70d6add4711455c7f451790553480156200003b57600080fd5b50620000473362000058565b620000523362000058565b620000aa565b600180546001600160a01b038381166001600160a01b0319831681179093556040519116919082907f8be0079c531659141344cd1fd0a4f28419497f9722a3daafe3b4186f6b6457e090600090a35050565b6129a780620000ba6000396000f3fe6080604052600436106101225760003560e01c8063806a0faf116100a5578063bfb231d21161006c578063bfb231d214610350578063cbd44ec414610386578063cd1a2e91146103a6578063e457e1e5146103c6578063f2fde38b146103e6578063fc0c546a1461040657005b8063806a0faf1461029e5780638da5cb5b146102be57806397491d6f146102f0578063a7c6309b14610310578063abeb0b7e1461033057005b806359f719f5116100e957806359f719f5146102095780635adc024614610229578063615704c41461024957806367bc080c14610269578063715018a61461028957005b806306889aa81461012b57806313af4035146101615780633129e7731461018157806333495dd3146101ae578063393bef2b146101db57005b3661012957005b005b34801561013757600080fd5b5061014b6101463660046122d0565b610426565b60405161015891906122f2565b60405180910390f35b34801561016d57600080fd5b5061012961017c366004612336565b6104cf565b34801561018d57600080fd5b506101a161019c366004612366565b6104db565b6040516101589190612479565b3480156101ba57600080fd5b506101ce6101c9366004612366565b610662565b604051610158919061248c565b3480156101e757600080fd5b506101fb6101f63660046122d0565b61084c565b604051908152602001610158565b34801561021557600080fd5b5061014b610224366004612366565b610a3a565b34801561023557600080fd5b506101fb610244366004612536565b610b27565b34801561025557600080fd5b506101fb610264366004612366565b610c89565b34801561027557600080fd5b506101fb610284366004612593565b610f3c565b34801561029557600080fd5b506101296110f6565b3480156102aa57600080fd5b506101fb6102b9366004612536565b61110a565b3480156102ca57600080fd5b506001546001600160a01b03165b6040516001600160a01b039091168152602001610158565b3480156102fc57600080fd5b506101fb61030b366004612366565b6111c5565b34801561031c57600080fd5b506101fb61032b3660046125e5565b6113a3565b34801561033c57600080fd5b506101fb61034b366004612366565b6115c6565b34801561035c57600080fd5b5061037061036b366004612366565b611743565b6040516101589a99989796959493929190612635565b34801561039257600080fd5b506101fb6103a13660046126a6565b611832565b3480156103b257600080fd5b506101ce6103c13660046122d0565b611a05565b3480156103d257600080fd5b506101fb6103e1366004612366565b611be8565b3480156103f257600080fd5b50610129610401366004612336565b611dcd565b34801561041257600080fd5b506003546102d8906001600160a01b031681565b60606000826001600160401b03811115610442576104426126ea565b60405190808252806020026020018201604052801561046b578160200160208202803683370190505b50905060005b600054851115801561048257508381105b156104c5578482828151811061049a5761049a612700565b6020908102919091010152806104af8161272c565b91505084806104bd9061272c565b955050610471565b5090505b92915050565b6104d881611dcd565b50565b6104e3612262565b600060026000848152602001908152602001600020604051806101400160405290816000820154815260200160018201805461051e90612745565b80601f016020809104026020016040519081016040528092919081815260200182805461054a90612745565b80156105975780601f1061056c57610100808354040283529160200191610597565b820191906000526020600020905b81548152906001019060200180831161057a57829003601f168201915b505050918352505060028201546001600160a01b03166020820152600382015460408201526004820154606082015260058201546080820152600682015460a0820152600782015460c08201526008909101546001600160401b0380821660e0840152600160401b9091041661010090910152805190915083146104c95760405162461bcd60e51b815260206004820152601e60248201527f43616e6e6f742066696e64206974656d207769746820676976656e206964000060448201526064015b60405180910390fd5b6060600061066f83610a3a565b9050600081516001600160401b0381111561068c5761068c6126ea565b6040519080825280602002602001820160405280156106c557816020015b6106b2612262565b8152602001906001900390816106aa5790505b50905060005b825181101561084457600260008483815181106106ea576106ea612700565b60200260200101518152602001908152602001600020604051806101400160405290816000820154815260200160018201805461072690612745565b80601f016020809104026020016040519081016040528092919081815260200182805461075290612745565b801561079f5780601f106107745761010080835404028352916020019161079f565b820191906000526020600020905b81548152906001019060200180831161078257829003601f168201915b505050918352505060028201546001600160a01b03166020820152600382015460408201526004820154606082015260058201546080820152600682015460a0820152600782015460c08201526008909101546001600160401b0380821660e0840152600160401b9091041661010090910152825183908390811061082657610826612700565b6020026020010181905250808061083c9061272c565b9150506106cb565b509392505050565b600080610858846104db565b9050610862611e43565b61086d816002611e9d565b8060e001518311156108c15760405162461bcd60e51b815260206004820181905260248201527f43616e6e6f7420636861726765206d6f7265207468616e206c6566746f7665726044820152606401610659565b8060e0015183146108d35760026108d6565b60045b60ff1661012082015260008481526002602090815260409091208251815590820151829190600182019061090a90826127ca565b5060408201516002820180546001600160a01b039283166001600160a01b0319909116179055606083015160038301556080830151600483015560a0830151600583015560c0830151600683015560e0830151600783015561010083015160089092018054610120909401516001600160401b03908116600160401b026001600160801b031990951693169290921792909217905560015416158015906109bd575060408101516001600160a01b031615155b80156109c95750600083115b156109fc5760035460408201516109fc916001600160a01b0316906109f66001546001600160a01b031690565b86611f1d565b610120810151604080518681526001600160401b039092166020830152600080516020612952833981519152910160405180910390a1509192915050565b6000805460609181841015610a5657610a538483612889565b90505b81811180610a62575060005b15610a825760408051600080825260208201909252905b50949350505050565b6000846001600160401b03811115610a9c57610a9c6126ea565b604051908082528060200260200182016040528015610ac5578160200160208202803683370190505b5090506000825b84811015610b1c57610adf81600161289c565b838381518110610af157610af1612700565b602090810291909101015281610b068161272c565b9250508080610b149061272c565b915050610acc565b509095945050505050565b600080610b33876104db565b9050610b3d611e43565b610b48816003611e9d565b85858080601f0160208091040260200160405190810160405280939291908181526020018383808284376000920182905250602080870195865260c087018a90526080870189905260036101208801528c8252600290526040902085518155935185949350600184019250610bbe9150826127ca565b506040828101516002830180546001600160a01b039092166001600160a01b0319909216919091179055606083015160038301556080830151600483015560a0830151600583015560c0830151600683015560e0830151600783015561010083015160089092018054610120948501516001600160401b03908116600160401b026001600160801b0319909216948116949094171790559183015182518a815291166020820152600080516020612952833981519152910160405180910390a1509495945050505050565b600080610c95836104db565b9050610c9f611e43565b610caa816001611e9d565b600081608001518260a001518361010001516001600160401b0316610ccf9190612889565b610cd991906128af565b905060008261010001516018610cef91906128c6565b610cfa90603c6128c6565b610d0590603c6128c6565b6001600160401b03168360600151610d1d919061289c565b9050804211610d2d576000610d69565b603c8060188560800151610d4191906128f1565b610d4b91906128f1565b610d5591906128f1565b610d5f4283612889565b610d6991906128af565b610d73908361289c565b60e08401526005610120840152600085815260026020908152604090912084518155908401518491906001820190610dab90826127ca565b506040828101516002830180546001600160a01b039283166001600160a01b0319909116179055606084015160038401556080840151600484015560a0840151600584015560c0840151600684015560e0840151600784015561010084015160089093018054610120909501516001600160401b03908116600160401b026001600160801b0319909616941693909317939093179091558401511615801590610e58575060008360c00151115b15610e7e57600354604084015160c0850151610e7e926001600160a01b0316919061205b565b6000610e926001546001600160a01b031690565b6001600160a01b031614158015610eb5575060408301516001600160a01b031615155b8015610ec5575060008360e00151115b15610efc576003546040840151610efc916001600160a01b031690610ef26001546001600160a01b031690565b8660e00151611f1d565b610120830151604080518781526001600160401b03909216602083015260008051602061295283398151915291015b60405180910390a150929392505050565b600080610f48866104db565b9050610f55816004611e9d565b848160c001511015610f9b5760405162461bcd60e51b815260206004820152600f60248201526e48617320636f6c6c61746572616c3f60881b6044820152606401610659565b848160c00151610fab9190612889565b60c08201526005610120820152600086815260026020908152604090912082518155908201518291906001820190610fe390826127ca565b506040828101516002830180546001600160a01b039283166001600160a01b0319909116179055606084015160038401556080840151600484015560a0840151600584015560c0840151600684015560e0840151600784015561010084015160089093018054610120909501516001600160401b03908116600160401b026001600160801b0319909616941693909317939093179091558201511615801590611090575060008160c00151115b156110b657600354604082015160c08301516110b6926001600160a01b0316919061205b565b610120810151604080518881526001600160401b039092166020830152600080516020612952833981519152910160405180910390a15093949350505050565b6110fe611e43565b611108600061218c565b565b600080611116876104db565b9050611120611e43565b61112b816005611e9d565b85858080601f016020809104026020016040519081016040528093929190818152602001838380828437600092018290525060208087019586526080870189905260408088018390526060880183905260e0880183905260a08801839052610100880183905260c0880183905260036101208901528d83526002909152902085518155935185949350600184019250610bbe9150826127ca565b6000806111d1836104db565b90506111db611e43565b6111e6816001611e9d565b600081608001518260a001518361010001516001600160401b031661120b9190612889565b61121591906128af565b90506000826101000151601861122b91906128c6565b61123690603c6128c6565b61124190603c6128c6565b6001600160401b03168360600151611259919061289c565b90508042116112695760006112a5565b603c806018856080015161127d91906128f1565b61128791906128f1565b61129191906128f1565b61129b4283612889565b6112a591906128af565b6112af908361289c565b60e0840152600261012084018190526000868152602091825260409020845181559084015184919060018201906112e690826127ca565b506040828101516002830180546001600160a01b039092166001600160a01b0319909216919091179055606083015160038301556080830151600483015560a0830151600583015560c0830151600683015560e0830151600783015561010083015160089092018054610120948501516001600160401b03908116600160401b026001600160801b031990921694811694909417179055918501518251888152911660208201526000805160206129528339815191529101610f2b565b6000806113ae6121de565b90506113b8612262565b8181526000828152600260209081526040909120825181559082015182919060018201906113e690826127ca565b5060408201516002820180546001600160a01b039092166001600160a01b0319909216919091179055606082015160038201556080820151600482015560a0820151600582015560c0820151600682015560e0820151600782015561010082015160089091018054610120909301516001600160401b03908116600160401b026001600160801b0319909416921691909117919091179055611486611e43565b86868080601f0160208091040260200160405190810160405280939291908181526020018383808284376000920182905250602080870195865260c087018b9052608087018a905260036101208801528782526002905260409020855181559351859493506001840192506114fc9150826127ca565b506040828101516002830180546001600160a01b039092166001600160a01b0319909216919091179055606083015160038301556080830151600483015560a0830151600583015560c0830151600683015560e0830151600783015561010083015160089092018054610120948501516001600160401b03908116600160401b026001600160801b03199092169481169490941717905591830151825185815291166020820152600080516020612952833981519152910160405180910390a15095945050505050565b6000806115d2836104db565b90506115dc611e43565b6115e7816002611e9d565b8060e001518160c0015110156116305760405162461bcd60e51b815260206004820152600e60248201526d12185cc818dbdb1b185d195c985b60921b6044820152606401610659565b8060e001518160c001516116449190612889565b60c0820152600461012082015260008381526002602090815260409091208251815590820151829190600182019061167c90826127ca565b506040828101516002830180546001600160a01b039092166001600160a01b0319909216919091179055606083015160038301556080830151600483015560a0830151600583015560c0830151600683015560e0830151600783015561010083015160089092018054610120948501516001600160401b03908116600160401b026001600160801b03199092169481169490941717905591830151825186815291166020820152600080516020612952833981519152910160405180910390a15090919050565b6002602052600090815260409020805460018201805491929161176590612745565b80601f016020809104026020016040519081016040528092919081815260200182805461179190612745565b80156117de5780601f106117b3576101008083540402835291602001916117de565b820191906000526020600020905b8154815290600101906020018083116117c157829003601f168201915b5050505060028301546003840154600485015460058601546006870154600788015460089098015496976001600160a01b0390951696939550919390926001600160401b0380821691600160401b9004168a565b60008061183e856104db565b9050611849816121fa565b611854816003611e9d565b608081015161186c906001600160401b0386166128af565b83146118b25760405162461bcd60e51b8152602060048201526015602482015274416c6c6f77616e636520697320636f72726563743f60581b6044820152606401610659565b6001600160401b038416610100820152426060820152600161012082018190526000868152600260209081526040909120835181559083015183928201906118fa90826127ca565b5060408201516002820180546001600160a01b039092166001600160a01b0319909216919091179055606082015160038201556080820151600482015560a0820151600582015560c0820151600682015560e0820151600782015561010082015160089091018054610120909301516001600160401b03908116600160401b026001600160801b031990941692169190911791909117905530158015906119a5575060008160c00151115b156119c6576003546119c6906001600160a01b031633308460c00151611f1d565b610120810151604080518781526001600160401b039092166020830152600080516020612952833981519152910160405180910390a150929392505050565b60606000611a138484610426565b9050600081516001600160401b03811115611a3057611a306126ea565b604051908082528060200260200182016040528015611a6957816020015b611a56612262565b815260200190600190039081611a4e5790505b50905060005b8251811015610a795760026000848381518110611a8e57611a8e612700565b602002602001015181526020019081526020016000206040518061014001604052908160008201548152602001600182018054611aca90612745565b80601f0160208091040260200160405190810160405280929190818152602001828054611af690612745565b8015611b435780601f10611b1857610100808354040283529160200191611b43565b820191906000526020600020905b815481529060010190602001808311611b2657829003601f168201915b505050918352505060028201546001600160a01b03166020820152600382015460408201526004820154606082015260058201546080820152600682015460a0820152600782015460c08201526008909101546001600160401b0380821660e0840152600160401b90910416610100909101528251839083908110611bca57611bca612700565b60200260200101819052508080611be09061272c565b915050611a6f565b600080611bf4836104db565b9050611bfe611e43565b611c09816001611e9d565b60008160a0015162015180836060015142611c249190612889565b611c2e91906128f1565b611c389190612889565b9050808260a00151611c4a919061289c565b60a08301526080820151611c5e90826128af565b60e083015260016101208301819052600085815260026020908152604090912084518155908401518492820190611c9590826127ca565b5060408201516002820180546001600160a01b039283166001600160a01b0319909116179055606083015160038301556080830151600483015560a0830151600583015560c0830151600683015560e0830151600783015561010083015160089092018054610120909401516001600160401b03908116600160401b026001600160801b03199095169316929092179290921790556001541615801590611d48575060408201516001600160a01b031615155b8015611d58575060008260e00151115b15611d8f576003546040830151611d8f916001600160a01b031690611d856001546001600160a01b031690565b8560e00151611f1d565b610120820151604080518681526001600160401b039092166020830152600080516020612952833981519152910160405180910390a1509192915050565b611dd5611e43565b6001600160a01b038116611e3a5760405162461bcd60e51b815260206004820152602660248201527f4f776e61626c653a206e6577206f776e657220697320746865207a65726f206160448201526564647265737360d01b6064820152608401610659565b6104d88161218c565b6001546001600160a01b031633146111085760405162461bcd60e51b815260206004820181905260248201527f4f776e61626c653a2063616c6c6572206973206e6f7420746865206f776e65726044820152606401610659565b806001600160401b03168261012001516001600160401b031614611f195760405162461bcd60e51b815260206004820152602d60248201527f43616e6e6f742072756e20576f726b666c6f7720616374696f6e3b20756e657860448201526c7065637465642073746174757360981b6064820152608401610659565b5050565b604080516001600160a01b0385811660248301528481166044830152606480830185905283518084039091018152608490920183526020820180516001600160e01b03166323b872dd60e01b1790529151600092839290881691611f819190612913565b6000604051808303816000865af19150503d8060008114611fbe576040519150601f19603f3d011682016040523d82523d6000602084013e611fc3565b606091505b5091509150818015611fed575080511580611fed575080806020019051810190611fed919061292f565b6120535760405162461bcd60e51b815260206004820152603160248201527f5472616e7366657248656c7065723a3a7472616e7366657246726f6d3a207472604482015270185b9cd9995c919c9bdb4819985a5b1959607a1b6064820152608401610659565b505050505050565b604080516001600160a01b038481166024830152604480830185905283518084039091018152606490920183526020820180516001600160e01b031663a9059cbb60e01b17905291516000928392908716916120b79190612913565b6000604051808303816000865af19150503d80600081146120f4576040519150601f19603f3d011682016040523d82523d6000602084013e6120f9565b606091505b5091509150818015612123575080511580612123575080806020019051810190612123919061292f565b6121855760405162461bcd60e51b815260206004820152602d60248201527f5472616e7366657248656c7065723a3a736166655472616e736665723a20747260448201526c185b9cd9995c8819985a5b1959609a1b6064820152608401610659565b5050505050565b600180546001600160a01b038381166001600160a01b0319831681179093556040519116919082907f8be0079c531659141344cd1fd0a4f28419497f9722a3daafe3b4186f6b6457e090600090a35050565b6000805481806121ed8361272c565b9190505550600054905090565b60408101516001600160a01b0381161561225757336001600160a01b03821614611f195760405162461bcd60e51b815260206004820152600e60248201526d24b73b30b634b2102932b73a32b960911b6044820152606401610659565b503360409190910152565b604051806101400160405280600081526020016060815260200160006001600160a01b03168152602001600081526020016000815260200160008152602001600081526020016000815260200160006001600160401b0316815260200160006001600160401b031681525090565b600080604083850312156122e357600080fd5b50508035926020909101359150565b6020808252825182820181905260009190848201906040850190845b8181101561232a5783518352928401929184019160010161230e565b50909695505050505050565b60006020828403121561234857600080fd5b81356001600160a01b038116811461235f57600080fd5b9392505050565b60006020828403121561237857600080fd5b5035919050565b60005b8381101561239a578181015183820152602001612382565b50506000910152565b600081518084526123bb81602086016020860161237f565b601f01601f19169290920160200192915050565b60006101408251845260208301518160208601526123ef828601826123a3565b915050604083015161240c60408601826001600160a01b03169052565b50606083015160608501526080830151608085015260a083015160a085015260c083015160c085015260e083015160e08501526101008084015161245a828701826001600160401b03169052565b5050610120928301516001600160401b03169390920192909252919050565b60208152600061235f60208301846123cf565b6000602080830181845280855180835260408601915060408160051b870101925083870160005b828110156124e157603f198886030184526124cf8583516123cf565b945092850192908501906001016124b3565b5092979650505050505050565b60008083601f84011261250057600080fd5b5081356001600160401b0381111561251757600080fd5b60208301915083602082850101111561252f57600080fd5b9250929050565b60008060008060006080868803121561254e57600080fd5b8535945060208601356001600160401b0381111561256b57600080fd5b612577888289016124ee565b9699909850959660408101359660609091013595509350505050565b600080600080606085870312156125a957600080fd5b843593506020850135925060408501356001600160401b038111156125cd57600080fd5b6125d9878288016124ee565b95989497509550505050565b600080600080606085870312156125fb57600080fd5b84356001600160401b0381111561261157600080fd5b61261d878288016124ee565b90989097506020870135966040013595509350505050565b60006101408c835280602084015261264f8184018d6123a3565b6001600160a01b039b909b16604084015250506060810197909752608087019590955260a086019390935260c085019190915260e08401526001600160401b03908116610100840152166101209091015292915050565b6000806000606084860312156126bb57600080fd5b8335925060208401356001600160401b03811681146126d957600080fd5b929592945050506040919091013590565b634e487b7160e01b600052604160045260246000fd5b634e487b7160e01b600052603260045260246000fd5b634e487b7160e01b600052601160045260246000fd5b60006001820161273e5761273e612716565b5060010190565b600181811c9082168061275957607f821691505b60208210810361277957634e487b7160e01b600052602260045260246000fd5b50919050565b601f8211156127c557600081815260208120601f850160051c810160208610156127a65750805b601f850160051c820191505b81811015612053578281556001016127b2565b505050565b81516001600160401b038111156127e3576127e36126ea565b6127f7816127f18454612745565b8461277f565b602080601f83116001811461282c57600084156128145750858301515b600019600386901b1c1916600185901b178555612053565b600085815260208120601f198616915b8281101561285b5788860151825594840194600190910190840161283c565b50858210156128795787850151600019600388901b60f8161c191681555b5050505050600190811b01905550565b818103818111156104c9576104c9612716565b808201808211156104c9576104c9612716565b80820281158282048414176104c9576104c9612716565b6001600160401b038181168382160280821691908281146128e9576128e9612716565b505092915050565b60008261290e57634e487b7160e01b600052601260045260246000fd5b500490565b6000825161292581846020870161237f565b9190910192915050565b60006020828403121561294157600080fd5b8151801515811461235f57600080fdfef12a1a922705ffd5ec4fc8a3f56e1ddef3c5f715c7034230a0a280240c29a6f0a264697066735822122052e98d924118e98ec6d65a2dbe15446354c732ac69b200599af8df2c6c9d811e64736f6c63430008130033",
    "sourcePath": "c:/Projects/Toolblox.Audit/Toolblox.Token/Audit/RentalWorkflow.sol",
    "compiler": {
        "name": "solc",
        "version": "0.8.19+commit.7dd6d404"
    },
    "functionHashes": {
        "charge(uint256)": "e457e1e5",
        "chargeWithCollateral(uint256)": "abeb0b7e",
        "endAndSettle(uint256)": "615704c4",
        "endRental(uint256)": "97491d6f",
        "finalCharge(uint256,uint256)": "393bef2b",
        "getItem(uint256)": "3129e773",
        "getLatest(uint256)": "33495dd3",
        "getLatestIds(uint256)": "59f719f5",
        "getPage(uint256,uint256)": "cd1a2e91",
        "getPageIds(uint256,uint256)": "06889aa8",
        "items(uint256)": "bfb231d2",
        "makeAvailable(uint256,string,uint256,uint256)": "806a0faf",
        "owner()": "8da5cb5b",
        "registerItem(string,uint256,uint256)": "a7c6309b",
        "releaseCollateral(uint256,uint256,string)": "67bc080c",
        "renounceOwnership()": "715018a6",
        "setOwner(address)": "13af4035",
        "startRent(uint256,uint64,uint256)": "cbd44ec4",
        "token()": "fc0c546a",
        "transferOwnership(address)": "f2fde38b",
        "update(uint256,string,uint256,uint256)": "5adc0246"
    },
    "gasEstimates": {
        "creation": {
            "codeDepositCost": "2132600",
            "executionCost": "infinite",
            "totalCost": "infinite"
        },
        "external": {
            "": "207",
            "charge(uint256)": "infinite",
            "chargeWithCollateral(uint256)": "infinite",
            "endAndSettle(uint256)": "infinite",
            "endRental(uint256)": "infinite",
            "finalCharge(uint256,uint256)": "infinite",
            "getItem(uint256)": "infinite",
            "getLatest(uint256)": "infinite",
            "getLatestIds(uint256)": "infinite",
            "getPage(uint256,uint256)": "infinite",
            "getPageIds(uint256,uint256)": "infinite",
            "items(uint256)": "infinite",
            "makeAvailable(uint256,string,uint256,uint256)": "infinite",
            "owner()": "2365",
            "registerItem(string,uint256,uint256)": "infinite",
            "releaseCollateral(uint256,uint256,string)": "infinite",
            "renounceOwnership()": "infinite",
            "setOwner(address)": "infinite",
            "startRent(uint256,uint64,uint256)": "infinite",
            "token()": "2469",
            "transferOwnership(address)": "28411",
            "update(uint256,string,uint256,uint256)": "infinite"
        },
        "internal": {
            "_assertOnlyRenter(struct RentalWorkflow.Rental memory)": "infinite",
            "_assertStatus(struct RentalWorkflow.Rental memory,uint64)": "infinite"
        }
    }
}