{
    "contractName": "RentalWorkflow",
    "abi": [
        {
            "inputs": [],
            "stateMutability": "nonpayable",
            "type": "constructor"
        },
        {
            "anonymous": false,
            "inputs": [
                {
                    "indexed": false,
                    "internalType": "uint256",
                    "name": "_id",
                    "type": "uint256"
                },
                {
                    "indexed": false,
                    "internalType": "uint64",
                    "name": "_status",
                    "type": "uint64"
                }
            ],
            "name": "ItemUpdated",
            "type": "event"
        },
        {
            "anonymous": false,
            "inputs": [
                {
                    "indexed": true,
                    "internalType": "address",
                    "name": "previousOwner",
                    "type": "address"
                },
                {
                    "indexed": true,
                    "internalType": "address",
                    "name": "newOwner",
                    "type": "address"
                }
            ],
            "name": "OwnershipTransferred",
            "type": "event"
        },
        {
            "stateMutability": "payable",
            "type": "fallback"
        },
        {
            "inputs": [
                {
                    "internalType": "uint256",
                    "name": "id",
                    "type": "uint256"
                }
            ],
            "name": "charge",
            "outputs": [
                {
                    "internalType": "uint256",
                    "name": "",
                    "type": "uint256"
                }
            ],
            "stateMutability": "nonpayable",
            "type": "function"
        },
        {
            "inputs": [
                {
                    "internalType": "uint256",
                    "name": "id",
                    "type": "uint256"
                }
            ],
            "name": "chargeWithCollateral",
            "outputs": [
                {
                    "internalType": "uint256",
                    "name": "",
                    "type": "uint256"
                }
            ],
            "stateMutability": "nonpayable",
            "type": "function"
        },
        {
            "inputs": [
                {
                    "internalType": "uint256",
                    "name": "id",
                    "type": "uint256"
                }
            ],
            "name": "endAndSettle",
            "outputs": [
                {
                    "internalType": "uint256",
                    "name": "",
                    "type": "uint256"
                }
            ],
            "stateMutability": "nonpayable",
            "type": "function"
        },
        {
            "inputs": [
                {
                    "internalType": "uint256",
                    "name": "id",
                    "type": "uint256"
                }
            ],
            "name": "endRental",
            "outputs": [
                {
                    "internalType": "uint256",
                    "name": "",
                    "type": "uint256"
                }
            ],
            "stateMutability": "nonpayable",
            "type": "function"
        },
        {
            "inputs": [
                {
                    "internalType": "uint256",
                    "name": "id",
                    "type": "uint256"
                },
                {
                    "internalType": "uint256",
                    "name": "chargeAmount",
                    "type": "uint256"
                }
            ],
            "name": "finalCharge",
            "outputs": [
                {
                    "internalType": "uint256",
                    "name": "",
                    "type": "uint256"
                }
            ],
            "stateMutability": "nonpayable",
            "type": "function"
        },
        {
            "inputs": [
                {
                    "internalType": "uint256",
                    "name": "id",
                    "type": "uint256"
                }
            ],
            "name": "getItem",
            "outputs": [
                {
                    "components": [
                        {
                            "internalType": "uint256",
                            "name": "id",
                            "type": "uint256"
                        },
                        {
                            "internalType": "string",
                            "name": "name",
                            "type": "string"
                        },
                        {
                            "internalType": "address",
                            "name": "renter",
                            "type": "address"
                        },
                        {
                            "internalType": "uint256",
                            "name": "startTime",
                            "type": "uint256"
                        },
                        {
                            "internalType": "uint256",
                            "name": "pricePerDay",
                            "type": "uint256"
                        },
                        {
                            "internalType": "uint256",
                            "name": "daysCharged",
                            "type": "uint256"
                        },
                        {
                            "internalType": "uint256",
                            "name": "collateral",
                            "type": "uint256"
                        },
                        {
                            "internalType": "uint256",
                            "name": "leftoverCharge",
                            "type": "uint256"
                        },
                        {
                            "internalType": "uint64",
                            "name": "numberOfDays",
                            "type": "uint64"
                        },
                        {
                            "internalType": "uint64",
                            "name": "status",
                            "type": "uint64"
                        }
                    ],
                    "internalType": "struct RentalWorkflow.Rental",
                    "name": "",
                    "type": "tuple"
                }
            ],
            "stateMutability": "view",
            "type": "function"
        },
        {
            "inputs": [
                {
                    "internalType": "uint256",
                    "name": "cnt",
                    "type": "uint256"
                }
            ],
            "name": "getLatest",
            "outputs": [
                {
                    "components": [
                        {
                            "internalType": "uint256",
                            "name": "id",
                            "type": "uint256"
                        },
                        {
                            "internalType": "string",
                            "name": "name",
                            "type": "string"
                        },
                        {
                            "internalType": "address",
                            "name": "renter",
                            "type": "address"
                        },
                        {
                            "internalType": "uint256",
                            "name": "startTime",
                            "type": "uint256"
                        },
                        {
                            "internalType": "uint256",
                            "name": "pricePerDay",
                            "type": "uint256"
                        },
                        {
                            "internalType": "uint256",
                            "name": "daysCharged",
                            "type": "uint256"
                        },
                        {
                            "internalType": "uint256",
                            "name": "collateral",
                            "type": "uint256"
                        },
                        {
                            "internalType": "uint256",
                            "name": "leftoverCharge",
                            "type": "uint256"
                        },
                        {
                            "internalType": "uint64",
                            "name": "numberOfDays",
                            "type": "uint64"
                        },
                        {
                            "internalType": "uint64",
                            "name": "status",
                            "type": "uint64"
                        }
                    ],
                    "internalType": "struct RentalWorkflow.Rental[]",
                    "name": "",
                    "type": "tuple[]"
                }
            ],
            "stateMutability": "view",
            "type": "function"
        },
        {
            "inputs": [
                {
                    "internalType": "uint256",
                    "name": "cnt",
                    "type": "uint256"
                }
            ],
            "name": "getLatestIds",
            "outputs": [
                {
                    "internalType": "uint256[]",
                    "name": "",
                    "type": "uint256[]"
                }
            ],
            "stateMutability": "view",
            "type": "function"
        },
        {
            "inputs": [
                {
                    "internalType": "uint256",
                    "name": "cursor",
                    "type": "uint256"
                },
                {
                    "internalType": "uint256",
                    "name": "howMany",
                    "type": "uint256"
                }
            ],
            "name": "getPage",
            "outputs": [
                {
                    "components": [
                        {
                            "internalType": "uint256",
                            "name": "id",
                            "type": "uint256"
                        },
                        {
                            "internalType": "string",
                            "name": "name",
                            "type": "string"
                        },
                        {
                            "internalType": "address",
                            "name": "renter",
                            "type": "address"
                        },
                        {
                            "internalType": "uint256",
                            "name": "startTime",
                            "type": "uint256"
                        },
                        {
                            "internalType": "uint256",
                            "name": "pricePerDay",
                            "type": "uint256"
                        },
                        {
                            "internalType": "uint256",
                            "name": "daysCharged",
                            "type": "uint256"
                        },
                        {
                            "internalType": "uint256",
                            "name": "collateral",
                            "type": "uint256"
                        },
                        {
                            "internalType": "uint256",
                            "name": "leftoverCharge",
                            "type": "uint256"
                        },
                        {
                            "internalType": "uint64",
                            "name": "numberOfDays",
                            "type": "uint64"
                        },
                        {
                            "internalType": "uint64",
                            "name": "status",
                            "type": "uint64"
                        }
                    ],
                    "internalType": "struct RentalWorkflow.Rental[]",
                    "name": "",
                    "type": "tuple[]"
                }
            ],
            "stateMutability": "view",
            "type": "function"
        },
        {
            "inputs": [
                {
                    "internalType": "uint256",
                    "name": "cursor",
                    "type": "uint256"
                },
                {
                    "internalType": "uint256",
                    "name": "howMany",
                    "type": "uint256"
                }
            ],
            "name": "getPageIds",
            "outputs": [
                {
                    "internalType": "uint256[]",
                    "name": "",
                    "type": "uint256[]"
                }
            ],
            "stateMutability": "view",
            "type": "function"
        },
        {
            "inputs": [
                {
                    "internalType": "uint256",
                    "name": "",
                    "type": "uint256"
                }
            ],
            "name": "items",
            "outputs": [
                {
                    "internalType": "uint256",
                    "name": "id",
                    "type": "uint256"
                },
                {
                    "internalType": "string",
                    "name": "name",
                    "type": "string"
                },
                {
                    "internalType": "address",
                    "name": "renter",
                    "type": "address"
                },
                {
                    "internalType": "uint256",
                    "name": "startTime",
                    "type": "uint256"
                },
                {
                    "internalType": "uint256",
                    "name": "pricePerDay",
                    "type": "uint256"
                },
                {
                    "internalType": "uint256",
                    "name": "daysCharged",
                    "type": "uint256"
                },
                {
                    "internalType": "uint256",
                    "name": "collateral",
                    "type": "uint256"
                },
                {
                    "internalType": "uint256",
                    "name": "leftoverCharge",
                    "type": "uint256"
                },
                {
                    "internalType": "uint64",
                    "name": "numberOfDays",
                    "type": "uint64"
                },
                {
                    "internalType": "uint64",
                    "name": "status",
                    "type": "uint64"
                }
            ],
            "stateMutability": "view",
            "type": "function"
        },
        {
            "inputs": [
                {
                    "internalType": "uint256",
                    "name": "id",
                    "type": "uint256"
                },
                {
                    "internalType": "string",
                    "name": "name",
                    "type": "string"
                },
                {
                    "internalType": "uint256",
                    "name": "collateral",
                    "type": "uint256"
                },
                {
                    "internalType": "uint256",
                    "name": "pricePerDay",
                    "type": "uint256"
                }
            ],
            "name": "makeAvailable",
            "outputs": [
                {
                    "internalType": "uint256",
                    "name": "",
                    "type": "uint256"
                }
            ],
            "stateMutability": "nonpayable",
            "type": "function"
        },
        {
            "inputs": [],
            "name": "owner",
            "outputs": [
                {
                    "internalType": "address",
                    "name": "",
                    "type": "address"
                }
            ],
            "stateMutability": "view",
            "type": "function"
        },
        {
            "inputs": [
                {
                    "internalType": "string",
                    "name": "name",
                    "type": "string"
                },
                {
                    "internalType": "uint256",
                    "name": "collateral",
                    "type": "uint256"
                },
                {
                    "internalType": "uint256",
                    "name": "pricePerDay",
                    "type": "uint256"
                }
            ],
            "name": "registerItem",
            "outputs": [
                {
                    "internalType": "uint256",
                    "name": "",
                    "type": "uint256"
                }
            ],
            "stateMutability": "nonpayable",
            "type": "function"
        },
        {
            "inputs": [
                {
                    "internalType": "uint256",
                    "name": "id",
                    "type": "uint256"
                },
                {
                    "internalType": "uint256",
                    "name": "chargeAmount",
                    "type": "uint256"
                },
                {
                    "internalType": "string",
                    "name": "",
                    "type": "string"
                }
            ],
            "name": "releaseCollateral",
            "outputs": [
                {
                    "internalType": "uint256",
                    "name": "",
                    "type": "uint256"
                }
            ],
            "stateMutability": "nonpayable",
            "type": "function"
        },
        {
            "inputs": [],
            "name": "renounceOwnership",
            "outputs": [],
            "stateMutability": "nonpayable",
            "type": "function"
        },
        {
            "inputs": [
                {
                    "internalType": "address",
                    "name": "_newOwner",
                    "type": "address"
                }
            ],
            "name": "setOwner",
            "outputs": [],
            "stateMutability": "nonpayable",
            "type": "function"
        },
        {
            "inputs": [
                {
                    "internalType": "uint256",
                    "name": "id",
                    "type": "uint256"
                },
                {
                    "internalType": "uint64",
                    "name": "numberOfDays",
                    "type": "uint64"
                },
                {
                    "internalType": "uint256",
                    "name": "allowance",
                    "type": "uint256"
                }
            ],
            "name": "startRent",
            "outputs": [
                {
                    "internalType": "uint256",
                    "name": "",
                    "type": "uint256"
                }
            ],
            "stateMutability": "nonpayable",
            "type": "function"
        },
        {
            "inputs": [],
            "name": "token",
            "outputs": [
                {
                    "internalType": "address",
                    "name": "",
                    "type": "address"
                }
            ],
            "stateMutability": "view",
            "type": "function"
        },
        {
            "inputs": [
                {
                    "internalType": "address",
                    "name": "newOwner",
                    "type": "address"
                }
            ],
            "name": "transferOwnership",
            "outputs": [],
            "stateMutability": "nonpayable",
            "type": "function"
        },
        {
            "inputs": [
                {
                    "internalType": "uint256",
                    "name": "id",
                    "type": "uint256"
                },
                {
                    "internalType": "string",
                    "name": "name",
                    "type": "string"
                },
                {
                    "internalType": "uint256",
                    "name": "collateral",
                    "type": "uint256"
                },
                {
                    "internalType": "uint256",
                    "name": "pricePerDay",
                    "type": "uint256"
                }
            ],
            "name": "update",
            "outputs": [
                {
                    "internalType": "uint256",
                    "name": "",
                    "type": "uint256"
                }
            ],
            "stateMutability": "nonpayable",
            "type": "function"
        },
        {
            "inputs": [
                {
                    "internalType": "uint256",
                    "name": "id",
                    "type": "uint256"
                },
                {
                    "internalType": "uint64",
                    "name": "numberOfDays",
                    "type": "uint64"
                }
            ],
            "name": "updateDuration",
            "outputs": [
                {
                    "internalType": "uint256",
                    "name": "",
                    "type": "uint256"
                }
            ],
            "stateMutability": "nonpayable",
            "type": "function"
        },
        {
            "stateMutability": "payable",
            "type": "receive"
        }
    ],
    "bytecode": "608060405260008055600380546001600160a01b0319167302cbe6055f8aad745321f70d6add4711455c7f451790553480156200003b57600080fd5b50620000473362000058565b620000523362000058565b620000aa565b600180546001600160a01b038381166001600160a01b0319831681179093556040519116919082907f8be0079c531659141344cd1fd0a4f28419497f9722a3daafe3b4186f6b6457e090600090a35050565b612b2c80620000ba6000396000f3fe60806040526004361061012d5760003560e01c8063806a0faf116100a5578063bfb231d21161006c578063bfb231d21461037b578063cbd44ec4146103b1578063cd1a2e91146103d1578063e457e1e5146103f1578063f2fde38b14610411578063fc0c546a1461043157005b8063806a0faf146102c95780638da5cb5b146102e957806397491d6f1461031b578063a7c6309b1461033b578063abeb0b7e1461035b57005b8063393bef2b116100f4578063393bef2b1461021457806359f719f5146102345780635adc024614610254578063615704c41461027457806367bc080c14610294578063715018a6146102b457005b806306889aa81461013657806313af40351461016c578063261002f31461018c5780633129e773146101ba57806333495dd3146101e757005b3661013457005b005b34801561014257600080fd5b5061015661015136600461241c565b610451565b604051610163919061243e565b60405180910390f35b34801561017857600080fd5b50610134610187366004612482565b6104fa565b34801561019857600080fd5b506101ac6101a73660046124ce565b610506565b604051908152602001610163565b3480156101c657600080fd5b506101da6101d53660046124fa565b610632565b604051610163919061260d565b3480156101f357600080fd5b506102076102023660046124fa565b6107b9565b6040516101639190612620565b34801561022057600080fd5b506101ac61022f36600461241c565b6109a3565b34801561024057600080fd5b5061015661024f3660046124fa565b610b86565b34801561026057600080fd5b506101ac61026f3660046126ca565b610c73565b34801561028057600080fd5b506101ac61028f3660046124fa565b610dd5565b3480156102a057600080fd5b506101ac6102af366004612727565b611088565b3480156102c057600080fd5b50610134611242565b3480156102d557600080fd5b506101ac6102e43660046126ca565b611256565b3480156102f557600080fd5b506001546001600160a01b03165b6040516001600160a01b039091168152602001610163565b34801561032757600080fd5b506101ac6103363660046124fa565b611311565b34801561034757600080fd5b506101ac610356366004612779565b6114ef565b34801561036757600080fd5b506101ac6103763660046124fa565b611712565b34801561038757600080fd5b5061039b6103963660046124fa565b61188f565b6040516101639a999897969594939291906127c9565b3480156103bd57600080fd5b506101ac6103cc36600461283a565b61197e565b3480156103dd57600080fd5b506102076103ec36600461241c565b611b51565b3480156103fd57600080fd5b506101ac61040c3660046124fa565b611d34565b34801561041d57600080fd5b5061013461042c366004612482565b611f19565b34801561043d57600080fd5b50600354610303906001600160a01b031681565b60606000826001600160401b0381111561046d5761046d61286f565b604051908082528060200260200182016040528015610496578160200160208202803683370190505b50905060005b60005485111580156104ad57508381105b156104f057848282815181106104c5576104c5612885565b6020908102919091010152806104da816128b1565b91505084806104e8906128b1565b95505061049c565b5090505b92915050565b61050381611f19565b50565b60008061051284610632565b905061051c611f8f565b610527816001611fe9565b6001600160401b03831661010082015260016101208201819052600085815260026020908152604090912083518155908301518392820190610569908261294f565b506040828101516002830180546001600160a01b039092166001600160a01b0319909216919091179055606083015160038301556080830151600483015560a0830151600583015560c0830151600683015560e0830151600783015561010083015160089092018054610120948501516001600160401b03908116600160401b026001600160801b03199092169481169490941717905591830151825187815291166020820152600080516020612ad783398151915291015b60405180910390a1509192915050565b61063a6123ae565b6000600260008481526020019081526020016000206040518061014001604052908160008201548152602001600182018054610675906128ca565b80601f01602080910402602001604051908101604052809291908181526020018280546106a1906128ca565b80156106ee5780601f106106c3576101008083540402835291602001916106ee565b820191906000526020600020905b8154815290600101906020018083116106d157829003601f168201915b505050918352505060028201546001600160a01b03166020820152600382015460408201526004820154606082015260058201546080820152600682015460a0820152600782015460c08201526008909101546001600160401b0380821660e0840152600160401b9091041661010090910152805190915083146104f45760405162461bcd60e51b815260206004820152601e60248201527f43616e6e6f742066696e64206974656d207769746820676976656e206964000060448201526064015b60405180910390fd5b606060006107c683610b86565b9050600081516001600160401b038111156107e3576107e361286f565b60405190808252806020026020018201604052801561081c57816020015b6108096123ae565b8152602001906001900390816108015790505b50905060005b825181101561099b576002600084838151811061084157610841612885565b60200260200101518152602001908152602001600020604051806101400160405290816000820154815260200160018201805461087d906128ca565b80601f01602080910402602001604051908101604052809291908181526020018280546108a9906128ca565b80156108f65780601f106108cb576101008083540402835291602001916108f6565b820191906000526020600020905b8154815290600101906020018083116108d957829003601f168201915b505050918352505060028201546001600160a01b03166020820152600382015460408201526004820154606082015260058201546080820152600682015460a0820152600782015460c08201526008909101546001600160401b0380821660e0840152600160401b9091041661010090910152825183908390811061097d5761097d612885565b60200260200101819052508080610993906128b1565b915050610822565b509392505050565b6000806109af84610632565b90506109b9611f8f565b6109c4816002611fe9565b8060e00151831115610a185760405162461bcd60e51b815260206004820181905260248201527f43616e6e6f7420636861726765206d6f7265207468616e206c6566746f76657260448201526064016107b0565b8060e001518314610a2a576002610a2d565b60045b60ff16610120820152600084815260026020908152604090912082518155908201518291906001820190610a61908261294f565b5060408201516002820180546001600160a01b039283166001600160a01b0319909116179055606083015160038301556080830151600483015560a0830151600583015560c0830151600683015560e0830151600783015561010083015160089092018054610120909401516001600160401b03908116600160401b026001600160801b03199095169316929092179290921790556001541615801590610b14575060408101516001600160a01b031615155b8015610b205750600083115b15610b53576003546040820151610b53916001600160a01b031690610b4d6001546001600160a01b031690565b86612069565b610120810151604080518681526001600160401b039092166020830152600080516020612ad78339815191529101610622565b6000805460609181841015610ba257610b9f8483612a0e565b90505b81811180610bae575060005b15610bce5760408051600080825260208201909252905b50949350505050565b6000846001600160401b03811115610be857610be861286f565b604051908082528060200260200182016040528015610c11578160200160208202803683370190505b5090506000825b84811015610c6857610c2b816001612a21565b838381518110610c3d57610c3d612885565b602090810291909101015281610c52816128b1565b9250508080610c60906128b1565b915050610c18565b509095945050505050565b600080610c7f87610632565b9050610c89611f8f565b610c94816003611fe9565b85858080601f0160208091040260200160405190810160405280939291908181526020018383808284376000920182905250602080870195865260c087018a90526080870189905260036101208801528c8252600290526040902085518155935185949350600184019250610d0a91508261294f565b506040828101516002830180546001600160a01b039092166001600160a01b0319909216919091179055606083015160038301556080830151600483015560a0830151600583015560c0830151600683015560e0830151600783015561010083015160089092018054610120948501516001600160401b03908116600160401b026001600160801b0319909216948116949094171790559183015182518a815291166020820152600080516020612ad7833981519152910160405180910390a1509495945050505050565b600080610de183610632565b9050610deb611f8f565b610df6816001611fe9565b600081608001518260a001518361010001516001600160401b0316610e1b9190612a0e565b610e259190612a34565b905060008261010001516018610e3b9190612a4b565b610e4690603c612a4b565b610e5190603c612a4b565b6001600160401b03168360600151610e699190612a21565b9050804211610e79576000610eb5565b603c8060188560800151610e8d9190612a76565b610e979190612a76565b610ea19190612a76565b610eab4283612a0e565b610eb59190612a34565b610ebf9083612a21565b60e08401526005610120840152600085815260026020908152604090912084518155908401518491906001820190610ef7908261294f565b506040828101516002830180546001600160a01b039283166001600160a01b0319909116179055606084015160038401556080840151600484015560a0840151600584015560c0840151600684015560e0840151600784015561010084015160089093018054610120909501516001600160401b03908116600160401b026001600160801b0319909616941693909317939093179091558401511615801590610fa4575060008360c00151115b15610fca57600354604084015160c0850151610fca926001600160a01b031691906121a7565b6000610fde6001546001600160a01b031690565b6001600160a01b031614158015611001575060408301516001600160a01b031615155b8015611011575060008360e00151115b15611048576003546040840151611048916001600160a01b03169061103e6001546001600160a01b031690565b8660e00151612069565b610120830151604080518781526001600160401b039092166020830152600080516020612ad783398151915291015b60405180910390a150929392505050565b60008061109486610632565b90506110a1816004611fe9565b848160c0015110156110e75760405162461bcd60e51b815260206004820152600f60248201526e48617320636f6c6c61746572616c3f60881b60448201526064016107b0565b848160c001516110f79190612a0e565b60c0820152600561012082015260008681526002602090815260409091208251815590820151829190600182019061112f908261294f565b506040828101516002830180546001600160a01b039283166001600160a01b0319909116179055606084015160038401556080840151600484015560a0840151600584015560c0840151600684015560e0840151600784015561010084015160089093018054610120909501516001600160401b03908116600160401b026001600160801b03199096169416939093179390931790915582015116158015906111dc575060008160c00151115b1561120257600354604082015160c0830151611202926001600160a01b031691906121a7565b610120810151604080518881526001600160401b039092166020830152600080516020612ad7833981519152910160405180910390a15093949350505050565b61124a611f8f565b61125460006122d8565b565b60008061126287610632565b905061126c611f8f565b611277816005611fe9565b85858080601f016020809104026020016040519081016040528093929190818152602001838380828437600092018290525060208087019586526080870189905260408088018390526060880183905260e0880183905260a08801839052610100880183905260c0880183905260036101208901528d83526002909152902085518155935185949350600184019250610d0a91508261294f565b60008061131d83610632565b9050611327611f8f565b611332816001611fe9565b600081608001518260a001518361010001516001600160401b03166113579190612a0e565b6113619190612a34565b9050600082610100015160186113779190612a4b565b61138290603c612a4b565b61138d90603c612a4b565b6001600160401b031683606001516113a59190612a21565b90508042116113b55760006113f1565b603c80601885608001516113c99190612a76565b6113d39190612a76565b6113dd9190612a76565b6113e74283612a0e565b6113f19190612a34565b6113fb9083612a21565b60e084015260026101208401819052600086815260209182526040902084518155908401518491906001820190611432908261294f565b506040828101516002830180546001600160a01b039092166001600160a01b0319909216919091179055606083015160038301556080830151600483015560a0830151600583015560c0830151600683015560e0830151600783015561010083015160089092018054610120948501516001600160401b03908116600160401b026001600160801b03199092169481169490941717905591850151825188815291166020820152600080516020612ad78339815191529101611077565b6000806114fa61232a565b90506115046123ae565b818152600082815260026020908152604090912082518155908201518291906001820190611532908261294f565b5060408201516002820180546001600160a01b039092166001600160a01b0319909216919091179055606082015160038201556080820151600482015560a0820151600582015560c0820151600682015560e0820151600782015561010082015160089091018054610120909301516001600160401b03908116600160401b026001600160801b03199094169216919091179190911790556115d2611f8f565b86868080601f0160208091040260200160405190810160405280939291908181526020018383808284376000920182905250602080870195865260c087018b9052608087018a9052600361012088015287825260029052604090208551815593518594935060018401925061164891508261294f565b506040828101516002830180546001600160a01b039092166001600160a01b0319909216919091179055606083015160038301556080830151600483015560a0830151600583015560c0830151600683015560e0830151600783015561010083015160089092018054610120948501516001600160401b03908116600160401b026001600160801b03199092169481169490941717905591830151825185815291166020820152600080516020612ad7833981519152910160405180910390a15095945050505050565b60008061171e83610632565b9050611728611f8f565b611733816002611fe9565b8060e001518160c00151101561177c5760405162461bcd60e51b815260206004820152600e60248201526d12185cc818dbdb1b185d195c985b60921b60448201526064016107b0565b8060e001518160c001516117909190612a0e565b60c082015260046101208201526000838152600260209081526040909120825181559082015182919060018201906117c8908261294f565b506040828101516002830180546001600160a01b039092166001600160a01b0319909216919091179055606083015160038301556080830151600483015560a0830151600583015560c0830151600683015560e0830151600783015561010083015160089092018054610120948501516001600160401b03908116600160401b026001600160801b03199092169481169490941717905591830151825186815291166020820152600080516020612ad7833981519152910160405180910390a15090919050565b600260205260009081526040902080546001820180549192916118b1906128ca565b80601f01602080910402602001604051908101604052809291908181526020018280546118dd906128ca565b801561192a5780601f106118ff5761010080835404028352916020019161192a565b820191906000526020600020905b81548152906001019060200180831161190d57829003601f168201915b5050505060028301546003840154600485015460058601546006870154600788015460089098015496976001600160a01b0390951696939550919390926001600160401b0380821691600160401b9004168a565b60008061198a85610632565b905061199581612346565b6119a0816003611fe9565b60808101516119b8906001600160401b038616612a34565b83146119fe5760405162461bcd60e51b8152602060048201526015602482015274416c6c6f77616e636520697320636f72726563743f60581b60448201526064016107b0565b6001600160401b03841661010082015242606082015260016101208201819052600086815260026020908152604090912083518155908301518392820190611a46908261294f565b5060408201516002820180546001600160a01b039092166001600160a01b0319909216919091179055606082015160038201556080820151600482015560a0820151600582015560c0820151600682015560e0820151600782015561010082015160089091018054610120909301516001600160401b03908116600160401b026001600160801b03199094169216919091179190911790553015801590611af1575060008160c00151115b15611b1257600354611b12906001600160a01b031633308460c00151612069565b610120810151604080518781526001600160401b039092166020830152600080516020612ad7833981519152910160405180910390a150929392505050565b60606000611b5f8484610451565b9050600081516001600160401b03811115611b7c57611b7c61286f565b604051908082528060200260200182016040528015611bb557816020015b611ba26123ae565b815260200190600190039081611b9a5790505b50905060005b8251811015610bc55760026000848381518110611bda57611bda612885565b602002602001015181526020019081526020016000206040518061014001604052908160008201548152602001600182018054611c16906128ca565b80601f0160208091040260200160405190810160405280929190818152602001828054611c42906128ca565b8015611c8f5780601f10611c6457610100808354040283529160200191611c8f565b820191906000526020600020905b815481529060010190602001808311611c7257829003601f168201915b505050918352505060028201546001600160a01b03166020820152600382015460408201526004820154606082015260058201546080820152600682015460a0820152600782015460c08201526008909101546001600160401b0380821660e0840152600160401b90910416610100909101528251839083908110611d1657611d16612885565b60200260200101819052508080611d2c906128b1565b915050611bbb565b600080611d4083610632565b9050611d4a611f8f565b611d55816001611fe9565b60008160a0015162015180836060015142611d709190612a0e565b611d7a9190612a76565b611d849190612a0e565b9050808260a00151611d969190612a21565b60a08301526080820151611daa9082612a34565b60e083015260016101208301819052600085815260026020908152604090912084518155908401518492820190611de1908261294f565b5060408201516002820180546001600160a01b039283166001600160a01b0319909116179055606083015160038301556080830151600483015560a0830151600583015560c0830151600683015560e0830151600783015561010083015160089092018054610120909401516001600160401b03908116600160401b026001600160801b03199095169316929092179290921790556001541615801590611e94575060408201516001600160a01b031615155b8015611ea4575060008260e00151115b15611edb576003546040830151611edb916001600160a01b031690611ed16001546001600160a01b031690565b8560e00151612069565b610120820151604080518681526001600160401b039092166020830152600080516020612ad7833981519152910160405180910390a1509192915050565b611f21611f8f565b6001600160a01b038116611f865760405162461bcd60e51b815260206004820152602660248201527f4f776e61626c653a206e6577206f776e657220697320746865207a65726f206160448201526564647265737360d01b60648201526084016107b0565b610503816122d8565b6001546001600160a01b031633146112545760405162461bcd60e51b815260206004820181905260248201527f4f776e61626c653a2063616c6c6572206973206e6f7420746865206f776e657260448201526064016107b0565b806001600160401b03168261012001516001600160401b0316146120655760405162461bcd60e51b815260206004820152602d60248201527f43616e6e6f742072756e20576f726b666c6f7720616374696f6e3b20756e657860448201526c7065637465642073746174757360981b60648201526084016107b0565b5050565b604080516001600160a01b0385811660248301528481166044830152606480830185905283518084039091018152608490920183526020820180516001600160e01b03166323b872dd60e01b17905291516000928392908816916120cd9190612a98565b6000604051808303816000865af19150503d806000811461210a576040519150601f19603f3d011682016040523d82523d6000602084013e61210f565b606091505b50915091508180156121395750805115806121395750808060200190518101906121399190612ab4565b61219f5760405162461bcd60e51b815260206004820152603160248201527f5472616e7366657248656c7065723a3a7472616e7366657246726f6d3a207472604482015270185b9cd9995c919c9bdb4819985a5b1959607a1b60648201526084016107b0565b505050505050565b604080516001600160a01b038481166024830152604480830185905283518084039091018152606490920183526020820180516001600160e01b031663a9059cbb60e01b17905291516000928392908716916122039190612a98565b6000604051808303816000865af19150503d8060008114612240576040519150601f19603f3d011682016040523d82523d6000602084013e612245565b606091505b509150915081801561226f57508051158061226f57508080602001905181019061226f9190612ab4565b6122d15760405162461bcd60e51b815260206004820152602d60248201527f5472616e7366657248656c7065723a3a736166655472616e736665723a20747260448201526c185b9cd9995c8819985a5b1959609a1b60648201526084016107b0565b5050505050565b600180546001600160a01b038381166001600160a01b0319831681179093556040519116919082907f8be0079c531659141344cd1fd0a4f28419497f9722a3daafe3b4186f6b6457e090600090a35050565b600080548180612339836128b1565b9190505550600054905090565b60408101516001600160a01b038116156123a357336001600160a01b038216146120655760405162461bcd60e51b815260206004820152600e60248201526d24b73b30b634b2102932b73a32b960911b60448201526064016107b0565b503360409190910152565b604051806101400160405280600081526020016060815260200160006001600160a01b03168152602001600081526020016000815260200160008152602001600081526020016000815260200160006001600160401b0316815260200160006001600160401b031681525090565b6000806040838503121561242f57600080fd5b50508035926020909101359150565b6020808252825182820181905260009190848201906040850190845b818110156124765783518352928401929184019160010161245a565b50909695505050505050565b60006020828403121561249457600080fd5b81356001600160a01b03811681146124ab57600080fd5b9392505050565b80356001600160401b03811681146124c957600080fd5b919050565b600080604083850312156124e157600080fd5b823591506124f1602084016124b2565b90509250929050565b60006020828403121561250c57600080fd5b5035919050565b60005b8381101561252e578181015183820152602001612516565b50506000910152565b6000815180845261254f816020860160208601612513565b601f01601f19169290920160200192915050565b600061014082518452602083015181602086015261258382860182612537565b91505060408301516125a060408601826001600160a01b03169052565b50606083015160608501526080830151608085015260a083015160a085015260c083015160c085015260e083015160e0850152610100808401516125ee828701826001600160401b03169052565b5050610120928301516001600160401b03169390920192909252919050565b6020815260006124ab6020830184612563565b6000602080830181845280855180835260408601915060408160051b870101925083870160005b8281101561267557603f19888603018452612663858351612563565b94509285019290850190600101612647565b5092979650505050505050565b60008083601f84011261269457600080fd5b5081356001600160401b038111156126ab57600080fd5b6020830191508360208285010111156126c357600080fd5b9250929050565b6000806000806000608086880312156126e257600080fd5b8535945060208601356001600160401b038111156126ff57600080fd5b61270b88828901612682565b9699909850959660408101359660609091013595509350505050565b6000806000806060858703121561273d57600080fd5b843593506020850135925060408501356001600160401b0381111561276157600080fd5b61276d87828801612682565b95989497509550505050565b6000806000806060858703121561278f57600080fd5b84356001600160401b038111156127a557600080fd5b6127b187828801612682565b90989097506020870135966040013595509350505050565b60006101408c83528060208401526127e38184018d612537565b6001600160a01b039b909b16604084015250506060810197909752608087019590955260a086019390935260c085019190915260e08401526001600160401b03908116610100840152166101209091015292915050565b60008060006060848603121561284f57600080fd5b8335925061285f602085016124b2565b9150604084013590509250925092565b634e487b7160e01b600052604160045260246000fd5b634e487b7160e01b600052603260045260246000fd5b634e487b7160e01b600052601160045260246000fd5b6000600182016128c3576128c361289b565b5060010190565b600181811c908216806128de57607f821691505b6020821081036128fe57634e487b7160e01b600052602260045260246000fd5b50919050565b601f82111561294a57600081815260208120601f850160051c8101602086101561292b5750805b601f850160051c820191505b8181101561219f57828155600101612937565b505050565b81516001600160401b038111156129685761296861286f565b61297c8161297684546128ca565b84612904565b602080601f8311600181146129b157600084156129995750858301515b600019600386901b1c1916600185901b17855561219f565b600085815260208120601f198616915b828110156129e0578886015182559484019460019091019084016129c1565b50858210156129fe5787850151600019600388901b60f8161c191681555b5050505050600190811b01905550565b818103818111156104f4576104f461289b565b808201808211156104f4576104f461289b565b80820281158282048414176104f4576104f461289b565b6001600160401b03818116838216028082169190828114612a6e57612a6e61289b565b505092915050565b600082612a9357634e487b7160e01b600052601260045260246000fd5b500490565b60008251612aaa818460208701612513565b9190910192915050565b600060208284031215612ac657600080fd5b815180151581146124ab57600080fdfef12a1a922705ffd5ec4fc8a3f56e1ddef3c5f715c7034230a0a280240c29a6f0a2646970667358221220abf4a76791339f9d395c9859bc42929a903c01de6fa4bc54c40813f263396cd464736f6c63430008130033",
    "sourcePath": "c:/Projects/Toolblox.Audit/Toolblox.Token/Audit/RentalWorkflow.sol",
    "compiler": {
        "name": "solc",
        "version": "0.8.19+commit.7dd6d404"
    },
    "functionHashes": {
        "charge(uint256)": "e457e1e5",
        "chargeWithCollateral(uint256)": "abeb0b7e",
        "endAndSettle(uint256)": "615704c4",
        "endRental(uint256)": "97491d6f",
        "finalCharge(uint256,uint256)": "393bef2b",
        "getItem(uint256)": "3129e773",
        "getLatest(uint256)": "33495dd3",
        "getLatestIds(uint256)": "59f719f5",
        "getPage(uint256,uint256)": "cd1a2e91",
        "getPageIds(uint256,uint256)": "06889aa8",
        "items(uint256)": "bfb231d2",
        "makeAvailable(uint256,string,uint256,uint256)": "806a0faf",
        "owner()": "8da5cb5b",
        "registerItem(string,uint256,uint256)": "a7c6309b",
        "releaseCollateral(uint256,uint256,string)": "67bc080c",
        "renounceOwnership()": "715018a6",
        "setOwner(address)": "13af4035",
        "startRent(uint256,uint64,uint256)": "cbd44ec4",
        "token()": "fc0c546a",
        "transferOwnership(address)": "f2fde38b",
        "update(uint256,string,uint256,uint256)": "5adc0246",
        "updateDuration(uint256,uint64)": "261002f3"
    },
    "gasEstimates": {
        "creation": {
            "codeDepositCost": "2210400",
            "executionCost": "infinite",
            "totalCost": "infinite"
        },
        "external": {
            "": "207",
            "charge(uint256)": "infinite",
            "chargeWithCollateral(uint256)": "infinite",
            "endAndSettle(uint256)": "infinite",
            "endRental(uint256)": "infinite",
            "finalCharge(uint256,uint256)": "infinite",
            "getItem(uint256)": "infinite",
            "getLatest(uint256)": "infinite",
            "getLatestIds(uint256)": "infinite",
            "getPage(uint256,uint256)": "infinite",
            "getPageIds(uint256,uint256)": "infinite",
            "items(uint256)": "infinite",
            "makeAvailable(uint256,string,uint256,uint256)": "infinite",
            "owner()": "2365",
            "registerItem(string,uint256,uint256)": "infinite",
            "releaseCollateral(uint256,uint256,string)": "infinite",
            "renounceOwnership()": "infinite",
            "setOwner(address)": "infinite",
            "startRent(uint256,uint64,uint256)": "infinite",
            "token()": "2469",
            "transferOwnership(address)": "28411",
            "update(uint256,string,uint256,uint256)": "infinite",
            "updateDuration(uint256,uint64)": "infinite"
        },
        "internal": {
            "_assertOnlyRenter(struct RentalWorkflow.Rental memory)": "infinite",
            "_assertStatus(struct RentalWorkflow.Rental memory,uint64)": "infinite"
        }
    }
}