{
    "contractName": "RentalWorkflow",
    "abi": [
        {
            "inputs": [],
            "stateMutability": "nonpayable",
            "type": "constructor"
        },
        {
            "anonymous": false,
            "inputs": [
                {
                    "indexed": false,
                    "internalType": "uint256",
                    "name": "_id",
                    "type": "uint256"
                },
                {
                    "indexed": false,
                    "internalType": "uint64",
                    "name": "_status",
                    "type": "uint64"
                }
            ],
            "name": "ItemUpdated",
            "type": "event"
        },
        {
            "anonymous": false,
            "inputs": [
                {
                    "indexed": true,
                    "internalType": "address",
                    "name": "previousOwner",
                    "type": "address"
                },
                {
                    "indexed": true,
                    "internalType": "address",
                    "name": "newOwner",
                    "type": "address"
                }
            ],
            "name": "OwnershipTransferred",
            "type": "event"
        },
        {
            "stateMutability": "payable",
            "type": "fallback"
        },
        {
            "inputs": [],
            "name": "RENTER_ROLE",
            "outputs": [
                {
                    "internalType": "bytes32",
                    "name": "",
                    "type": "bytes32"
                }
            ],
            "stateMutability": "view",
            "type": "function"
        },
        {
            "inputs": [
                {
                    "internalType": "uint256",
                    "name": "id",
                    "type": "uint256"
                }
            ],
            "name": "charge",
            "outputs": [
                {
                    "internalType": "uint256",
                    "name": "",
                    "type": "uint256"
                }
            ],
            "stateMutability": "nonpayable",
            "type": "function"
        },
        {
            "inputs": [
                {
                    "internalType": "uint256",
                    "name": "id",
                    "type": "uint256"
                }
            ],
            "name": "chargeWithCollateral",
            "outputs": [
                {
                    "internalType": "uint256",
                    "name": "",
                    "type": "uint256"
                }
            ],
            "stateMutability": "nonpayable",
            "type": "function"
        },
        {
            "inputs": [
                {
                    "internalType": "uint256",
                    "name": "id",
                    "type": "uint256"
                }
            ],
            "name": "endAndSettle",
            "outputs": [
                {
                    "internalType": "uint256",
                    "name": "",
                    "type": "uint256"
                }
            ],
            "stateMutability": "nonpayable",
            "type": "function"
        },
        {
            "inputs": [
                {
                    "internalType": "uint256",
                    "name": "id",
                    "type": "uint256"
                }
            ],
            "name": "endRental",
            "outputs": [
                {
                    "internalType": "uint256",
                    "name": "",
                    "type": "uint256"
                }
            ],
            "stateMutability": "nonpayable",
            "type": "function"
        },
        {
            "inputs": [
                {
                    "internalType": "uint256",
                    "name": "id",
                    "type": "uint256"
                },
                {
                    "internalType": "uint256",
                    "name": "chargeAmount",
                    "type": "uint256"
                }
            ],
            "name": "finalCharge",
            "outputs": [
                {
                    "internalType": "uint256",
                    "name": "",
                    "type": "uint256"
                }
            ],
            "stateMutability": "nonpayable",
            "type": "function"
        },
        {
            "inputs": [
                {
                    "internalType": "uint256",
                    "name": "id",
                    "type": "uint256"
                }
            ],
            "name": "getItem",
            "outputs": [
                {
                    "components": [
                        {
                            "internalType": "uint256",
                            "name": "id",
                            "type": "uint256"
                        },
                        {
                            "internalType": "string",
                            "name": "name",
                            "type": "string"
                        },
                        {
                            "internalType": "address",
                            "name": "renter",
                            "type": "address"
                        },
                        {
                            "internalType": "uint256",
                            "name": "startTime",
                            "type": "uint256"
                        },
                        {
                            "internalType": "uint256",
                            "name": "pricePerDay",
                            "type": "uint256"
                        },
                        {
                            "internalType": "uint256",
                            "name": "daysCharged",
                            "type": "uint256"
                        },
                        {
                            "internalType": "uint256",
                            "name": "collateral",
                            "type": "uint256"
                        },
                        {
                            "internalType": "uint256",
                            "name": "leftoverCharge",
                            "type": "uint256"
                        },
                        {
                            "internalType": "uint64",
                            "name": "numberOfDays",
                            "type": "uint64"
                        },
                        {
                            "internalType": "uint64",
                            "name": "status",
                            "type": "uint64"
                        }
                    ],
                    "internalType": "struct RentalWorkflow.Rental",
                    "name": "",
                    "type": "tuple"
                }
            ],
            "stateMutability": "view",
            "type": "function"
        },
        {
            "inputs": [
                {
                    "internalType": "uint256",
                    "name": "cnt",
                    "type": "uint256"
                }
            ],
            "name": "getLatest",
            "outputs": [
                {
                    "components": [
                        {
                            "internalType": "uint256",
                            "name": "id",
                            "type": "uint256"
                        },
                        {
                            "internalType": "string",
                            "name": "name",
                            "type": "string"
                        },
                        {
                            "internalType": "address",
                            "name": "renter",
                            "type": "address"
                        },
                        {
                            "internalType": "uint256",
                            "name": "startTime",
                            "type": "uint256"
                        },
                        {
                            "internalType": "uint256",
                            "name": "pricePerDay",
                            "type": "uint256"
                        },
                        {
                            "internalType": "uint256",
                            "name": "daysCharged",
                            "type": "uint256"
                        },
                        {
                            "internalType": "uint256",
                            "name": "collateral",
                            "type": "uint256"
                        },
                        {
                            "internalType": "uint256",
                            "name": "leftoverCharge",
                            "type": "uint256"
                        },
                        {
                            "internalType": "uint64",
                            "name": "numberOfDays",
                            "type": "uint64"
                        },
                        {
                            "internalType": "uint64",
                            "name": "status",
                            "type": "uint64"
                        }
                    ],
                    "internalType": "struct RentalWorkflow.Rental[]",
                    "name": "",
                    "type": "tuple[]"
                }
            ],
            "stateMutability": "view",
            "type": "function"
        },
        {
            "inputs": [
                {
                    "internalType": "uint256",
                    "name": "cnt",
                    "type": "uint256"
                }
            ],
            "name": "getLatestIds",
            "outputs": [
                {
                    "internalType": "uint256[]",
                    "name": "",
                    "type": "uint256[]"
                }
            ],
            "stateMutability": "view",
            "type": "function"
        },
        {
            "inputs": [
                {
                    "internalType": "uint256",
                    "name": "cursor",
                    "type": "uint256"
                },
                {
                    "internalType": "uint256",
                    "name": "howMany",
                    "type": "uint256"
                }
            ],
            "name": "getPage",
            "outputs": [
                {
                    "components": [
                        {
                            "internalType": "uint256",
                            "name": "id",
                            "type": "uint256"
                        },
                        {
                            "internalType": "string",
                            "name": "name",
                            "type": "string"
                        },
                        {
                            "internalType": "address",
                            "name": "renter",
                            "type": "address"
                        },
                        {
                            "internalType": "uint256",
                            "name": "startTime",
                            "type": "uint256"
                        },
                        {
                            "internalType": "uint256",
                            "name": "pricePerDay",
                            "type": "uint256"
                        },
                        {
                            "internalType": "uint256",
                            "name": "daysCharged",
                            "type": "uint256"
                        },
                        {
                            "internalType": "uint256",
                            "name": "collateral",
                            "type": "uint256"
                        },
                        {
                            "internalType": "uint256",
                            "name": "leftoverCharge",
                            "type": "uint256"
                        },
                        {
                            "internalType": "uint64",
                            "name": "numberOfDays",
                            "type": "uint64"
                        },
                        {
                            "internalType": "uint64",
                            "name": "status",
                            "type": "uint64"
                        }
                    ],
                    "internalType": "struct RentalWorkflow.Rental[]",
                    "name": "",
                    "type": "tuple[]"
                }
            ],
            "stateMutability": "view",
            "type": "function"
        },
        {
            "inputs": [
                {
                    "internalType": "uint256",
                    "name": "cursor",
                    "type": "uint256"
                },
                {
                    "internalType": "uint256",
                    "name": "howMany",
                    "type": "uint256"
                }
            ],
            "name": "getPageIds",
            "outputs": [
                {
                    "internalType": "uint256[]",
                    "name": "",
                    "type": "uint256[]"
                }
            ],
            "stateMutability": "view",
            "type": "function"
        },
        {
            "inputs": [
                {
                    "internalType": "uint256",
                    "name": "id",
                    "type": "uint256"
                }
            ],
            "name": "increaseAllowance",
            "outputs": [
                {
                    "internalType": "uint256",
                    "name": "",
                    "type": "uint256"
                }
            ],
            "stateMutability": "nonpayable",
            "type": "function"
        },
        {
            "inputs": [
                {
                    "internalType": "uint256",
                    "name": "",
                    "type": "uint256"
                }
            ],
            "name": "items",
            "outputs": [
                {
                    "internalType": "uint256",
                    "name": "id",
                    "type": "uint256"
                },
                {
                    "internalType": "string",
                    "name": "name",
                    "type": "string"
                },
                {
                    "internalType": "address",
                    "name": "renter",
                    "type": "address"
                },
                {
                    "internalType": "uint256",
                    "name": "startTime",
                    "type": "uint256"
                },
                {
                    "internalType": "uint256",
                    "name": "pricePerDay",
                    "type": "uint256"
                },
                {
                    "internalType": "uint256",
                    "name": "daysCharged",
                    "type": "uint256"
                },
                {
                    "internalType": "uint256",
                    "name": "collateral",
                    "type": "uint256"
                },
                {
                    "internalType": "uint256",
                    "name": "leftoverCharge",
                    "type": "uint256"
                },
                {
                    "internalType": "uint64",
                    "name": "numberOfDays",
                    "type": "uint64"
                },
                {
                    "internalType": "uint64",
                    "name": "status",
                    "type": "uint64"
                }
            ],
            "stateMutability": "view",
            "type": "function"
        },
        {
            "inputs": [
                {
                    "internalType": "uint256",
                    "name": "id",
                    "type": "uint256"
                },
                {
                    "internalType": "string",
                    "name": "name",
                    "type": "string"
                },
                {
                    "internalType": "uint256",
                    "name": "collateral",
                    "type": "uint256"
                },
                {
                    "internalType": "uint256",
                    "name": "pricePerDay",
                    "type": "uint256"
                }
            ],
            "name": "makeAvailable",
            "outputs": [
                {
                    "internalType": "uint256",
                    "name": "",
                    "type": "uint256"
                }
            ],
            "stateMutability": "nonpayable",
            "type": "function"
        },
        {
            "inputs": [],
            "name": "owner",
            "outputs": [
                {
                    "internalType": "address",
                    "name": "",
                    "type": "address"
                }
            ],
            "stateMutability": "view",
            "type": "function"
        },
        {
            "inputs": [
                {
                    "internalType": "string",
                    "name": "name",
                    "type": "string"
                },
                {
                    "internalType": "uint256",
                    "name": "collateral",
                    "type": "uint256"
                },
                {
                    "internalType": "uint256",
                    "name": "pricePerDay",
                    "type": "uint256"
                }
            ],
            "name": "registerItem",
            "outputs": [
                {
                    "internalType": "uint256",
                    "name": "",
                    "type": "uint256"
                }
            ],
            "stateMutability": "nonpayable",
            "type": "function"
        },
        {
            "inputs": [
                {
                    "internalType": "uint256",
                    "name": "id",
                    "type": "uint256"
                },
                {
                    "internalType": "uint256",
                    "name": "chargeAmount",
                    "type": "uint256"
                },
                {
                    "internalType": "string",
                    "name": "",
                    "type": "string"
                }
            ],
            "name": "releaseCollateral",
            "outputs": [
                {
                    "internalType": "uint256",
                    "name": "",
                    "type": "uint256"
                }
            ],
            "stateMutability": "nonpayable",
            "type": "function"
        },
        {
            "inputs": [],
            "name": "renounceOwnership",
            "outputs": [],
            "stateMutability": "nonpayable",
            "type": "function"
        },
        {
            "inputs": [
                {
                    "internalType": "address",
                    "name": "_newOwner",
                    "type": "address"
                }
            ],
            "name": "setOwner",
            "outputs": [],
            "stateMutability": "nonpayable",
            "type": "function"
        },
        {
            "inputs": [
                {
                    "internalType": "uint256",
                    "name": "id",
                    "type": "uint256"
                },
                {
                    "internalType": "uint64",
                    "name": "numberOfDays",
                    "type": "uint64"
                },
                {
                    "internalType": "uint256",
                    "name": "allowance",
                    "type": "uint256"
                }
            ],
            "name": "startRent",
            "outputs": [
                {
                    "internalType": "uint256",
                    "name": "",
                    "type": "uint256"
                }
            ],
            "stateMutability": "nonpayable",
            "type": "function"
        },
        {
            "inputs": [],
            "name": "token",
            "outputs": [
                {
                    "internalType": "address",
                    "name": "",
                    "type": "address"
                }
            ],
            "stateMutability": "view",
            "type": "function"
        },
        {
            "inputs": [
                {
                    "internalType": "address",
                    "name": "newOwner",
                    "type": "address"
                }
            ],
            "name": "transferOwnership",
            "outputs": [],
            "stateMutability": "nonpayable",
            "type": "function"
        },
        {
            "inputs": [
                {
                    "internalType": "uint256",
                    "name": "id",
                    "type": "uint256"
                },
                {
                    "internalType": "string",
                    "name": "name",
                    "type": "string"
                },
                {
                    "internalType": "uint256",
                    "name": "collateral",
                    "type": "uint256"
                },
                {
                    "internalType": "uint256",
                    "name": "pricePerDay",
                    "type": "uint256"
                }
            ],
            "name": "update",
            "outputs": [
                {
                    "internalType": "uint256",
                    "name": "",
                    "type": "uint256"
                }
            ],
            "stateMutability": "nonpayable",
            "type": "function"
        },
        {
            "inputs": [
                {
                    "internalType": "uint256",
                    "name": "id",
                    "type": "uint256"
                }
            ],
            "name": "updateAllowance",
            "outputs": [
                {
                    "internalType": "uint256",
                    "name": "",
                    "type": "uint256"
                }
            ],
            "stateMutability": "nonpayable",
            "type": "function"
        },
        {
            "inputs": [
                {
                    "internalType": "uint256",
                    "name": "id",
                    "type": "uint256"
                },
                {
                    "internalType": "uint64",
                    "name": "numberOfDays",
                    "type": "uint64"
                }
            ],
            "name": "updateDuration",
            "outputs": [
                {
                    "internalType": "uint256",
                    "name": "",
                    "type": "uint256"
                }
            ],
            "stateMutability": "nonpayable",
            "type": "function"
        },
        {
            "stateMutability": "payable",
            "type": "receive"
        }
    ],
    "bytecode": "608060405260008055600480546001600160a01b0319167302cbe6055f8aad745321f70d6add4711455c7f451790553480156200003b57600080fd5b5062000047336200007e565b62000052336200007e565b600380546001600160a01b03191673ad26e98e521ef7cd31c4a915fe71560c968c37db179055620000d0565b600180546001600160a01b038381166001600160a01b0319831681179093556040519116919082907f8be0079c531659141344cd1fd0a4f28419497f9722a3daafe3b4186f6b6457e090600090a35050565b612c7680620000e06000396000f3fe60806040526004361061015b5760003560e01c8063806a0faf116100c8578063bfb231d211610084578063cd1a2e9111610061578063cd1a2e9114610473578063e457e1e514610493578063f2fde38b146104b3578063fc0c546a146104d357005b8063bfb231d2146103fd578063c8be77a114610433578063cbd44ec41461045357005b8063806a0faf146103175780638da5cb5b1461033757806397491d6f14610369578063a7c6309b14610389578063abeb0b7e146103a9578063b97c9f77146103c957005b8063393bef2b11610117578063393bef2b1461026257806359f719f5146102825780635adc0246146102a2578063615704c4146102c257806367bc080c146102e2578063715018a61461030257005b806306889aa81461016457806311e330b21461019a57806313af4035146101c8578063261002f3146101e85780633129e7731461020857806333495dd31461023557005b3661016257005b005b34801561017057600080fd5b5061018461017f366004612566565b6104f3565b6040516101919190612588565b60405180910390f35b3480156101a657600080fd5b506101ba6101b53660046125cc565b61059c565b604051908152602001610191565b3480156101d457600080fd5b506101626101e33660046125e5565b6106b7565b3480156101f457600080fd5b506101ba610203366004612631565b6106c3565b34801561021457600080fd5b506102286102233660046125cc565b6107ef565b6040516101919190612757565b34801561024157600080fd5b506102556102503660046125cc565b610976565b604051610191919061276a565b34801561026e57600080fd5b506101ba61027d366004612566565b610b60565b34801561028e57600080fd5b5061018461029d3660046125cc565b610d43565b3480156102ae57600080fd5b506101ba6102bd366004612814565b610e30565b3480156102ce57600080fd5b506101ba6102dd3660046125cc565b610f92565b3480156102ee57600080fd5b506101ba6102fd366004612871565b611245565b34801561030e57600080fd5b506101626113ff565b34801561032357600080fd5b506101ba610332366004612814565b611413565b34801561034357600080fd5b506001546001600160a01b03165b6040516001600160a01b039091168152602001610191565b34801561037557600080fd5b506101ba6103843660046125cc565b6114ce565b34801561039557600080fd5b506101ba6103a43660046128c3565b6116ac565b3480156103b557600080fd5b506101ba6103c43660046125cc565b6118cf565b3480156103d557600080fd5b506101ba7f3b652633b3026fa70803ad50b58b0ae884cefe3497643f62c67c466f41a6e88d81565b34801561040957600080fd5b5061041d6104183660046125cc565b611985565b6040516101919a99989796959493929190612913565b34801561043f57600080fd5b506101ba61044e3660046125cc565b611a74565b34801561045f57600080fd5b506101ba61046e366004612984565b611ac8565b34801561047f57600080fd5b5061025561048e366004612566565b611c9b565b34801561049f57600080fd5b506101ba6104ae3660046125cc565b611e7e565b3480156104bf57600080fd5b506101626104ce3660046125e5565b612063565b3480156104df57600080fd5b50600454610351906001600160a01b031681565b60606000826001600160401b0381111561050f5761050f6129b9565b604051908082528060200260200182016040528015610538578160200160208202803683370190505b50905060005b600054851115801561054f57508381105b156105925784828281518110610567576105676129cf565b60209081029190910101528061057c816129fb565b915050848061058a906129fb565b95505061053e565b5090505b92915050565b6000806105a8836107ef565b90506105b3816120d9565b6105be816002612145565b600261012082018190526000848152602091825260409020825181559082015182919060018201906105f09082612a99565b506040828101516002830180546001600160a01b039092166001600160a01b0319909216919091179055606083015160038301556080830151600483015560a0830151600583015560c0830151600683015560e0830151600783015561010083015160089092018054610120948501516001600160401b03908116600160401b026001600160801b03199092169481169490941717905591830151825186815291166020820152600080516020612c21833981519152910160405180910390a15090919050565b6106c081612063565b50565b6000806106cf846107ef565b90506106d96121c1565b6106e4816001612145565b6001600160401b038316610100820152600161012082018190526000858152600260209081526040909120835181559083015183928201906107269082612a99565b506040828101516002830180546001600160a01b039092166001600160a01b0319909216919091179055606083015160038301556080830151600483015560a0830151600583015560c0830151600683015560e0830151600783015561010083015160089092018054610120948501516001600160401b03908116600160401b026001600160801b03199092169481169490941717905591830151825187815291166020820152600080516020612c2183398151915291015b60405180910390a1509192915050565b6107f76124f8565b600060026000848152602001908152602001600020604051806101400160405290816000820154815260200160018201805461083290612a14565b80601f016020809104026020016040519081016040528092919081815260200182805461085e90612a14565b80156108ab5780601f10610880576101008083540402835291602001916108ab565b820191906000526020600020905b81548152906001019060200180831161088e57829003601f168201915b505050918352505060028201546001600160a01b03166020820152600382015460408201526004820154606082015260058201546080820152600682015460a0820152600782015460c08201526008909101546001600160401b0380821660e0840152600160401b9091041661010090910152805190915083146105965760405162461bcd60e51b815260206004820152601e60248201527f43616e6e6f742066696e64206974656d207769746820676976656e206964000060448201526064015b60405180910390fd5b6060600061098383610d43565b9050600081516001600160401b038111156109a0576109a06129b9565b6040519080825280602002602001820160405280156109d957816020015b6109c66124f8565b8152602001906001900390816109be5790505b50905060005b8251811015610b5857600260008483815181106109fe576109fe6129cf565b602002602001015181526020019081526020016000206040518061014001604052908160008201548152602001600182018054610a3a90612a14565b80601f0160208091040260200160405190810160405280929190818152602001828054610a6690612a14565b8015610ab35780601f10610a8857610100808354040283529160200191610ab3565b820191906000526020600020905b815481529060010190602001808311610a9657829003601f168201915b505050918352505060028201546001600160a01b03166020820152600382015460408201526004820154606082015260058201546080820152600682015460a0820152600782015460c08201526008909101546001600160401b0380821660e0840152600160401b90910416610100909101528251839083908110610b3a57610b3a6129cf565b60200260200101819052508080610b50906129fb565b9150506109df565b509392505050565b600080610b6c846107ef565b9050610b766121c1565b610b81816002612145565b8060e00151831115610bd55760405162461bcd60e51b815260206004820181905260248201527f43616e6e6f7420636861726765206d6f7265207468616e206c6566746f766572604482015260640161096d565b8060e001518314610be7576002610bea565b60045b60ff16610120820152600084815260026020908152604090912082518155908201518291906001820190610c1e9082612a99565b5060408201516002820180546001600160a01b039283166001600160a01b0319909116179055606083015160038301556080830151600483015560a0830151600583015560c0830151600683015560e0830151600783015561010083015160089092018054610120909401516001600160401b03908116600160401b026001600160801b03199095169316929092179290921790556001541615801590610cd1575060408101516001600160a01b031615155b8015610cdd5750600083115b15610d10576004546040820151610d10916001600160a01b031690610d0a6001546001600160a01b031690565b8661221b565b610120810151604080518681526001600160401b039092166020830152600080516020612c2183398151915291016107df565b6000805460609181841015610d5f57610d5c8483612b58565b90505b81811180610d6b575060005b15610d8b5760408051600080825260208201909252905b50949350505050565b6000846001600160401b03811115610da557610da56129b9565b604051908082528060200260200182016040528015610dce578160200160208202803683370190505b5090506000825b84811015610e2557610de8816001612b6b565b838381518110610dfa57610dfa6129cf565b602090810291909101015281610e0f816129fb565b9250508080610e1d906129fb565b915050610dd5565b509095945050505050565b600080610e3c876107ef565b9050610e466121c1565b610e51816003612145565b85858080601f0160208091040260200160405190810160405280939291908181526020018383808284376000920182905250602080870195865260c087018a90526080870189905260036101208801528c8252600290526040902085518155935185949350600184019250610ec7915082612a99565b506040828101516002830180546001600160a01b039092166001600160a01b0319909216919091179055606083015160038301556080830151600483015560a0830151600583015560c0830151600683015560e0830151600783015561010083015160089092018054610120948501516001600160401b03908116600160401b026001600160801b0319909216948116949094171790559183015182518a815291166020820152600080516020612c21833981519152910160405180910390a1509495945050505050565b600080610f9e836107ef565b9050610fa86121c1565b610fb3816001612145565b600081608001518260a001518361010001516001600160401b0316610fd89190612b58565b610fe29190612b7e565b905060008261010001516018610ff89190612b95565b61100390603c612b95565b61100e90603c612b95565b6001600160401b031683606001516110269190612b6b565b9050804211611036576000611072565b603c806018856080015161104a9190612bc0565b6110549190612bc0565b61105e9190612bc0565b6110684283612b58565b6110729190612b7e565b61107c9083612b6b565b60e084015260056101208401526000858152600260209081526040909120845181559084015184919060018201906110b49082612a99565b506040828101516002830180546001600160a01b039283166001600160a01b0319909116179055606084015160038401556080840151600484015560a0840151600584015560c0840151600684015560e0840151600784015561010084015160089093018054610120909501516001600160401b03908116600160401b026001600160801b0319909616941693909317939093179091558401511615801590611161575060008360c00151115b1561118757600454604084015160c0850151611187926001600160a01b03169190612359565b600061119b6001546001600160a01b031690565b6001600160a01b0316141580156111be575060408301516001600160a01b031615155b80156111ce575060008360e00151115b15611205576004546040840151611205916001600160a01b0316906111fb6001546001600160a01b031690565b8660e0015161221b565b610120830151604080518781526001600160401b039092166020830152600080516020612c2183398151915291015b60405180910390a150929392505050565b600080611251866107ef565b905061125e816004612145565b848160c0015110156112a45760405162461bcd60e51b815260206004820152600f60248201526e48617320636f6c6c61746572616c3f60881b604482015260640161096d565b848160c001516112b49190612b58565b60c082015260056101208201526000868152600260209081526040909120825181559082015182919060018201906112ec9082612a99565b506040828101516002830180546001600160a01b039283166001600160a01b0319909116179055606084015160038401556080840151600484015560a0840151600584015560c0840151600684015560e0840151600784015561010084015160089093018054610120909501516001600160401b03908116600160401b026001600160801b0319909616941693909317939093179091558201511615801590611399575060008160c00151115b156113bf57600454604082015160c08301516113bf926001600160a01b03169190612359565b610120810151604080518881526001600160401b039092166020830152600080516020612c21833981519152910160405180910390a15093949350505050565b6114076121c1565b611411600061248a565b565b60008061141f876107ef565b90506114296121c1565b611434816005612145565b85858080601f016020809104026020016040519081016040528093929190818152602001838380828437600092018290525060208087019586526080870189905260408088018390526060880183905260e0880183905260a08801839052610100880183905260c0880183905260036101208901528d83526002909152902085518155935185949350600184019250610ec7915082612a99565b6000806114da836107ef565b90506114e46121c1565b6114ef816001612145565b600081608001518260a001518361010001516001600160401b03166115149190612b58565b61151e9190612b7e565b9050600082610100015160186115349190612b95565b61153f90603c612b95565b61154a90603c612b95565b6001600160401b031683606001516115629190612b6b565b90508042116115725760006115ae565b603c80601885608001516115869190612bc0565b6115909190612bc0565b61159a9190612bc0565b6115a44283612b58565b6115ae9190612b7e565b6115b89083612b6b565b60e0840152600261012084018190526000868152602091825260409020845181559084015184919060018201906115ef9082612a99565b506040828101516002830180546001600160a01b039092166001600160a01b0319909216919091179055606083015160038301556080830151600483015560a0830151600583015560c0830151600683015560e0830151600783015561010083015160089092018054610120948501516001600160401b03908116600160401b026001600160801b03199092169481169490941717905591850151825188815291166020820152600080516020612c218339815191529101611234565b6000806116b76124dc565b90506116c16124f8565b8181526000828152600260209081526040909120825181559082015182919060018201906116ef9082612a99565b5060408201516002820180546001600160a01b039092166001600160a01b0319909216919091179055606082015160038201556080820151600482015560a0820151600582015560c0820151600682015560e0820151600782015561010082015160089091018054610120909301516001600160401b03908116600160401b026001600160801b031990941692169190911791909117905561178f6121c1565b86868080601f0160208091040260200160405190810160405280939291908181526020018383808284376000920182905250602080870195865260c087018b9052608087018a90526003610120880152878252600290526040902085518155935185949350600184019250611805915082612a99565b506040828101516002830180546001600160a01b039092166001600160a01b0319909216919091179055606083015160038301556080830151600483015560a0830151600583015560c0830151600683015560e0830151600783015561010083015160089092018054610120948501516001600160401b03908116600160401b026001600160801b03199092169481169490941717905591830151825185815291166020820152600080516020612c21833981519152910160405180910390a15095945050505050565b6000806118db836107ef565b90506118e56121c1565b6118f0816002612145565b8060e001518160c0015110156119395760405162461bcd60e51b815260206004820152600e60248201526d12185cc818dbdb1b185d195c985b60921b604482015260640161096d565b8060e001518160c0015161194d9190612b58565b60c082015260046101208201526000838152600260209081526040909120825181559082015182919060018201906105f09082612a99565b600260205260009081526040902080546001820180549192916119a790612a14565b80601f01602080910402602001604051908101604052809291908181526020018280546119d390612a14565b8015611a205780601f106119f557610100808354040283529160200191611a20565b820191906000526020600020905b815481529060010190602001808311611a0357829003601f168201915b5050505060028301546003840154600485015460058601546006870154600788015460089098015496976001600160a01b0390951696939550919390926001600160401b0380821691600160401b9004168a565b600080611a80836107ef565b9050611a8b816120d9565b611a96816001612145565b600161012082018190526000848152600260209081526040909120835181559083015183928201906105f09082612a99565b600080611ad4856107ef565b9050611adf816120d9565b611aea816003612145565b6080810151611b02906001600160401b038616612b7e565b8314611b485760405162461bcd60e51b8152602060048201526015602482015274416c6c6f77616e636520697320636f72726563743f60581b604482015260640161096d565b6001600160401b03841661010082015242606082015260016101208201819052600086815260026020908152604090912083518155908301518392820190611b909082612a99565b5060408201516002820180546001600160a01b039092166001600160a01b0319909216919091179055606082015160038201556080820151600482015560a0820151600582015560c0820151600682015560e0820151600782015561010082015160089091018054610120909301516001600160401b03908116600160401b026001600160801b03199094169216919091179190911790553015801590611c3b575060008160c00151115b15611c5c57600454611c5c906001600160a01b031633308460c0015161221b565b610120810151604080518781526001600160401b039092166020830152600080516020612c21833981519152910160405180910390a150929392505050565b60606000611ca984846104f3565b9050600081516001600160401b03811115611cc657611cc66129b9565b604051908082528060200260200182016040528015611cff57816020015b611cec6124f8565b815260200190600190039081611ce45790505b50905060005b8251811015610d825760026000848381518110611d2457611d246129cf565b602002602001015181526020019081526020016000206040518061014001604052908160008201548152602001600182018054611d6090612a14565b80601f0160208091040260200160405190810160405280929190818152602001828054611d8c90612a14565b8015611dd95780601f10611dae57610100808354040283529160200191611dd9565b820191906000526020600020905b815481529060010190602001808311611dbc57829003601f168201915b505050918352505060028201546001600160a01b03166020820152600382015460408201526004820154606082015260058201546080820152600682015460a0820152600782015460c08201526008909101546001600160401b0380821660e0840152600160401b90910416610100909101528251839083908110611e6057611e606129cf565b60200260200101819052508080611e76906129fb565b915050611d05565b600080611e8a836107ef565b9050611e946121c1565b611e9f816001612145565b60008160a0015162015180836060015142611eba9190612b58565b611ec49190612bc0565b611ece9190612b58565b9050808260a00151611ee09190612b6b565b60a08301526080820151611ef49082612b7e565b60e083015260016101208301819052600085815260026020908152604090912084518155908401518492820190611f2b9082612a99565b5060408201516002820180546001600160a01b039283166001600160a01b0319909116179055606083015160038301556080830151600483015560a0830151600583015560c0830151600683015560e0830151600783015561010083015160089092018054610120909401516001600160401b03908116600160401b026001600160801b03199095169316929092179290921790556001541615801590611fde575060408201516001600160a01b031615155b8015611fee575060008260e00151115b15612025576004546040830151612025916001600160a01b03169061201b6001546001600160a01b031690565b8560e0015161221b565b610120820151604080518681526001600160401b039092166020830152600080516020612c21833981519152910160405180910390a1509192915050565b61206b6121c1565b6001600160a01b0381166120d05760405162461bcd60e51b815260206004820152602660248201527f4f776e61626c653a206e6577206f776e657220697320746865207a65726f206160448201526564647265737360d01b606482015260840161096d565b6106c08161248a565b60408101516001600160a01b0381161561213a57336001600160a01b038216146121365760405162461bcd60e51b815260206004820152600e60248201526d24b73b30b634b2102932b73a32b960911b604482015260640161096d565b5050565b503360409190910152565b806001600160401b03168261012001516001600160401b0316146121365760405162461bcd60e51b815260206004820152602d60248201527f43616e6e6f742072756e20576f726b666c6f7720616374696f6e3b20756e657860448201526c7065637465642073746174757360981b606482015260840161096d565b6001546001600160a01b031633146114115760405162461bcd60e51b815260206004820181905260248201527f4f776e61626c653a2063616c6c6572206973206e6f7420746865206f776e6572604482015260640161096d565b604080516001600160a01b0385811660248301528481166044830152606480830185905283518084039091018152608490920183526020820180516001600160e01b03166323b872dd60e01b179052915160009283929088169161227f9190612be2565b6000604051808303816000865af19150503d80600081146122bc576040519150601f19603f3d011682016040523d82523d6000602084013e6122c1565b606091505b50915091508180156122eb5750805115806122eb5750808060200190518101906122eb9190612bfe565b6123515760405162461bcd60e51b815260206004820152603160248201527f5472616e7366657248656c7065723a3a7472616e7366657246726f6d3a207472604482015270185b9cd9995c919c9bdb4819985a5b1959607a1b606482015260840161096d565b505050505050565b604080516001600160a01b038481166024830152604480830185905283518084039091018152606490920183526020820180516001600160e01b031663a9059cbb60e01b17905291516000928392908716916123b59190612be2565b6000604051808303816000865af19150503d80600081146123f2576040519150601f19603f3d011682016040523d82523d6000602084013e6123f7565b606091505b50915091508180156124215750805115806124215750808060200190518101906124219190612bfe565b6124835760405162461bcd60e51b815260206004820152602d60248201527f5472616e7366657248656c7065723a3a736166655472616e736665723a20747260448201526c185b9cd9995c8819985a5b1959609a1b606482015260840161096d565b5050505050565b600180546001600160a01b038381166001600160a01b0319831681179093556040519116919082907f8be0079c531659141344cd1fd0a4f28419497f9722a3daafe3b4186f6b6457e090600090a35050565b6000805481806124eb836129fb565b9190505550600054905090565b604051806101400160405280600081526020016060815260200160006001600160a01b03168152602001600081526020016000815260200160008152602001600081526020016000815260200160006001600160401b0316815260200160006001600160401b031681525090565b6000806040838503121561257957600080fd5b50508035926020909101359150565b6020808252825182820181905260009190848201906040850190845b818110156125c0578351835292840192918401916001016125a4565b50909695505050505050565b6000602082840312156125de57600080fd5b5035919050565b6000602082840312156125f757600080fd5b81356001600160a01b038116811461260e57600080fd5b9392505050565b80356001600160401b038116811461262c57600080fd5b919050565b6000806040838503121561264457600080fd5b8235915061265460208401612615565b90509250929050565b60005b83811015612678578181015183820152602001612660565b50506000910152565b6000815180845261269981602086016020860161265d565b601f01601f19169290920160200192915050565b60006101408251845260208301518160208601526126cd82860182612681565b91505060408301516126ea60408601826001600160a01b03169052565b50606083015160608501526080830151608085015260a083015160a085015260c083015160c085015260e083015160e085015261010080840151612738828701826001600160401b03169052565b5050610120928301516001600160401b03169390920192909252919050565b60208152600061260e60208301846126ad565b6000602080830181845280855180835260408601915060408160051b870101925083870160005b828110156127bf57603f198886030184526127ad8583516126ad565b94509285019290850190600101612791565b5092979650505050505050565b60008083601f8401126127de57600080fd5b5081356001600160401b038111156127f557600080fd5b60208301915083602082850101111561280d57600080fd5b9250929050565b60008060008060006080868803121561282c57600080fd5b8535945060208601356001600160401b0381111561284957600080fd5b612855888289016127cc565b9699909850959660408101359660609091013595509350505050565b6000806000806060858703121561288757600080fd5b843593506020850135925060408501356001600160401b038111156128ab57600080fd5b6128b7878288016127cc565b95989497509550505050565b600080600080606085870312156128d957600080fd5b84356001600160401b038111156128ef57600080fd5b6128fb878288016127cc565b90989097506020870135966040013595509350505050565b60006101408c835280602084015261292d8184018d612681565b6001600160a01b039b909b16604084015250506060810197909752608087019590955260a086019390935260c085019190915260e08401526001600160401b03908116610100840152166101209091015292915050565b60008060006060848603121561299957600080fd5b833592506129a960208501612615565b9150604084013590509250925092565b634e487b7160e01b600052604160045260246000fd5b634e487b7160e01b600052603260045260246000fd5b634e487b7160e01b600052601160045260246000fd5b600060018201612a0d57612a0d6129e5565b5060010190565b600181811c90821680612a2857607f821691505b602082108103612a4857634e487b7160e01b600052602260045260246000fd5b50919050565b601f821115612a9457600081815260208120601f850160051c81016020861015612a755750805b601f850160051c820191505b8181101561235157828155600101612a81565b505050565b81516001600160401b03811115612ab257612ab26129b9565b612ac681612ac08454612a14565b84612a4e565b602080601f831160018114612afb5760008415612ae35750858301515b600019600386901b1c1916600185901b178555612351565b600085815260208120601f198616915b82811015612b2a57888601518255948401946001909101908401612b0b565b5085821015612b485787850151600019600388901b60f8161c191681555b5050505050600190811b01905550565b81810381811115610596576105966129e5565b80820180821115610596576105966129e5565b8082028115828204841417610596576105966129e5565b6001600160401b03818116838216028082169190828114612bb857612bb86129e5565b505092915050565b600082612bdd57634e487b7160e01b600052601260045260246000fd5b500490565b60008251612bf481846020870161265d565b9190910192915050565b600060208284031215612c1057600080fd5b8151801515811461260e57600080fdfef12a1a922705ffd5ec4fc8a3f56e1ddef3c5f715c7034230a0a280240c29a6f0a2646970667358221220713b5be5ba2a46f8c62c62479041af0d9b3f4fb03f837f74e3b80419f7fd1a0664736f6c63430008130033",
    "sourcePath": "c:/Projects/Toolblox.Audit/Toolblox.Token/Audit/RentalWorkflow.sol",
    "compiler": {
        "name": "solc",
        "version": "0.8.19+commit.7dd6d404"
    },
    "functionHashes": {
        "RENTER_ROLE()": "b97c9f77",
        "charge(uint256)": "e457e1e5",
        "chargeWithCollateral(uint256)": "abeb0b7e",
        "endAndSettle(uint256)": "615704c4",
        "endRental(uint256)": "97491d6f",
        "finalCharge(uint256,uint256)": "393bef2b",
        "getItem(uint256)": "3129e773",
        "getLatest(uint256)": "33495dd3",
        "getLatestIds(uint256)": "59f719f5",
        "getPage(uint256,uint256)": "cd1a2e91",
        "getPageIds(uint256,uint256)": "06889aa8",
        "increaseAllowance(uint256)": "11e330b2",
        "items(uint256)": "bfb231d2",
        "makeAvailable(uint256,string,uint256,uint256)": "806a0faf",
        "owner()": "8da5cb5b",
        "registerItem(string,uint256,uint256)": "a7c6309b",
        "releaseCollateral(uint256,uint256,string)": "67bc080c",
        "renounceOwnership()": "715018a6",
        "setOwner(address)": "13af4035",
        "startRent(uint256,uint64,uint256)": "cbd44ec4",
        "token()": "fc0c546a",
        "transferOwnership(address)": "f2fde38b",
        "update(uint256,string,uint256,uint256)": "5adc0246",
        "updateAllowance(uint256)": "c8be77a1",
        "updateDuration(uint256,uint64)": "261002f3"
    },
    "gasEstimates": {
        "creation": {
            "codeDepositCost": "2276400",
            "executionCost": "infinite",
            "totalCost": "infinite"
        },
        "external": {
            "": "229",
            "RENTER_ROLE()": "328",
            "charge(uint256)": "infinite",
            "chargeWithCollateral(uint256)": "infinite",
            "endAndSettle(uint256)": "infinite",
            "endRental(uint256)": "infinite",
            "finalCharge(uint256,uint256)": "infinite",
            "getItem(uint256)": "infinite",
            "getLatest(uint256)": "infinite",
            "getLatestIds(uint256)": "infinite",
            "getPage(uint256,uint256)": "infinite",
            "getPageIds(uint256,uint256)": "infinite",
            "increaseAllowance(uint256)": "infinite",
            "items(uint256)": "infinite",
            "makeAvailable(uint256,string,uint256,uint256)": "infinite",
            "owner()": "2365",
            "registerItem(string,uint256,uint256)": "infinite",
            "releaseCollateral(uint256,uint256,string)": "infinite",
            "renounceOwnership()": "infinite",
            "setOwner(address)": "infinite",
            "startRent(uint256,uint64,uint256)": "infinite",
            "token()": "2447",
            "transferOwnership(address)": "28389",
            "update(uint256,string,uint256,uint256)": "infinite",
            "updateAllowance(uint256)": "infinite",
            "updateDuration(uint256,uint64)": "infinite"
        },
        "internal": {
            "_assertOnlyRenter(struct RentalWorkflow.Rental memory)": "infinite",
            "_assertStatus(struct RentalWorkflow.Rental memory,uint64)": "infinite"
        }
    }
}